:020000040000FA
:0600000096EF14F012005F
:08000800F2A402D0FCEF11F09C
:0A0010009EAA02D0A3EF0EF012002A
:06002A000A00562C000044
:10003000E503000012000000542C0000FE01000047
:1000400002000000322C0000CD0100002200000060
:10005000302C0000FC01000002000000232C0000F6
:10006000EF0100000D000000BC2B00009404000014
:1000700067000000282B000000040000940000002E
:10008000432A000000030000E5000000BD29000035
:1000900047010000860000007629000000010000F2
:0400A0004700000015
:0C00A400080EE66EE9EC0DF0E552010ECE
:1000B000E66E5EEC05F0E55238EC05F04DEC05F02F
:1000C0000101010E006F1200010EE66E5EEC05F0FC
:1000D000E55238EC05F04DEC05F00101010E006F22
:1000E0001200D9CFE6FFE1CFD9FF0C0EE126DF6881
:1000F000D950020FE66E000EDA20E66ED950030FDB
:10010000E66E000EDA20E66E08EC11F0E552E552DC
:10011000E552E552000901E17AD2020EDBCFE6FF9B
:10012000030EDBCFE6FF7DDAE552E552DF6EFF0E10
:10013000DF5C01E16CD201010051070A01E145D207
:10014000040A01E1EED1010A01E10BD1030A6FE0DB
:10015000010A01E05BD2050EDB6A080EDF5C0BE1F1
:10016000E66A5EEC05F0E55238EC05F04DEC05F082
:100170000101006B5BD00A0EDF5C19E10101225125
:10018000000814E2250EE66E010EE66EADEC06F0F8
:10019000E552E552010EE66E5EEC05F0E55238ECF4
:1001A00005F04DEC05F00101010E006F3FD0110E7E
:1001B000DF5C1DE1010E0101225D18E201014651E3
:1001C000EA6A250FE96E010EEA22020EEF6E040EB6
:1001D000E66EA4EC05F0E55201012251222BEA6AF9
:1001E000010FE96E010EEA22DFCFEFFF1FD0120EE2
:1001F000DF5C1CE1010E0101225D18E201014651A4
:10020000EA6A250FE96E010EEA22030EEF6E050E73
:10021000E66EA4EC05F0E55201012251222BEA6AB8
:10022000010FE96E010EEA22DFCFEFFFF0D1080ED9
:10023000DF5C0DE1010EE66E5EEC05F0E55238EC98
:1002400005F04DEC05F00101010E006F89D00A0E9A
:10025000DF5C53E1010122054FE101014651EA6AE9
:10026000250FE96E010EEA22030EEF6E0101220551
:10027000EA6A010FE96E010EEA22EF50320A17E036
:10028000030A01E027D0250EE66E010EE66EADEC06
:1002900006F0E552E552070EE66E5EEC05F0E5521B
:1002A000E7DB4DEC05F00101020E006FB0D1250E29
:1002B000E66E010EE66EADEC06F0E552E552080E74
:1002C000E66E5EEC05F0E552D3DBE7DB0101030EE1
:1002D000006F9DD1250EE66E010EE66EADEC06F0C8
:1002E000E552E552010EE66EE9DBE552C1DBD5DBF6
:1002F0000101010E006F8BD133D0110EDF5C10E1D4
:10030000020EE66EA4EC05F0E55201012251222B0B
:10031000EA6A010FE96E010EEA22310EEF6E20D07B
:10032000120EDF5C10E1030EE66EA4EC05F0E55260
:1003300001012251222BEA6A010FE96E010EEA2225
:10034000320EEF6E0DD02A0EDF5C0AE1060EE66E6D
:10035000A4EC05F0E5528CDBA0DB0101070E006F79
:1003600056D1080EDF5C16E101012251000808E2B7
:10037000DFCFE6FFFBEC0DF0E5520101220709D0CB
:10038000010EE66E9BDBE55273DB87DB0101010E9C
:10039000006FC6D0130EDF5C1AE1000E0101225D72
:1003A00015E331DB46C1E6FF250EE66E010EE66E73
:1003B0005CEC07F0E552E552E552010EE66E7EDB9D
:1003C000E55256DB6ADB0101010E006FA9D0030E76
:1003D000DB500101235D71E1280EF36E020EDBCFCD
:1003E000F4FFF350F45C38E20101220701012251CD
:1003F000EA6A010FE96E010EEA22DFCFEFFF080E75
:10040000E66EFBEC0DF0E55201012251EA6A010FA4
:10041000E96E010EEA22EF50E66EFBEC0DF0E552BC
:10042000140EF36E060EF3CFDBFF070EDB6A060E2B
:10043000DBCF0BF0DB06070EDBCF0CF001E2DB06B7
:100440000B500C1006E0040EE66E76EC14F0E5524C
:10045000EED70101222B30D001012251EA6A010FAF
:10046000E96E010EEA22DFCFEFFF01012251EA6AB5
:10047000010FE96E010EEA22EF50E66EFBEC0DF083
:10048000E552140EF36E080EF3CFDBFF090EDB6AA4
:10049000080EDBCF0BF0DB06090EDBCF0CF001E220
:1004A000DB060B500C1006E0040EE66E76EC14F042
:1004B000E552EED70101222B30D001012251EA6A28
:1004C000010FE96E010EEA22DFCFEFFF0101225199
:1004D000EA6A010FE96E010EEA22EF50E66EFBECCC
:1004E0000DF0E552140EF36E0A0EF3CFDBFF0B0E88
:1004F000DB6A0A0EDBCF0BF0DB060B0EDBCF0CF05A
:1005000001E2DB060B500C1006E0040EE66E76EC02
:1005100014F0E552EED70101222B030EDBCF23F1BD
:1005200076D0080EDF5C18E10101225100080AE2D2
:10053000DFCFE6FFFBEC0DF0E552010122070101E0
:10054000460709D0010EE66EB9DAE55291DAA5DA6E
:100550000101010E006F38D0130EDF5C1AE1000EAE
:100560000101225D15E309DA46C1E6FF250EE66EBC
:10057000010EE66ECEEC08F0E552E552E552010EB2
:10058000E66E9CDAE55274DA88DA0101010E006F3A
:100590001BD0020E0101225D17E201012251EA6A1D
:1005A000010FE96E010EEA22DFCFEFFF01012251B8
:1005B000EA6A010FE96E010EEA22EF50E66EFBECEB
:1005C0000DF0E5520101222B22D0080EDF5C0FE175
:1005D000DFCFE6FFFBEC0DF0E552010EE66E6EDAC2
:1005E000E55246DA5ADA0101010E006F0ED0130E01
:1005F000DF5C0BE132EC08F0010EE66E5FDAE552EB
:1006000037DA4BDA0101010E006F01D000D00C0E79
:10061000E15C02E2E16AE552E16EE552E7CFD9FF23
:100620001200D9CFE6FFE1CFD9FFE652DF68010122
:100630000051070A01E181D1040A01E116D1010A42
:1006400001E179D0030A39E0010A01E08ED1010EFF
:100650000101225D19E2FE0EDB50070804E0FE0EE8
:10066000DB5003080FE1FE0EDB50050DF3CFF6FF64
:10067000F4CFF7FF140EF626270EF7220800F550E8
:10068000DF6E01D0DF6818D0FE0EDB500B0804E0EF
:10069000FE0EDB500F080FE1FE0EDB50050DF3CF11
:1006A000F6FFF4CFF7FF140EF626270EF722080008
:1006B000F550DF6E01D0DF6859D1010E0101225DD6
:1006C00021E2FE0EDB5003080CE0FE0EDB500708B3
:1006D00008E0FE0EDB500C0804E0FE0EDB500B08B9
:1006E0000FE1FE0EDB50050DF3CFF6FFF4CFF7FF61
:1006F000140EF626270EF7220800F550DF6E01D003
:10070000DF6818D0FE0EDB500B0804E0FE0EDB5055
:100710000F080FE1FE0EDB50050DF3CFF6FFF4CF0F
:10072000F7FF140EF626270EF7220800F550DF6EAD
:1007300001D0DF681BD1010E0101225D26E2FE0E11
:10074000DB50030810E0FE0EDB5007080CE0FE0E45
:10075000DB500C0808E0FE0EDB500E0804E0FE0E35
:10076000DB500F0803E1DF6801D10ED0FE0EDB5035
:10077000050DF3CFF6FFF4CFF7FF140EF626270E84
:10078000F7220800F550DF6E6FD0180E0101225DD0
:1007900053E2FE0EDB5003080CE0FE0EDB500708B0
:1007A00008E0FE0EDB500C0804E0FE0EDB500F08E4
:1007B00003E1DF68DBD00ED0FE0EDB50050DF3CF7A
:1007C000F6FFF4CFF7FF140EF626270EF7220800E7
:1007D000F550DF6EFE0EDB500101235D14E1280EA3
:1007E000F36EFD0EDBCFF4FFF350F45C09E2010180
:1007F000242B050E0101245D02E10101246B02D0CE
:100800000101246B02D00101246BFE0EDB50050DAB
:10081000F3CF0BF0F4CF0CF0140E0B26270E0C22A6
:10082000010124510F010B24F66E000E0C20F76E0F
:100830000800F550DF6E18D0FE0EDB500B0804E008
:10084000FE0EDB500F080FE1FE0EDB50050DF3CF5F
:10085000F6FFF4CFF7FF140EF626270EF722080056
:10086000F550DF6E01D0DF6881D0010E0101225DFD
:1008700026E2FE0EDB50030810E0FE0EDB500708F8
:100880000CE0FE0EDB500C0808E0FE0EDB500E08FC
:1008900004E0FE0EDB500F0803E1DF6867D00ED0E6
:1008A000FE0EDB50050DF3CFF6FFF4CFF7FF140E6D
:1008B000F626270EF7220800F550DF6E3DD0020E17
:1008C0000101225D21E2FE0EDB5003080CE0FE0E6A
:1008D000DB50070808E0FE0EDB500C0804E0FE0EBB
:1008E000DB500F0802E1DF680ED0FE0EDB50050D75
:1008F000F3CFF6FFF4CFF7FF140EF626270EF722FC
:100900000800F550DF6E18D0FE0EDB500B0804E037
:10091000FE0EDB500E080FE1FE0EDB50050DF3CF8F
:10092000F6FFF4CFF7FF140EF626270EF722080085
:10093000F550DF6E01D0DF6819D0FE0EDB50050DDB
:10094000F3CFF6FFF4CFF7FF140EF626270EF722AB
:100950000800F550DF6EFE0EDB500B0805E0FE0EC2
:10096000DB500E0801E0DF6801D000D0DF5000D07E
:10097000E552E552E7CFD9FF1200D9CFE6FFE1CF2C
:10098000D9FF020EE126010EDB6A0101220511E109
:10099000300E0101015DE66E01014651EA6A250F44
:1009A000E96E010EEA22E552E750EF6E0101462B97
:1009B0001BD0020E0101225D17E1300E0101025D24
:1009C0000B6E300E0101015D0A0DF3500B24E66E33
:1009D00001014651EA6A250FE96E010EEA22E5524D
:1009E000E750EF6E0101462B010EDB5000D00B6E7D
:1009F000020EE15C02E2E16AE552E16E0B50E55263
:100A0000E7CFD9FF1200D9CFE6FFE1CFD9FFE652F9
:100A1000DF6A01012251DF5C16E2DF50EA6A010F52
:100A2000E96E010EEA22EF50E66E01014651EA6AD4
:100A3000250FE96E010EEA22E552E750EF6E010143
:100A4000462BDF2AE6D701014651EA6A250FE96EF7
:100A5000010EEA22EF6A0101462B200E0101465DDC
:100A600002E30101466BE552E552E7CFD9FF1200E0
:100A7000200EE66EE66AE66A010EE66E010EE66E8E
:100A800045EC14F00B6E050EE15E0B500101226B7C
:100A90000101246B010123691200200EE66EE66A53
:100AA000E66A250EE66E010EE66E45EC14F00B6E5E
:100AB000050EE15E0B500101466B1200D9CFE6FF37
:100AC000E1CFD9FF030EE126FE0EEA6ADB34FE0B0E
:100AD000EA36E96EE50EE926030EEA22010EEECFB4
:100AE000DBFF020EEDCFDBFFF4EC0DF0DF6ADF5031
:100AF000E76E010EDBCFF6FF020EDBCFF7FFE7500C
:100B0000F626000EF7220800F55014E0DF50E76EDD
:100B1000010EDBCFF6FF020EDBCFF7FFE750F62624
:100B2000000EF7220800F550E66EFBEC0DF0E552E2
:100B3000DF2ADDD7030EE15C02E2E16AE552E16EF5
:100B4000E552E7CFD9FF1200D9CFE6FFE1CFD9FFB9
:100B5000030EE126FE0EEA6ADB34FE0BEA36E96E8E
:100B6000E50EE926030EEA22010EEECFDBFF020EB0
:100B7000EDCFDBFFDF6ADF50E76E010EDBCFF6FF64
:100B8000020EDBCFF7FFE750F626000EF722080033
:100B9000F55014E0DF50E76E010EDBCFF6FF020EDA
:100BA000DBCFF7FFE750F626000EF7220800F550DE
:100BB000E66EFBEC0DF0E552DF2ADDD7030EE15CBB
:100BC00002E2E16AE552E16EE552E7CFD9FF120099
:100BD000D9CFE6FFE1CFD9FFE652DF6ADF500B6ED7
:100BE0000C6AD8900C5004E6060E0B5C000E0C58F4
:100BF0001EE2DF50250DF3CFE9FFF4CFEAFF000E30
:100C0000E926030EEA22240EE926000EEA22010E4E
:100C1000EF6EDF50250DF3CFE9FFF4CFEAFF000EB2
:100C2000E926030EEA22EE52EF6ADF2AD7D7030144
:100C3000DF69E069E169E269480EE66E130EE66E6F
:100C4000DD0EE66ECC0EE66EBB0EE66EAA0EE66E0E
:100C5000ACEC09F00B6E060EE15E0B50E552E5526E
:100C6000E7CFD9FF1200D9CFE6FFE1CFD9FFE65297
:100C7000DF6ADF500B6E0C6AD8900C5004E6060E4B
:100C80000B5C000E0C5851E2DF50250DF3CFE9FF4D
:100C9000F4CFEAFF000EE926030EEA22240EE9262D
:100CA000000EEA22EF503FE1010EE66EDF50250D07
:100CB000F3CFE9FFF4CFEAFF000EE926030EEA22A4
:100CC000EE52EF50E66EDF50250DF3CF0BF0F4CF70
:100CD0000CF0000E0B26030E0C220BC0E6FF0CC01E
:100CE000E6FF5CEC0BF0E552E552E552E552DF50D1
:100CF000250DF3CFE9FFF4CFEAFF000EE926030E3E
:100D0000EA22240EE926000EEA22010EEF6EDF50E1
:100D1000250DF3CFE9FFF4CFEAFF000EE926030E1D
:100D2000EA22EE52EF6ADF2AA4D70301E40510E1BC
:100D30000301DF07000EE05BE15BE25B0301DF51D3
:100D4000E011E111E21104E164EC00F00301E46B55
:100D5000E552E552E7CFD9FF1200D9CFE6FFE1CF48
:100D6000D9FF020EE126DF6ADF500B6E0C6AD890C5
:100D70000C5004E6060E0B5C000E0C5813E2DF501C
:100D8000250DF3CFE9FFF4CFEAFF000EE926030EAD
:100D9000EA22240EE926000EEA22EF0401E102D045
:100DA000DF2AE2D7DF50250DF3CFE9FFF4CFEAFFCA
:100DB000000EE926030EEA22EE52EF2ADF50250D3F
:100DC000F3CFE9FFF4CFEAFF000EE926030EEA2293
:100DD000010EEF6EDF50250DF3CFE9FFF4CFEAFFF0
:100DE000000EE926030EEA22EE52EF2ADF50250D0F
:100DF000F3CFE9FFF4CFEAFF000EE926030EEA2263
:100E0000020EE926000EEA22700EEF6EDF50250D6D
:100E1000F3CFE9FFF4CFEAFF000EE926030EEA2242
:100E2000EE52EF2AFD0EDBCFE9FFFE0EDBCFEAFF2D
:100E3000EF50E66EDF50250DF3CFE9FFF4CFEAFF68
:100E4000000EE926030EEA22030EE926000EEA222E
:100E5000E552E750EF6E0301E36FDF50250DF3CF4E
:100E6000E9FFF4CFEAFF000EE926030EEA22EE5274
:100E7000EF2ADF50250DF3CFE9FFF4CFEAFF000E94
:100E8000E926030EEA22240EE926000EEA22EF6A82
:100E90000301E80EDF6F030EE06FE16BE26B03010D
:100EA000010EE46F020EE15C02E2E16AE552E16EDE
:100EB000E552E7CFD9FF1200D9CFE6FFE1CFD9FF46
:100EC000020EE126DF6ADF500B6E0C6AD8900C50E0
:100ED00004E6060E0B5C000E0C5813E2DF50250DE5
:100EE000F3CFE9FFF4CFEAFF000EE926030EEA2272
:100EF000240EE926000EEA22EF0401E102D0DF2AE7
:100F0000E2D7DF50250DF3CFE9FFF4CFEAFF000E63
:100F1000E926030EEA22EE52EF2ADF50250DF3CF29
:100F2000E9FFF4CFEAFF000EE926030EEA22010EE4
:100F3000EF6EDF50250DF3CFE9FFF4CFEAFF000E8F
:100F4000E926030EEA22EE52EF2ADF50250DF3CFF9
:100F5000E9FFF4CFEAFF000EE926030EEA22020EB3
:100F6000E926000EEA22710EEF6EDF50250DF3CF59
:100F7000E9FFF4CFEAFF000EE926030EEA22EE5263
:100F8000EF2ADF50250DF3CFE9FFF4CFEAFF000E83
:100F9000E926030EEA22030EE926000EEA22E3C345
:100FA000EFFFDE52010EDD6E010EDBCF0BF0FC0E0B
:100FB000DB50D8800B542DE3FD0EDBCFE9FFFE0E96
:100FC000DBCFEAFFEF50E66EDF50250DF3CFE9FFF0
:100FD000F4CFEAFF000EE926030EEA22030EE9260B
:100FE000000EEA22E9CF0BF0EACF0CF0010EDB5045
:100FF0000F010B24E96E000E0C20EA6EE552E7505B
:10100000EF6E010EDB2AFD0EDB2AFE0E01E3DB2A6A
:10101000CBD7DF50250DF3CFE9FFF4CFEAFF000E69
:10102000E926030EEA22EE52010EDB50EF26DF50D6
:10103000250DF3CFE9FFF4CFEAFF000EE926030EFA
:10104000EA22240EE926000EEA22EF6A0301E46B8D
:10105000020EE15C02E2E16AE552E16EE552E7CFA1
:10106000D9FF1200D9CFE6FFE1CFD9FF020EE1266A
:10107000DF6ADF500B6E0C6AD8900C5004E6060E47
:101080000B5C000E0C5813E2DF50250DF3CFE9FF87
:10109000F4CFEAFF000EE926030EEA22240EE92629
:1010A000000EEA22EF0401E102D0DF2AE2D7DF508E
:1010B000250DF3CFE9FFF4CFEAFF000EE926030E7A
:1010C000EA22EE52EF2ADF50250DF3CFE9FFF4CFED
:1010D000EAFF000EE926030EEA22010EEF6EDF5052
:1010E000250DF3CFE9FFF4CFEAFF000EE926030E4A
:1010F000EA22EE52EF2ADF50250DF3CFE9FFF4CFBD
:10110000EAFF000EE926030EEA22020EE926000E8F
:10111000EA22730EEF6EDF50250DF3CFE9FFF4CF17
:10112000EAFF000EE926030EEA22EE52EF2ADF5014
:10113000250DF3CFE9FFF4CFEAFF000EE926030EF9
:10114000EA22030EE926000EEA22E3C3EFFFDF5096
:10115000250DF3CFE9FFF4CFEAFF000EE926030ED9
:10116000EA22EE52EF2ADF50250DF3CFE9FFF4CF4C
:10117000EAFF000EE926030EEA22240EE926000EFD
:10118000EA22EF6A0301E46B020EE15C02E2E16A2B
:10119000E552E16EE552E7CFD9FF1200D9CFE6FF65
:1011A000E1CFD9FF020EE126DF6ADF500B6E0C6A39
:1011B000D8900C5004E6060E0B5C000E0C5813E29F
:1011C000DF50250DF3CFE9FFF4CFEAFF000EE9264B
:1011D000030EEA22240EE926000EEA22EF0401E1C2
:1011E00002D0DF2AE2D7DF50250DF3CFE9FFF4CF9D
:1011F000EAFF000EE926030EEA22EE52EF2ADF5044
:10120000250DF3CFE9FFF4CFEAFF000EE926030E28
:10121000EA22010EEF6EDF50250DF3CFE9FFF4CF88
:10122000EAFF000EE926030EEA22EE52EF2ADF5013
:10123000250DF3CFE9FFF4CFEAFF000EE926030EF8
:10124000EA22020EE926000EEA22720EEF6EDF504D
:10125000250DF3CFE9FFF4CFEAFF000EE926030ED8
:10126000EA22EE52EF2ADF50250DF3CFE9FFF4CF4B
:10127000EAFF000EE926030EEA22030EE926000E1D
:10128000EA22E3C3EFFFDE52010EDD6E010EDBCF7B
:101290000BF0FC0EDB50D8800B542DE3FD0EDBCFA2
:1012A000E9FFFE0EDBCFEAFFEF50E66EDF50250DC3
:1012B000F3CFE9FFF4CFEAFF000EE926030EEA229E
:1012C000030EE926000EEA22E9CF0BF0EACF0CF07C
:1012D000010EDB500F010B24E96E000E0C20EA6EAC
:1012E000E552E750EF6E010EDB2AFD0EDB2AFE0E03
:1012F00001E3DB2ACBD7DF50250DF3CFE9FFF4CF95
:10130000EAFF000EE926030EEA22EE52010EDB5040
:10131000EF26DF50250DF3CFE9FFF4CFEAFF000EF3
:10132000E926030EEA22240EE926000EEA22EF6ADD
:101330000301E46B020EE15C02E2E16AE552E16E58
:10134000E552E7CFD9FF1200D9CFE6FFE1CFD9FFB1
:08135000E552E7CFD9FF1200BE
:08135800D9CFE6FFE1CFD9FF78
:101360004EEC0FF0FE0EDBCF01F4FD0EDBCF02F4EE
:10137000FC0EDBCF03F4FB0EDBCF04F4F90EDBCF66
:1013800089F4FA0EDBCF8AF404D8E552E7CFD9FF0F
:1013900012004EEC0FF00401856B0401866B040112
:1013A000010E006F0401876B0401050E886F8FC466
:1013B0008BF490C48CF491C48DF492C48EF400C468
:1013C00093F41200D9CFE6FFE1CFD9FF060EE12654
:1013D000DF6A82EC12F004C08FF405C090F406C0FE
:1013E00091F407C092F48B0EE96E040EEA6EEE5093
:1013F00004018F190CE1EE500401901908E1EE5040
:101400000401911904E1EE500401921900E114E085
:10141000040100510401935D07E104018807040100
:10142000885102E1B6DFEDD08FC48BF490C48CF408
:1014300091C48DF492C48EF404010051030A01E1B9
:10144000D9D0010A31E0060A14E0050A01E0D5D03E
:1014500000EC10F0000903E01DEC10F0DF6E040159
:101460000151DF5C05E10401856B0401040E006F8E
:10147000C6D000EC10F0000901E1C3D01DEC10F063
:10148000DF6E030EDF5C02E084DFBBD00401855118
:10149000852BEA6A050FE96E040EEA22DFCFEFFF23
:1014A0000401020E006FABD000EC10F0000901E166
:1014B000A8D01DEC10F0DF6E04010251DF5C01E0EA
:1014C0007DD0020EDB6A030EDB68D950030FE66E97
:1014D000000EDA20E66E9FD8E552E552E76E020E66
:1014E000E7CFDBFF020EDB50020A59E0030A05E0FA
:1014F000010A01E05ED04DDF84D0040189518A11D8
:101500004BE0D950040FE66E000EDA20E66E870E2F
:10151000E66E040EE66E070EE66E040EE66E05D06D
:101520008AC4FAFF04018951F96EFADF0B6E060EC8
:10153000E15E0B500401866F0401030E456F040148
:10154000862B87C446F40401862BDE52020EDD6E24
:1015500004018651F36E010EDBCFF4FFF350F45C0F
:101560001AE2040EDBCFE9FF050EDBCFEAFFEF50F6
:10157000E66E010EDB50EA6A450FE96E040EEA22C0
:10158000E552E750EF6E040EDB2A050E01E3DB2A7D
:10159000010EDB2ADDD702D0FCDE33D00BD00401F4
:1015A000030E456F0401862B87C446F40401862B85
:1015B00001D000D00401030E006F1BD0040185513F
:1015C000852BEA6A050FE96E040EEA22DFCFEFFFF2
:1015D000400E0401855D0DE30401030E456F040117
:1015E000862B0401900E466F0401862B0401030E26
:1015F000006F05D0C6D8CDDE02D0CBDE00D000C44F
:1016000093F4060EE15C02E2E16AE552E16EE55216
:10161000E7CFD9FF1200D9CFE6FFE1CFD9FF020E05
:10162000E12604018505EA6A050FE96E040EEA2247
:10163000EFCFDFFF010EDB6A030E0401055D06E05C
:10164000FF0E0401055D02E0000E2AD004018505AD
:10165000E66E050EE66E040EE66E06D9E552E5521C
:10166000E552E76E010EE7CFDBFF010EDB50DF5CDA
:101670000DE10401850704018551EA6A050FE96E51
:10168000040EEA22EF6A010E0BD00AD0FD0EDBCF6A
:10169000E9FFFE0EDBCFEAFF910EEF6E000E00D0E9
:1016A0000B6E020EE15C02E2E16AE552E16E0B5064
:1016B000E552E7CFD9FF1200D9CFE6FFE1CFD9FF3E
:1016C000020EE126DF6A010EDB6AFC0EDBCFE6FFCD
:1016D000FD0EDBCFE6FFFE0EDBCFE6FFC5D8E55201
:1016E000E552E552DF6EFB0EDB0406E101C4E6FFC6
:1016F00067EC0FF0E55205D003C4E6FF67EC0FF08E
:10170000E552010EDB6AFC0EDB50F36E010EDBCFFF
:10171000F4FFF350F45C15E2010EDB50E76EFD0EB2
:10172000DBCFE9FFFE0EDBCFEAFFE750E926000E34
:10173000EA22EF50E66E67EC0FF0E552010EDB2A6D
:10174000E2D7DFCFE6FF67EC0FF0E552FB0EDB04DC
:1017500006E102C4E6FF67EC0FF0E55205D004C4D1
:10176000E6FF67EC0FF0E55286EC0FF00400020E86
:10177000E15C02E2E16AE552E16EE552E7CFD9FFB2
:101780001200D9CFE6FFE1CFD9FF020EE126DF6AD2
:10179000010EDB6A86C4E6FF450EE66E040EE66EB9
:1017A00063D8E552E552E552DF6E03C4E6FF67EC0D
:1017B0000FF0E552010EDB6A04018651F36E010E53
:1017C000DBCFF4FFF350F45C0FE2010EDB50EA6A6A
:1017D000450FE96E040EEA22EF50E66E67EC0FF05B
:1017E000E552010EDB2AE8D7DFCFE6FF67EC0FF00A
:1017F000E55204C4E6FF67EC0FF0E55286EC0FF00B
:101800000400020EE15C02E2E16AE552E16EE5529B
:10181000E7CFD9FF1200D9CFE6FFE1CFD9FFFD0E08
:10182000DBCFF6FFFE0EDBCFF7FF0800F55016E02A
:10183000FD0EDBCFF6FFFE0EDBCFF7FF0800F55005
:10184000E66E67EC0FF0E552FD0EDBCFF6FFDB2A0C
:10185000FE0EDBCFF7FF01E3DB2AE1D786EC0FF0CA
:10186000E552E7CFD9FF1200D9CFE6FFE1CFD9FF8C
:10187000030EE126DF6A010EDB6AFC0EDB50F36E1D
:10188000010EDBCFF4FFF350F45C12E2010EDB50EB
:10189000E76EFD0EDBCFE9FFFE0EDBCFEAFFE75080
:1018A000E926000EEA22EF50DF1A010EDB2AE5D707
:1018B000DF5000D00B6E030EE15C02E2E16AE552FC
:0C18C000E16E0B50E552E7CFD9FF12009B
:0418CC00D9CFE6FF8B
:1018D000E1CFD9FF030EE126300EF36E010EF3CFF8
:1018E000DBFF750EF36E020EF3CFDBFF010EDF6E32
:1018F000DF0431E1958E958C958A95889592959423
:101900009596000000008C928C84000000008C866C
:10191000000000008350800B01E0010EDF6E8C960A
:101920008C86000000008C96010EDB06020E01E2A0
:10193000DB06D950010FE96EDACFEAFFEE50ED1069
:1019400009E1959E959C959A959895929594959672
:10195000FF0E0AD0CDD7959E959C959A9598959215
:1019600095949596000E00D00B6E030EE15C02E29A
:10197000E16AE552E16E0B50E552E7CFD9FF120064
:10198000D9CFE6FFE1CFD9FF8C928C940000FE0EF8
:10199000DB50F00B0B6E0F0E8C140B108C6E0000D6
:1019A0008C86000000008C96E552E7CFD9FF12002C
:1019B000D9CFE6FFE1CFD9FF89DF8C928C9400006C
:1019C000FE0EDB50F00B0B6E0F0E8C140B108C6E9A
:1019D00000008C86000000008C96FE0EDB38F00BB9
:1019E000F00B0B6E0F0E8C140B108C6E00008C869F
:1019F000000000008C96E552E7CFD9FF1200D9CF46
:101A0000E6FFE1CFD9FF62DF8C828C940000FE0EEE
:101A1000DB50F00B0B6E0F0E8C140B108C6E000055
:101A20008C86000000008C96FE0EDB38F00BF00B6D
:101A30000B6E0F0E8C140B108C6E00008C86000049
:101A400000008C96E552E7CFD9FF1200D9CFE6FF10
:101A5000E1CFD9FF0B0EE126959E959C959A95981E
:101A6000959295949596280EF36E010EF3CFDBFFB9
:101A7000020EDB6A010EDBCF0BF0DB06020EDBCFC2
:101A80000CF001E2DB060B500C1006E0040EE66ED3
:101A900076EC14F0E552EED7300EE66E71DFE552CB
:101AA0000A0EF36E030EF3CFDBFF040EDB6A030EA8
:101AB000DBCF0BF0DB06040EDBCF0CF001E2DB0624
:101AC0000B500C1006E0040EE66E76EC14F0E552B6
:101AD000EED7300EE66E54DFE5520A0EF36E050EB9
:101AE000F3CFDBFF060EDB6A050EDBCF0BF0DB0668
:101AF000060EDBCF0CF001E2DB060B500C1006E00B
:101B0000040EE66E76EC14F0E552EED7300EE66E7B
:101B100037DFE5520A0EF36E070EF3CFDBFF080E38
:101B2000DB6A070EDBCF0BF0DB06080EDBCF0CF019
:101B300001E2DB060B500C1006E0040EE66E76ECBC
:101B400014F0E552EED7200EE66E1ADFE5520A0ECB
:101B5000F36E090EF3CFDBFF0A0EDB6A090EDBCF53
:101B60000BF0DB060A0EDBCF0CF001E2DB060B50BC
:101B70000C1006E0040EE66E76EC14F0E552EED79B
:101B8000280EE66E15DFE552A1DEDF6EDF5004E1C0
:101B90000401010EFC6F03D00401FC6B10D00F0E8A
:101BA000E66E06DFE552010EE66E02DFE552040E38
:101BB000E66EFEDEE552060EE66EFADEE5520B0E2E
:101BC000E15C02E2E16AE552E16EE552E7CFD9FF5E
:101BD0001200D9CFE6FFE1CFD9FFFE0EDBCFCEF169
:101BE000E552E7CFD9FF1200010EE66EE1DEE552C5
:101BF0000101CD6B1200D9CFE6FFE1CFD9FFE6524C
:101C0000100E0101CD5D05E1C00EE66ED1DEE5529C
:101C10000AD0200E0101CD5D06E30101CD6B020E5D
:101C2000E66EC6DEE552FE0EDB500101CE5D25E11B
:101C30000101CD5101E128D0100E0101CD5D0EE171
:101C4000800EE66EB5DEE552DF6A100EDF5C06E25E
:101C5000140EE66EADDEE552DF2AF7D7100EE66E03
:101C6000A7DEE552200EE66ECADEE552100EE66EE5
:101C70009FDEE5520101CD0707D0FE0EDBCFE6FF68
:101C8000BEDEE5520101CD2BE552E552E7CFD9FF8B
:101C90001200DCDE010EE66E8BDEE5520101CD6B3B
:101CA0001200D9CFE6FFE1CFD9FFE652010EE66E72
:101CB0007FDEE552DF6A100EDF5C1CE2FD0EDBCF3B
:101CC000E9FFFE0EDBCFEAFFEF50E66EDF50EA6A77
:101CD000CF0FE96E010EEA22E552E750EF6EFD0EDE
:101CE000DBCFE9FFDB2AFE0EDBCFEAFF01E3DB2AD5
:101CF000DF2AE1D7C00EE66E5BDEE552DF6A100E2A
:101D0000DF5C1CE2FD0EDBCFE9FFFE0EDBCFEAFF5E
:101D1000EF50E66EDF50EA6ACF0FE96E010EEA225D
:101D2000E552E750EF6EFD0EDBCFE9FFDB2AFE0E3A
:101D3000DBCFEAFF01E3DB2ADF2AE1D7E552E552F8
:061D4000E7CFD9FF1200FD
:0A1D4600DACFE4FFE2CFDAFFE9CFC5
:101D5000E4FFEACFE4FFF6CFE4FFF7CFE4FFF5CFEF
:101D6000E4FFF3CFE4FFF4CFE4FFFACFE4FF00EEAB
:101D700000F00B0EE80403E3EECFE4FFFBD700EE28
:101D80000BF0030EE80403E3EECFE4FFFBD7E652CB
:101D9000D9CFE6FFE1CFD9FFE652D1EC13F0DF6EE9
:101DA00001018A518A2BEA6A8D0FE96E010EEA223F
:101DB000DFCFEFFF400E01018A5D02E301018A6B74
:101DC00001018C2B9E9AE552E552E7CFD9FFE552EF
:101DD00000EE0DF0030EE80403E3E5CFEDFFFBD7C3
:101DE00000EE0AF00B0EE80403E3E5CFEDFFFBD7AE
:101DF000E5CFFAFFE5CFF4FFE5CFF3FFE5CFF5FF41
:101E0000E5CFF7FFE5CFF6FFE5CFEAFFE5CFE9FF46
:101E1000E5CFDAFF1100DACFE4FFE2CFDAFFE9CF56
:101E2000E4FFEACFE4FFE652D9CFE6FFE1CFD9FFE6
:101E3000E6520101495105E1ACA2FED78290AC9A6D
:101E400021D001014851EA6A4A0FE96E010EEA22E7
:101E5000EFCFDFFFDF50AD6E0101482B400E0101D7
:101E6000485D02E30101486B000E0101E76E49196C
:101E7000E8AE02D0493503D0E750D880495502E298
:101E800001014907E552E552E7CFD9FFE552E5CF19
:101E9000EAFFE5CFE9FFE5CFDAFF1100D9CFE6FF92
:101EA000E1CFD9FFE6527C0EDF6E340EE66EE66AB5
:101EB000DFCFE6FF03EC13F0E552E552E552AC8AC2
:101EC000AC9E9F8AE552E552E7CFD9FF1200D9CFE9
:101ED000E6FFE1CFD9FFACA2FED701014751472B66
:101EE000EA6A4A0FE96E010EEA22FE0EDBCFEFFF2F
:101EF0000101492B400E0101475D02E30101476BDF
:101F0000010E00D0E552E7CFD9FF1200D9CFE6FF8E
:101F1000E1CFD9FF060EE1268280010EF36E020E9C
:101F2000F3CFDBFF030EDB6A020EDBCF0BF0DB0629
:101F3000030EDBCF0CF001E2DB060B500C1006E0C9
:101F4000040EE66E76EC14F0E552EED7000E0101B9
:101F5000E76E4919E8AE02D0493503D0E750D88082
:101F6000495528E201014851EA6A4A0FE96E010E1B
:101F7000EA22010EEFCFDBFFACA2FED7010EDB5051
:101F8000AD6EACA2FED70101482B400E0101485DA9
:101F900002E30101486B000E0101E76E4919E8AE4A
:101FA00002D0493503D0E750D880495502E20101FB
:101FB0004907CCD78290010EF36E040EF3CFDBFFFE
:101FC000050EDB6A040EDBCF0BF0DB06050EDBCF64
:101FD0000CF001E2DB060B500C1006E0040EE66E7E
:101FE00076EC14F0E552EED70B6E060EE15C02E2E1
:101FF000E16AE552E16E0B50E552E7CFD9FF1200DE
:10200000D9CFE6FFE1CFD9FFE652DF6A9D9A000EF5
:102010000101E76E8C19E8AE02D08C3503D0E75091
:10202000D8808C5502E2010EDF6E9D8ADF5000D011
:10203000E552E552E7CFD9FF1200D9CFE6FFE1CF55
:10204000D9FFE6529D9A01018B518B2BEA6A8D0FC5
:10205000E96E010EEA22EFCFDFFF400E01018B5D3A
:1020600002E301018B6B000E0101E76E8C19E8AEF3
:1020700002D08C3503D0E750D8808C5502E20101A4
:102080008C079D8ADF5000D0E552E552E7CFD9FF9B
:102090001200D9CFE6FFE1CFD9FF8280040EE66EB1
:1020A000A4EC14F0E552ACA2FED7FD0EDBCFF6FF98
:1020B000DB2AFE0EDBCFF7FF01E3DB2A0800F55039
:1020C000E66E5FEC14F0E552FD0EDBCFF6FFFE0E80
:1020D000DBCFF7FF0800F550E6E18290040EE66ED4
:1020E000A4EC14F0E552E552E7CFD9FF1200D9CFA6
:1020F000E6FFE1CFD9FF8280040EE66EA4EC14F077
:10210000E552ACA2FED7FD0EDBCFE9FFDB2AFE0EC7
:10211000DBCFEAFF01E3DB2AEF50E66E5FEC14F061
:10212000E552FD0EDBCFE9FFFE0EDBCFEAFFEF50FD
:10213000E8E18290040EE66EA4EC14F0E552E5525C
:10214000E7CFD9FF1200D9CFE6FFE1CFD9FFE552A3
:06215000E7CFD9FF1200E9
:0A2156000401F56B0401F66B0401AF
:10216000B26B0401B36B0401B46B0401B5690401E3
:10217000B66B1200D9CFE6FFE1CFD9FF020EE12600
:102180000401F82B000EF923D9CFE6FFDACFE6FFE2
:102190008FD8E552E552000901E130D00401F55134
:1021A0000401F65D04E10401F66B0401F56B040122
:1021B000F651E96EEA6AD890E936EA36B70EE926B2
:1021C000040EEA22DFCFEFFF0401F651E96EEA6A5E
:1021D000D890E936EA36B70EE926040EEA22010E57
:1021E000E926000EEA22F8C4EFFF1E0E0401F65D98
:1021F00002E20401F62B0401F86BF96B020EE15CBC
:1022000002E2E16AE552E16EE552E7CFD9FF120042
:10221000D9CFE6FFE1CFD9FF0401F6510401F55D06
:1022200034E20401F551E96EEA6AD890E936EA36FB
:10223000B70EE926040EEA22EF50E66EFD0EDBCF64
:10224000E9FFFE0EDBCFEAFFE552E750EF6E040137
:10225000F551E96EEA6AD890E936EA36B70EE92612
:10226000040EEA22010EE926000EEA22EF50E66E85
:10227000FB0EDBCFE9FFFC0EDBCFEAFFE552E750B8
:10228000EF6E0401F52B010E02D0000E00D0E552D6
:10229000E7CFD9FF12000401F66B0401F56B0401CE
:1022A000B26B0401B36B0401B46B0401B569120095
:1022B000D9CFE6FFE1CFD9FFE652DF68010E0B6E02
:1022C0008150800B01E0010E0B5C70E18150200B0E
:1022D00001E0010E0D6E8150040B01E0010EE824B7
:1022E0000C6E8150100B01E0010E040DF3CF0BF0CA
:1022F0008150080B01E0010E080DF3500B100C107B
:102300000D100F0BDF6EDF500F0A4BE0010A46E0A5
:10231000030A41E0010A3CE0070A37E0010A32E023
:10232000030A2EE0010A29E00F0A24E0010A1FE057
:10233000030A1AE0010A15E0070A10E0010A0BE09F
:10234000030A06E0010A01E02FD0050EDF6E2ED051
:10235000060EDF6E2BD0090EDF6E28D00A0EDF6E60
:1023600025D0020EDF6E22D0010EDF6E1FD0030ECD
:10237000DF6E1CD0070EDF6E19D0040EDF6E16D094
:10238000DF6A14D00B0EDF6E11D00F0EDF6E0ED091
:102390000C0EDF6E0BD0080EDF6E08D00E0EDF6E57
:1023A00005D00D0EDF6E02D0DF6800D0FF0EDF5CBF
:1023B00006E10401FA690401F769000E18D004016E
:1023C000FA51DF5C10E10401F751DF5C0CE0FD0E17
:1023D000DBCFE9FFFE0EDBCFEAFFDFCFEFFFDFCF82
:1023E000F7F4010E04D0DFCFFAF4000E00D0E5526E
:0823F000E552E7CFD9FF12000E
:0823F800DACFE4FFE2CFDAFFC7
:10240000E9CFE4FFEACFE4FFF6CFE4FFF7CFE4FF44
:10241000F5CFE4FFF3CFE4FFF4CFE4FFFACFE4FF1E
:1024200000EE00F00B0EE80403E3EECFE4FFFBD771
:1024300000EE0BF0030EE80403E3EECFE4FFFBD75E
:10244000E652F2940101F52B000EF623F723F82350
:10245000640E0101F51905E1F65103E1F75101E1BF
:10246000F8510BE10101EF2B000EF023F123F223D1
:102470000101F56BF66BF76BF86B0101F32B000EA6
:10248000F4230101FA2B000EFB230101F92BDF0ECF
:10249000E66EB10EE66E0DEC14F0E552E552E55233
:1024A00000EE0DF0030EE80403E3E5CFEDFFFBD7EC
:1024B00000EE0AF00B0EE80403E3E5CFEDFFFBD7D7
:1024C000E5CFFAFFE5CFF4FFE5CFF3FFE5CFF5FF6A
:1024D000E5CFF7FFE5CFF6FFE5CFEAFFE5CFE9FF70
:1024E000E5CFDAFF11009F0EE66E29EC14F0E552FD
:1024F000DF0EE66EB10EE66E0DEC14F0E552E5521D
:10250000F1841200D9CFE6FFE1CFD9FF040EE12616
:10251000F29AEFC1DFFF010EF0C1DBFF020EF1C145
:10252000DBFF030EF2C1DBFFF28ADECF04F0DECF69
:1025300005F0DECF06F0DDCF07F0DD52DD5200D032
:10254000040EE15C02E2E16AE552E16EE552E7CF9A
:10255000D9FF1200F29EF29C0101EF6BF06BF16B60
:08256000F26BF28EF28C120006
:082568002A0EF66E000EF76E5C
:10257000000EF86E02010900F550056F0900F550D4
:10258000066F03E1056701D03DD00900F550006FEB
:102590000900F550016F0900F550026F09000900AC
:1025A000F550E96E0900F550EA6E090009000900CE
:1025B000F550036F0900F550046F09000900F6CFCC
:1025C00007F2F7CF08F2F8CF09F200C2F6FF01C216
:1025D000F7FF02C2F8FF0201035302E1045307E0D0
:1025E0000900F550EE6E0307F8E20407F9D707C2B9
:1025F000F6FF08C2F7FF09C2F8FF02010507000E47
:06260000065BBFD71200CB
:0A260600D9CFE6FFDACFE6FFE1CFFF
:10261000D9FFE2CFDAFFAC6AAB6AFD0EDBB0AC8863
:10262000DBA202D0AC8CAB8CDBB4AC8EDBA602D0D0
:10263000AB8801D0AB8ADBB8AC849E98DBBAAB86A2
:10264000DBAC02D09D8A01D09D9A9E9ADBAE02D06F
:102650009D8801D09D98FB0EDB50AF6EFB0EFC0EEB
:10266000DBCF0CF00CC00BF00C6A0B50B06EAC8AD8
:10267000AB8E949C948EAC50100B04E0AC50800B4D
:1026800001E1948CE552E5CFDAFFE7CFD9FF1200E4
:10269000D9CFE6FFE1CFD9FFE652F0EC13F073ECAF
:1026A00012F049EC0EF0ABEC10F0040052EC00F02C
:1026B000E8EC05F0F28EF28C71EC00F00400E2EC34
:1026C00009F004000101FA51640804E233EC06F059
:1026D0000101FA6B04000101F9510A0804E2BAECA5
:1026E00010F00101F96B0101640EF35D000EF45965
:1026F0000BE30101FD710101FD51E8B08D80E8A0FF
:102700008D900101F36BF46BD7D7E552E552E7CF1B
:04271000D9FF1200DB
:0C271400312D312D31324142433233442B
:1027200045463311111111113447484934354A4B8C
:102730004C35364D4E4F361212121212375051523E
:10274000533854555638395758595A080808080804
:102750002A2A2A2A2A303030303013131313130A4E
:042760000A0A0A0A4D
:0C2764004F50455241544F52533A00521E
:1027700045463A00425245414B00534459004844B3
:1027800059004F50455241544F5253005245465202
:102790004552454E4345005345543A004C494E4539
:0227A0003A00FD
:0E27A200D9CFE6FFDACFE6FFE1CFD9FFE2CFD5
:1027B000DAFFE652F20E0401FB17ABAC03D0FB913B
:1027C000ABB0FB81ABB4FB85ABB2FB87AE50DF6E29
:1027D000DF50E552E552E5CFDAFFE7CFD9FF12002F
:1027E0000D0EC16E600ED3129B8C010E816E949003
:1027F0008290949C948E92968996929489849290D9
:1028000089909292899296908D80959E959C959AAA
:0A2810009598959695949592120004
:06281A00D9CFE6FFDACF82
:10282000E6FFE1CFD9FFE2CFDAFFE652E652FC0E37
:10283000DBCFDEFFDBCFDDFF010EDB50D76EDF50DD
:10284000D66EE552E552E552E5CFDAFFE7CFD9FF84
:02285000120074
:0E285200D9CFE6FFDACFE6FFE1CFD9FFE2CF24
:10286000DAFFFD0EDB507F0BD56ED76AD66AF29485
:10287000FD0EDBAE02D0F28A01D0F29AD58EE5527F
:0A288000E5CFDAFFE7CFD9FF120021
:06288A00FE0EE3CFE9FFA2
:10289000FF0EE3CFEAFFE9CFF3FFEACFF4FFFB0E31
:1028A000E35003E1FC0EE35009E0FB0EE30602E215
:0E28B000FC0EE306FD0EE350EE6EF1D71200B3
:0228BE00D9CF70
:1028C000E6FFDACFE6FFE1CFD9FFE2CFDAFFACAC2B
:1028D00004D0AC900401FBB3AC80FD0EDB50AD6EB8
:0C28E000E552E5CFDAFFE7CFD9FF120088
:0428EC00FF0EE350A8
:1028F0000E6E480E01D04C0EE76EE72EFED7E76A4B
:0C290000E72EFED70E2EF7D700001200C5
:04290C00000EF36E58
:1029100000EE00F0060E01D81200EA6002D0EE6A66
:0C292000FCD7F350E9601200EE6AFCD70F
:04292C0010EE80F039
:1029300020EE80F0F86A0A9CB4EC12F0BAEC14F0C5
:0829400048EC13F0FBD7120074
:08294800FF0EE350E84E1200FF
:0E295000000000D000D000D0E82EFAD7120010
:02295E00202037
:0F296000202020202020202020202020202000A8
:01296F004324
:042970004F4D0A00BD
:0229740012004F
:0A2976000000000000000000000057
:102980000000000000000000000000000000000047
:10299000000000000000000000FF00000000000038
:1029A0000000000000000000000000000000000027
:0D29B000000000000000000000000000001A
:0329BD0000000017
:1029C0000000000000000000000000000000000007
:1029D00000000000000000000000000000000000F7
:1029E00000000000000000000000000000000000E7
:1029F00000000000000000000000000000000000D7
:102A000000000000000000000000000000000000C6
:102A100000000000000000000000000000000000B6
:102A200000000000000000000000000000000000A6
:102A30000000000000000000000000000000000096
:032A400000000093
:0D2A43000000000000000000000000000086
:102A50000000000000000000000000000000000076
:102A60000000000000000000000000000000000066
:102A70000000000000000000000000000000000056
:102A80000000000000000000000000000000000046
:102A90000000000000000000000000000000000036
:102AA0000000000000000000000000000000000026
:102AB0000000000000000000000000000000000016
:102AC0000000000000000000000000000000000006
:102AD00000000000000000000000000000000000F6
:102AE00000000000000000000000000000000000E6
:102AF00000000000000000000000000000000000D6
:102B000000000000000000000000000000000000C5
:102B100000000000000000000000000000000000B5
:082B20000000000000000000AD
:082B28000000000000000000A5
:102B30000000000000000000000000000000000095
:102B40000000000000000000000000000000000085
:102B50000000000000000000000000000000000075
:102B60000000000000000000000000000000000065
:102B70000000000000000000000000000000000055
:102B80000000000000000000000000000000000045
:102B90000000000000000000000000000000000035
:102BA0000000000000000000000000000000000025
:0C2BB00000000000000000000000000019
:042BBC000000000015
:102BC0000000000000000000000000000000000005
:102BD00000000000000000000000000000000000F5
:102BE00000000000000000000000000000000000E5
:102BF00000000000000000000000000000000000D5
:102C000000000000000000000000000000000000C4
:102C1000000000000000000000000000000000FFB5
:032C20000000FFB2
:0D2C230000000000000000000000000000A4
:022C3000410061
:0E2C3200000000000000000000000000000094
:102C40000000000000000000000000000000000084
:042C50000000000080
:022C5400FFFF80
:0A2C56009C2797278C2782277E27F2
:082C60007A2774276F2764270F
:020000040030CA
:0100010008F6
:010002001BE2
:0100030012EA
:010005008179
:010006008178
:0100080001F6
:010009008076
:01000A000FE6
:01000B00E014
:01000C000FE4
:01000D0040B2
:00000001FF
