:020000040000FA
:060000006FEF14F0120086
:08000800F2A402D0D5EF11F0C3
:0A0010009EAA02D07CEF0EF0120051
:06002A000A00082C000092
:10003000E503000012000000062C0000FE01000095
:1000400002000000E42B0000CD01000022000000AF
:10005000E22B0000FC01000002000000D52B000094
:10006000EF0100000D0000006E2B00009404000062
:1000700067000000DA2A000000040000940000007D
:10008000F529000000030000E50000006F290000D2
:100090004701000086000000282900000001000040
:0400A0004700000015
:0C00A400080EE66EC2EC0DF0E552E66AB4
:1000B00039EC05F0E55213EC05F028EC05F00101F0
:1000C000006B1200E66A39EC05F0E55213EC05F01E
:1000D00028EC05F00101006B1200D9CFE6FFE1CF5B
:1000E000D9FF0C0EE126DF68D950020FE66E000E34
:1000F000DA20E66ED950030FE66E000EDA20E66EC7
:10010000E1EC10F0E552E552E552E552000901E15B
:100110005BD2020EDBCFE6FF030EDBCFE6FF5EDA3B
:10012000E552E552DF6EFF0EDF5C01E14DD20101C9
:100130000051070A01E128D2040A01E1D3D1010AE2
:1001400001E1F2D0030A6FE0010A01E03CD2050EA2
:10015000DB6A080EDF5C0BE1E66A39EC05F0E5527C
:1001600013EC05F028EC05F00101006B5BD00A0EE2
:10017000DF5C19E101012251000814E2250EE66E50
:10018000010EE66E88EC06F0E552E552010EE66ED1
:1001900039EC05F0E55213EC05F028EC05F001010F
:1001A000010E006F3FD0110EDF5C1DE1010E010159
:1001B000225D18E201014651EA6A250FE96E010E3F
:1001C000EA22020EEF6E040EE66E7FEC05F0E552B9
:1001D00001012251222BEA6A010FE96E010EEA2287
:1001E000DFCFEFFF1FD0120EDF5C1CE1010E01011B
:1001F000225D18E201014651EA6A250FE96E010EFF
:10020000EA22030EEF6E050EE66E7FEC05F0E55276
:1002100001012251222BEA6A010FE96E010EEA2246
:10022000DFCFEFFFD1D1080EDF5C19E101012251D0
:100230000AE1E66A39EC05F0E552F5DB28EC05F059
:100240000101006B0BD0010EE66E39EC05F0E552B2
:10025000EADB28EC05F00101010E006F64D00A0E04
:10026000DF5C2FE1010122052BE101012205EA6A91
:10027000010FE96E010EEA22EF50320A0DE0030A87
:1002800001E014D0070EE66EF4DBE552CCDBE0DBD8
:100290000101020E006F98D1080EE66EEADBE5520E
:1002A000C2DBD6DB0101030E006F8ED1010EE66EBC
:1002B000E0DBE552B8DBCCDB0101010E006F84D13D
:1002C00032D0310EDF5C10E1020EE66E7FEC05F0FD
:1002D000E55201012251222BEA6A010FE96E010E5B
:1002E000EA22DFCFEFFF1FD0320EDF5C10E1030EFA
:1002F000E66E7FEC05F0E55201012251222BEA6AFD
:10030000010FE96E010EEA22DFCFEFFF0CD02A0EBB
:10031000DF5C09E1060EE66EF2DBE55284DB98DB7A
:100320000101070E006F50D1080EDF5C16E10101DC
:100330002251000808E2DFCFE6FFD4EC0DF0E552D1
:100340000101220709D0010EE66E93DBE5526BDB5B
:100350007FDB0101010E006FC4D0130EDF5C18E1DA
:10036000000E0101225D13E329DB46C1E6FF250EE5
:10037000E66E010EE66E37EC07F0E552E552E55207
:10038000E66A77DBE5524FDB63DB0101006BA9D046
:10039000030EDB500101235D71E1280EF36E020EA6
:1003A000DBCFF4FFF350F45C38E2010122070101D6
:1003B0002251EA6A010FE96E010EEA22DFCFEFFF58
:1003C000080EE66ED4EC0DF0E55201012251EA6A06
:1003D000010FE96E010EEA22EF50E66ED4EC0DF04B
:1003E000E552140EF36E060EF3CFDBFF070EDB6A49
:1003F000060EDBCF0BF0DB06070EDBCF0CF001E2C5
:10040000DB060B500C1006E0040EE66E4FEC14F009
:10041000E552EED70101222B30D001012251EA6AC8
:10042000010FE96E010EEA22DFCFEFFF0101225139
:10043000EA6A010FE96E010EEA22EF50E66ED4EC93
:100440000DF0E552140EF36E080EF3CFDBFF090E2C
:10045000DB6A080EDBCF0BF0DB06090EDBCF0CF0FE
:1004600001E2DB060B500C1006E0040EE66E4FECCA
:1004700014F0E552EED70101222B30D001012251B8
:10048000EA6A010FE96E010EEA22DFCFEFFF0101F8
:100490002251EA6A010FE96E010EEA22EF50E66E80
:1004A000D4EC0DF0E552140EF36E0A0EF3CFDBFF21
:1004B0000B0EDB6A0A0EDBCF0BF0DB060B0EDBCF7D
:1004C0000CF001E2DB060B500C1006E0040EE66EA9
:1004D0004FEC14F0E552EED70101222B030EDBCFD7
:1004E00023F172D0080EDF5C18E1010122510008EF
:1004F0000AE2DFCFE6FFD4EC0DF0E552010122075E
:100500000101460709D0010EE66EB3DAE5528BDA37
:100510009FDA0101010E006F36D0130EDF5C18E187
:10052000000E0101225D13E303DA46C1E6FF250E4A
:10053000E66E010EE66EA9EC08F0E552E552E552D2
:10054000E66A97DAE5526FDA83DA0101006B1BD0B5
:10055000020E0101225D17E201012251EA6A010F38
:10056000E96E010EEA22DFCFEFFF01012251EA6AB4
:10057000010FE96E010EEA22EF50E66ED4EC0DF0A9
:10058000E5520101222B20D0080EDF5C0FE1DFCF06
:10059000E6FFD4EC0DF0E552010EE66E6ADAE552A4
:1005A00042DA56DA0101010E006F0CD0130EDF5C47
:1005B00009E10DEC08F0E66A5CDAE55234DA48DA73
:1005C0000101006B01D000D00C0EE15C02E2E16A97
:1005D000E552E16EE552E7CFD9FF1200D9CFE6FF31
:1005E000E1CFD9FFE652DF6801010051070A01E1BE
:1005F0007FD1040A01E114D1010A01E177D0030A95
:1006000039E0010A01E08CD1010E0101225D19E2FD
:10061000FE0EDB50070804E0FE0EDB5003080FE17E
:10062000FE0EDB50050DF3CFF6FFF4CFF7FFC60E3D
:10063000F626260EF7220800F550DF6E01D0DF689F
:1006400018D0FE0EDB500B0804E0FE0EDB500F0846
:100650000FE1FE0EDB50050DF3CFF6FFF4CFF7FFF1
:10066000C60EF626260EF7220800F550DF6E01D0E2
:10067000DF6857D1010E0101225D1FE2FE0EDB5043
:100680000BE0FE0EDB0408E0FE0EDB500C0804E07D
:10069000FE0EDB500B080FE1FE0EDB50050DF3CF15
:1006A000F6FFF4CFF7FFC60EF626260EF722080057
:1006B000F550DF6E01D0DF6818D0FE0EDB500B085E
:1006C00004E0FE0EDB500F080FE1FE0EDB50050DBF
:1006D000F3CFF6FFF4CFF7FFC60EF626260EF7226D
:1006E0000800F550DF6E01D0DF681BD1010E01015B
:1006F000225D26E2FE0EDB50030810E0FE0EDB500A
:1007000007080CE0FE0EDB500C0808E0FE0EDB5084
:100710000E0804E0FE0EDB500F0803E1DF6801D194
:100720000ED0FE0EDB50050DF3CFF6FFF4CFF7FF32
:10073000C60EF626260EF7220800F550DF6E6FD0A3
:10074000180E0101225D53E2FE0EDB5003080CE09F
:10075000FE0EDB50070808E0FE0EDB500C0804E03C
:10076000FE0EDB500F0803E1DF68DBD00ED0FE0E7B
:10077000DB50050DF3CFF6FFF4CFF7FFC60EF626DC
:10078000260EF7220800F550DF6EFE0EDB50010149
:10079000235D14E1280EF36EFD0EDBCFF4FFF35062
:1007A000F45C09E20101242B050E0101245D02E144
:1007B0000101246B02D00101246B02D00101246BE2
:1007C000FE0EDB50050DF3CF0BF0F4CF0CF0C60E90
:1007D0000B26260E0C22010124510F010B24F66E6C
:1007E000000E0C20F76E0800F550DF6E18D0FE0EDC
:1007F000DB500B0804E0FE0EDB500F080FE1FE0E8D
:10080000DB50050DF3CFF6FFF4CFF7FFC60EF6264B
:10081000260EF7220800F550DF6E01D0DF6881D088
:10082000010E0101225D26E2FE0EDB50030810E0FE
:10083000FE0EDB5007080CE0FE0EDB500C0808E053
:10084000FE0EDB500E0804E0FE0EDB500F0803E145
:10085000DF6867D00ED0FE0EDB50050DF3CFF6FF3C
:10086000F4CFF7FFC60EF626260EF7220800F55045
:10087000DF6E3DD0020E0101225D21E2FE0EDB5053
:1008800003080CE0FE0EDB50070808E0FE0EDB500C
:100890000C0804E0FE0EDB500F0802E1DF680ED00A
:1008A000FE0EDB50050DF3CFF6FFF4CFF7FFC60EBB
:1008B000F626260EF7220800F550DF6E18D0FE0E41
:1008C000DB500B0804E0FE0EDB500E080FE1FE0EBD
:1008D000DB50050DF3CFF6FFF4CFF7FFC60EF6267B
:1008E000260EF7220800F550DF6E01D0DF6819D020
:1008F000FE0EDB50050DF3CFF6FFF4CFF7FFC60E6B
:10090000F626260EF7220800F550DF6EFE0EDB50AD
:100910000B0805E0FE0EDB500E0801E0DF6801D099
:1009200000D0DF5000D0E552E552E7CFD9FF1200EA
:10093000D9CFE6FFE1CFD9FF020EE126010EDB6A37
:100940000101220511E1300E0101015DE66E010198
:100950004651EA6A250FE96E010EEA22E552E75098
:10096000EF6E0101462B1BD0020E0101225D17E143
:10097000300E0101025D0B6E300E0101015D0A0DAA
:10098000F3500B24E66E01014651EA6A250FE96E29
:10099000010EEA22E552E750EF6E0101462B010EEF
:1009A000DB5000D00B6E020EE15C02E2E16AE55220
:1009B000E16E0B50E552E7CFD9FF1200D9CFE6FF29
:1009C000E1CFD9FFE652DF6A01012251DF5C16E276
:1009D000DF50EA6A010FE96E010EEA22EF50E66E7F
:1009E00001014651EA6A250FE96E010EEA22E5523D
:1009F000E750EF6E0101462BDF2AE6D70101465191
:100A0000EA6A250FE96E010EEA22EF6A0101462B20
:100A1000200E0101465D02E30101466BE552E552FD
:100A2000E7CFD9FF1200200EE66EE66AE66A010EF5
:100A3000E66E010EE66E1EEC14F00B6E050EE15E26
:100A40000B500101226B0101246B0101236912008B
:100A5000200EE66EE66AE66A250EE66E010EE66E8A
:100A60001EEC14F00B6E050EE15E0B500101466B9F
:100A70001200D9CFE6FFE1CFD9FF030EE126FE0E2B
:100A8000EA6ADB34FE0BEA36E96EE50EE926030E70
:100A9000EA22010EEECFDBFF020EEDCFDBFFCDEC45
:100AA0000DF0DF6ADF50E76E010EDBCFF6FF020EBE
:100AB000DBCFF7FFE750F626000EF7220800F550CF
:100AC00014E0DF50E76E010EDBCFF6FF020EDBCF46
:100AD000F7FFE750F626000EF7220800F550E66E05
:100AE000D4EC0DF0E552DF2ADDD7030EE15C02E223
:100AF000E16AE552E16EE552E7CFD9FF1200D9CFA6
:100B0000E6FFE1CFD9FF030EE126FE0EEA6ADB34F1
:100B1000FE0BEA36E96EE50EE926030EEA22010E27
:100B2000EECFDBFF020EEDCFDBFFDF6ADF50E76EBB
:100B3000010EDBCFF6FF020EDBCFF7FFE750F62604
:100B4000000EF7220800F55014E0DF50E76E010EAA
:100B5000DBCFF6FF020EDBCFF7FFE750F626000EE5
:100B6000F7220800F550E66ED4EC0DF0E552DF2ACE
:100B7000DDD7030EE15C02E2E16AE552E16EE55287
:060B8000E7CFD9FF1200CF
:0A0B8600D9CFE6FFE1CFD9FFE65218
:100B9000DF6ADF500B6E0C6AD8900C5004E6060E2C
:100BA0000B5C000E0C581EE2DF50250DF3CFE9FF61
:100BB000F4CFEAFF000EE926030EEA22240EE9260E
:100BC000000EEA22010EEF6EDF50250DF3CFE9FF94
:100BD000F4CFEAFF000EE926030EEA22EE52EF6A96
:100BE000DF2AD7D70301DF69E069E169E269FE0E18
:100BF000E66E120EE66EDD0EE66ECC0EE66EBB0EF7
:100C0000E66EAA0EE66E87EC09F00B6E060EE15E4C
:100C10000B50E552E552E7CFD9FF1200D9CFE6FFDE
:100C2000E1CFD9FFE652DF6ADF500B6E0C6AD89035
:100C30000C5004E6060E0B5C000E0C5851E2DF501F
:100C4000250DF3CFE9FFF4CFEAFF000EE926030EEE
:100C5000EA22240EE926000EEA22EF503FE1010EBF
:100C6000E66EDF50250DF3CFE9FFF4CFEAFF000E6B
:100C7000E926030EEA22EE52EF50E66EDF50250D14
:100C8000F3CF0BF0F4CF0CF0000E0B26030E0C226A
:100C90000BC0E6FF0CC0E6FF35EC0BF0E552E55269
:100CA000E552E552DF50250DF3CFE9FFF4CFEAFF1F
:100CB000000EE926030EEA22240EE926000EEA229F
:100CC000010EEF6EDF50250DF3CFE9FFF4CFEAFF01
:100CD000000EE926030EEA22EE52EF6ADF2AA4D7BD
:100CE0000301E40510E10301DF07000EE05BE15BB7
:100CF000E25B0301DF51E011E111E21104E162EC7A
:100D000000F00301E46BE552E552E7CFD9FF120092
:100D1000D9CFE6FFE1CFD9FF020EE126DF6ADF502F
:100D20000B6E0C6AD8900C5004E6060E0B5C000E9D
:100D30000C5813E2DF50250DF3CFE9FFF4CFEAFFA3
:100D4000000EE926030EEA22240EE926000EEA220E
:100D5000EF0401E102D0DF2AE2D7DF50250DF3CF07
:100D6000E9FFF4CFEAFF000EE926030EEA22EE5275
:100D7000EF2ADF50250DF3CFE9FFF4CFEAFF000E95
:100D8000E926030EEA22010EEF6EDF50250DF3CFA8
:100D9000E9FFF4CFEAFF000EE926030EEA22EE5245
:100DA000EF2ADF50250DF3CFE9FFF4CFEAFF000E65
:100DB000E926030EEA22020EE926000EEA22700E50
:100DC000EF6EDF50250DF3CFE9FFF4CFEAFF000E01
:100DD000E926030EEA22EE52EF2AFD0EDBCFE9FFF1
:100DE000FE0EDBCFEAFFEF50E66EDF50250DF3CFAE
:100DF000E9FFF4CFEAFF000EE926030EEA22030E14
:100E0000E926000EEA22E552E750EF6E0301E36F98
:100E1000DF50250DF3CFE9FFF4CFEAFF000EE926FE
:100E2000030EEA22EE52EF2ADF50250DF3CFE9FF41
:100E3000F4CFEAFF000EE926030EEA22240EE9268B
:100E4000000EEA22EF6A0301E80EDF6F030EE06F87
:100E5000E16BE26B0301010EE46F020EE15C02E262
:100E6000E16AE552E16EE552E7CFD9FF1200D9CF32
:100E7000E6FFE1CFD9FF020EE126DF6ADF500B6EFD
:100E80000C6AD8900C5004E6060E0B5C000E0C5851
:100E900013E2DF50250DF3CFE9FFF4CFEAFF000E98
:100EA000E926030EEA22240EE926000EEA22EF04C8
:100EB00001E102D0DF2AE2D7DF50250DF3CFE9FFB1
:100EC000F4CFEAFF000EE926030EEA22EE52EF2AE3
:100ED000DF50250DF3CFE9FFF4CFEAFF000EE9263E
:100EE000030EEA22010EEF6EDF50250DF3CFE9FF6E
:100EF000F4CFEAFF000EE926030EEA22EE52EF2AB3
:100F0000DF50250DF3CFE9FFF4CFEAFF000EE9260D
:100F1000030EEA22020EE926000EEA22710EEF6E9F
:100F2000DF50250DF3CFE9FFF4CFEAFF000EE926ED
:100F3000030EEA22EE52EF2ADF50250DF3CFE9FF30
:100F4000F4CFEAFF000EE926030EEA22030EE9269B
:100F5000000EEA22E3C3EFFFDE52010EDD6E010E4A
:100F6000DBCF0BF0FC0EDB50D8800B542DE3FD0ED5
:100F7000DBCFE9FFFE0EDBCFEAFFEF50E66EDF507E
:100F8000250DF3CFE9FFF4CFEAFF000EE926030EAB
:100F9000EA22030EE926000EEA22E9CF0BF0EACF9F
:100FA0000CF0010EDB500F010B24E96E000E0C203B
:100FB000EA6EE552E750EF6E010EDB2AFD0EDB2AEA
:100FC000FE0E01E3DB2ACBD7DF50250DF3CFE9FF7F
:100FD000F4CFEAFF000EE926030EEA22EE52010EDC
:100FE000DB50EF26DF50250DF3CFE9FFF4CFEAFF0A
:100FF000000EE926030EEA22240EE926000EEA225C
:10100000EF6A0301E46B020EE15C02E2E16AE55281
:10101000E16EE552E7CFD9FF1200D9CFE6FFE1CF6D
:10102000D9FF020EE126DF6ADF500B6E0C6AD89002
:101030000C5004E6060E0B5C000E0C5813E2DF5059
:10104000250DF3CFE9FFF4CFEAFF000EE926030EEA
:10105000EA22240EE926000EEA22EF0401E102D082
:10106000DF2AE2D7DF50250DF3CFE9FFF4CFEAFF07
:10107000000EE926030EEA22EE52EF2ADF50250D7C
:10108000F3CFE9FFF4CFEAFF000EE926030EEA22D0
:10109000010EEF6EDF50250DF3CFE9FFF4CFEAFF2D
:1010A000000EE926030EEA22EE52EF2ADF50250D4C
:1010B000F3CFE9FFF4CFEAFF000EE926030EEA22A0
:1010C000020EE926000EEA22730EEF6EDF50250DA8
:1010D000F3CFE9FFF4CFEAFF000EE926030EEA2280
:1010E000EE52EF2ADF50250DF3CFE9FFF4CFEAFFF0
:1010F000000EE926030EEA22030EE926000EEA227C
:10110000E3C3EFFFDF50250DF3CFE9FFF4CFEAFF94
:10111000000EE926030EEA22EE52EF2ADF50250DDB
:10112000F3CFE9FFF4CFEAFF000EE926030EEA222F
:10113000240EE926000EEA22EF6A0301E46B020E98
:10114000E15C02E2E16AE552E16EE552E7CFD9FFE8
:101150001200D9CFE6FFE1CFD9FF020EE126DF6A08
:10116000DF500B6E0C6AD8900C5004E6060E0B5C38
:10117000000E0C5813E2DF50250DF3CFE9FFF4CF3A
:10118000EAFF000EE926030EEA22240EE926000EED
:10119000EA22EF0401E102D0DF2AE2D7DF50250D79
:1011A000F3CFE9FFF4CFEAFF000EE926030EEA22AF
:1011B000EE52EF2ADF50250DF3CFE9FFF4CFEAFF1F
:1011C000000EE926030EEA22010EEF6EDF50250D18
:1011D000F3CFE9FFF4CFEAFF000EE926030EEA227F
:1011E000EE52EF2ADF50250DF3CFE9FFF4CFEAFFEF
:1011F000000EE926030EEA22020EE926000EEA227C
:10120000720EEF6EDF50250DF3CFE9FFF4CFEAFF4A
:10121000000EE926030EEA22EE52EF2ADF50250DDA
:10122000F3CFE9FFF4CFEAFF000EE926030EEA222E
:10123000030EE926000EEA22E3C3EFFFDE52010EA1
:10124000DD6E010EDBCF0BF0FC0EDB50D8800B54B3
:101250002DE3FD0EDBCFE9FFFE0EDBCFEAFFEF5003
:10126000E66EDF50250DF3CFE9FFF4CFEAFF000E65
:10127000E926030EEA22030EE926000EEA22E9CF50
:101280000BF0EACF0CF0010EDB500F010B24E96EDE
:10129000000E0C20EA6EE552E750EF6E010EDB2ADD
:1012A000FD0EDB2AFE0E01E3DB2ACBD7DF50250D36
:1012B000F3CFE9FFF4CFEAFF000EE926030EEA229E
:1012C000EE52010EDB50EF26DF50250DF3CFE9FF84
:1012D000F4CFEAFF000EE926030EEA22240EE926E7
:1012E000000EEA22EF6A0301E46B020EE15C02E207
:1012F000E16AE552E16EE552E7CFD9FF1200D9CF9E
:0E130000E6FFE1CFD9FFE552E7CFD9FF12009B
:02130E00D9CF35
:10131000E6FFE1CFD9FF27EC0FF0FE0EDBCF01F4A3
:10132000FD0EDBCF02F4FC0EDBCF03F4FB0EDBCFB4
:1013300004F4F90EDBCF89F4FA0EDBCF8AF404D87B
:10134000E552E7CFD9FF120027EC0FF00401856BBF
:101350000401866B0401010E006F0401876B040118
:10136000050E886F8FC48BF490C48CF491C48DF4F7
:1013700092C48EF400C493F41200D9CFE6FFE1CFFB
:10138000D9FF060EE126DF6A5BEC12F004C08FF491
:1013900005C090F406C091F407C092F48B0EE96E7C
:1013A000040EEA6EEE5004018F190CE1EE500401B8
:1013B000901908E1EE500401911904E1EE50040186
:1013C000921900E114E0040100510401935D07E16A
:1013D000040188070401885102E1B6DFECD08FC414
:1013E0008BF490C48CF491C48DF492C48EF40401F7
:1013F0000051030A01E1D8D0010A30E0060A14E0E6
:10140000050A01E0D4D0D9EC0FF0000903E0F6ECB6
:101410000FF0DF6E04010151DF5C05E10401856B13
:101420000401040E006FC5D0D9EC0FF0000901E1F2
:10143000C2D0F6EC0FF0DF6EDF0402E085DFBBD038
:1014400004018551852BEA6A050FE96E040EEA2234
:10145000DFCFEFFF0401020E006FABD0D9EC0FF02D
:10146000000901E1A8D0F6EC0FF0DF6E0401025193
:10147000DF5C01E07DD0020EDB6A030EDB68D95031
:10148000030FE66E000EDA20E66E9FD8E552E552B5
:10149000E76E020EE7CFDBFF020EDB50020A59E0D7
:1014A000030A05E0010A01E05ED04EDF84D00401AA
:1014B00089518A114BE0D950040FE66E000EDA20F4
:1014C000E66E870EE66E040EE66E070EE66E040EFE
:1014D000E66E05D08AC4FAFF04018951F96EFADF7D
:1014E0000B6E060EE15E0B500401866F0401010EC7
:1014F000456F0401862B87C446F40401862BDE5217
:10150000020EDD6E04018651F36E010EDBCFF4FF97
:10151000F350F45C1AE2040EDBCFE9FF050EDBCFDB
:10152000EAFFEF50E66E010EDB50EA6A450FE96E06
:10153000040EEA22E552E750EF6E040EDB2A050E98
:1015400001E3DB2A010EDB2ADDD702D0FDDE33D03A
:101550000BD00401010E456F0401862B87C446F4AD
:101560000401862B01D000D00401030E006F1BD0B4
:1015700004018551852BEA6A050FE96E040EEA2203
:10158000DFCFEFFF400E0401855D0DE30401010E86
:10159000456F0401862B0401900E466F0401862BD3
:1015A0000401030E006F05D0C5D8CEDE02D0CCDE1C
:1015B00000D000C493F4060EE15C02E2E16AE55259
:1015C000E16EE552E7CFD9FF1200D9CFE6FFE1CFB8
:1015D000D9FF020EE12604018505EA6A050FE96ECE
:1015E000040EEA22EFCFDFFF010EDB6A04010505DE
:1015F00006E0FF0E0401055D02E0000E2AD00401A2
:101600008505E66E050EE66E040EE66E06D9E55219
:10161000E552E552E76E010EE7CFDBFF010EDB502E
:10162000DF5C0DE10401850704018551EA6A050FBD
:10163000E96E040EEA22EF6A010E0BD00AD0FD0E0D
:10164000DBCFE9FFFE0EDBCFEAFF910EEF6E000E5F
:1016500000D00B6E020EE15C02E2E16AE552E16E3F
:101660000B50E552E7CFD9FF1200D9CFE6FFE1CF0B
:10167000D9FF020EE126DF6A010EDB6AFC0EDBCF2A
:10168000E6FFFD0EDBCFE6FFFE0EDBCFE6FFC5D8A3
:10169000E552E552E552DF6EFB0EDB0406E101C4C4
:1016A000E6FF40EC0FF0E55205D003C4E6FF40EC46
:1016B0000FF0E552010EDB6AFC0EDB50F36E010EFB
:1016C000DBCFF4FFF350F45C15E2010EDB50E76E64
:1016D000FD0EDBCFE9FFFE0EDBCFEAFFE750E92688
:1016E000000EEA22EF50E66E40EC0FF0E552010EDC
:1016F000DB2AE2D7DFCFE6FF40EC0FF0E552FB0E2E
:10170000DB0406E102C4E6FF40EC0FF0E55205D031
:1017100004C4E6FF40EC0FF0E5525FEC0FF004006C
:10172000020EE15C02E2E16AE552E16EE552E7CFCA
:10173000D9FF1200D9CFE6FFE1CFD9FF020EE12693
:10174000DF6A010EDB6A86C4E6FF450EE66E040E14
:10175000E66E63D8E552E552E552DF6E03C4E6FF5C
:1017600040EC0FF0E552010EDB6A04018651F36E86
:10177000010EDBCFF4FFF350F45C0FE2010EDB50FF
:10178000EA6A450FE96E040EEA22EF50E66E40EC7D
:101790000FF0E552010EDB2AE8D7DFCFE6FF40EC81
:1017A0000FF0E55204C4E6FF40EC0FF0E5525FECA9
:1017B0000FF00400020EE15C02E2E16AE552E16E24
:1017C000E552E7CFD9FF1200D9CFE6FFE1CFD9FF2D
:1017D000FD0EDBCFF6FFFE0EDBCFF7FF0800F55066
:1017E00016E0FD0EDBCFF6FFFE0EDBCFF7FF0800A5
:1017F000F550E66E40EC0FF0E552FD0EDBCFF6FF44
:10180000DB2AFE0EDBCFF7FF01E3DB2AE1D75FEC3B
:101810000FF0E552E7CFD9FF1200D9CFE6FFE1CFB5
:10182000D9FF030EE126DF6A010EDB6AFC0EDB50F6
:10183000F36E010EDBCFF4FFF350F45C12E2010E05
:10184000DB50E76EFD0EDBCFE9FFFE0EDBCFEAFFDC
:10185000E750E926000EEA22EF50DF1A010EDB2ADC
:10186000E5D7DF5000D00B6E030EE15C02E2E16AC7
:0E187000E552E16E0B50E552E7CFD9FF1200B2
:02187E00D9CFC0
:10188000E6FFE1CFD9FF030EE126300EF36E010E25
:10189000F3CFDBFF750EF36E020EF3CFDBFF010E0D
:1018A000DF6EDF0431E1958E958C958A958895924F
:1018B00095949596000000008C928C8400000000A6
:1018C0008C86000000008350800B01E0010EDF6E6B
:1018D0008C968C86000000008C96010EDB06020EB2
:1018E00001E2DB06D950010FE96EDACFEAFFEE50D4
:1018F000ED1009E1959E959C959A959895929594F1
:101900009596FF0E0AD0CDD7959E959C959A959861
:10191000959295949596000E00D00B6E030EE15CA7
:1019200002E2E16AE552E16E0B50E552E7CFD9FFE2
:101930001200D9CFE6FFE1CFD9FF8C928C94000042
:10194000FE0EDB50F00B0B6E0F0E8C140B108C6E1A
:1019500000008C86000000008C96E552E7CFD9FF8E
:101960001200D9CFE6FFE1CFD9FF89DF8C928C94AA
:101970000000FE0EDB50F00B0B6E0F0E8C140B10E4
:101980008C6E00008C86000000008C96FE0EDB380A
:10199000F00BF00B0B6E0F0E8C140B108C6E000006
:1019A0008C86000000008C96E552E7CFD9FF12002C
:1019B000D9CFE6FFE1CFD9FF62DF8C828C940000A3
:1019C000FE0EDB50F00B0B6E0F0E8C140B108C6E9A
:1019D00000008C86000000008C96FE0EDB38F00BB9
:1019E000F00B0B6E0F0E8C140B108C6E00008C869F
:1019F000000000008C96E552E7CFD9FF1200D9CF46
:101A0000E6FFE1CFD9FF0B0EE126959E959C959AB6
:101A10009598959295949596280EF36E010EF3CFB6
:101A2000DBFF020EDB6A010EDBCF0BF0DB06020EE2
:101A3000DBCF0CF001E2DB060B500C1006E0040ECD
:101A4000E66E4FEC14F0E552EED7300EE66E71DF25
:101A5000E5520A0EF36E030EF3CFDBFF040EDB6AD2
:101A6000030EDBCF0BF0DB06040EDBCF0CF001E244
:101A7000DB060B500C1006E0040EE66E4FEC14F083
:101A8000E552EED7300EE66E54DFE5520A0EF36EE5
:101A9000050EF3CFDBFF060EDB6A050EDBCF0BF086
:101AA000DB06060EDBCF0CF001E2DB060B500C1060
:101AB00006E0040EE66E4FEC14F0E552EED7300E61
:101AC000E66E37DFE5520A0EF36E070EF3CFDBFF4B
:101AD000080EDB6A070EDBCF0BF0DB06080EDBCF50
:101AE0000CF001E2DB060B500C1006E0040EE66E73
:101AF0004FEC14F0E552EED7200EE66E1ADFE552F9
:101B00000A0EF36E090EF3CFDBFF0A0EDB6A090E35
:101B1000DBCF0BF0DB060A0EDBCF0CF001E2DB06BD
:101B20000B500C1006E0040EE66E4FEC14F0E5527C
:101B3000EED7280EE66E15DFE552A1DEDF6EDF5030
:101B400004E10401010EFC6F03D00401FC6B10D012
:101B50000F0EE66E06DFE552010EE66E02DFE5527D
:101B6000040EE66EFEDEE552060EE66EFADEE55285
:101B70000B0EE15C02E2E16AE552E16EE552E7CF6D
:101B8000D9FF1200D9CFE6FFE1CFD9FFFE0EDBCFA0
:101B9000CEF1E552E7CFD9FF1200010EE66EE1DE8D
:101BA000E5520101CD6B1200D9CFE6FFE1CFD9FF9D
:101BB000E652100E0101CD5D05E1C00EE66ED1DEEC
:101BC000E5520AD0200E0101CD5D06E30101CD6B87
:101BD000020EE66EC6DEE552FE0EDB500101CE5D62
:101BE00025E10101CD5101E128D0100E0101CD5DAB
:101BF0000EE1800EE66EB5DEE552DF6A100EDF5CA8
:101C000006E2140EE66EADDEE552DF2AF7D7100EBF
:101C1000E66EA7DEE552200EE66ECADEE552100E35
:101C2000E66E9FDEE5520101CD0707D0FE0EDBCF49
:101C3000E6FFBEDEE5520101CD2BE552E552E7CFCE
:101C4000D9FF1200DCDE010EE66E8BDEE5520101EB
:101C5000CD6B1200D9CFE6FFE1CFD9FFE652010EDE
:101C6000E66E7FDEE552DF6A100EDF5C1CE2FD0EE1
:101C7000DBCFE9FFFE0EDBCFEAFFEF50E66EDF5071
:101C8000EA6ACF0FE96E010EEA22E552E750EF6EE5
:101C9000FD0EDBCFE9FFDB2AFE0EDBCFEAFF01E31F
:101CA000DB2ADF2AE1D7C00EE66E5BDEE552DF6A93
:101CB000100EDF5C1CE2FD0EDBCFE9FFFE0EDBCF7A
:101CC000EAFFEF50E66EDF50EA6ACF0FE96E010ED1
:101CD000EA22E552E750EF6EFD0EDBCFE9FFDB2A8B
:101CE000FE0EDBCFEAFF01E3DB2ADF2AE1D7E55274
:081CF000E552E7CFD9FF120015
:081CF800DACFE4FFE2CFDAFFCE
:101D0000E9CFE4FFEACFE4FFF6CFE4FFF7CFE4FF4B
:101D1000F5CFE4FFF3CFE4FFF4CFE4FFFACFE4FF25
:101D200000EE00F00B0EE80403E3EECFE4FFFBD778
:101D300000EE0BF0030EE80403E3EECFE4FFFBD765
:101D4000E652D9CFE6FFE1CFD9FFE652AAEC13F075
:101D5000DF6E01018A518A2BEA6A8D0FE96E010E4E
:101D6000EA22DFCFEFFF400E01018A5D02E30101AD
:101D70008A6B01018C2B9E9AE552E552E7CFD9FF81
:101D8000E55200EE0DF0030EE80403E3E5CFEDFFAE
:101D9000FBD700EE0AF00B0EE80403E3E5CFEDFFFE
:101DA000FBD7E5CFFAFFE5CFF4FFE5CFF3FFE5CFB3
:101DB000F5FFE5CFF7FFE5CFF6FFE5CFEAFFE5CF8B
:101DC000E9FFE5CFDAFF1100DACFE4FFE2CFDAFF77
:101DD000E9CFE4FFEACFE4FFE652D9CFE6FFE1CF57
:101DE000D9FFE6520101495105E1ACA2FED782902C
:101DF000AC9A21D001014851EA6A4A0FE96E010EFE
:101E0000EA22EFCFDFFFDF50AD6E0101482B400E1D
:101E10000101485D02E30101486B000E0101E76E1C
:101E20004919E8AE02D0493503D0E750D88049556A
:101E300002E201014907E552E552E7CFD9FFE55239
:101E4000E5CFEAFFE5CFE9FFE5CFDAFF1100D9CF13
:101E5000E6FFE1CFD9FFE6527C0EDF6E340EE66E70
:101E6000E66ADFCFE6FFDCEC12F0E552E552E55220
:101E7000AC8AAC9E9F8AE552E552E7CFD9FF1200AB
:101E8000D9CFE6FFE1CFD9FFACA2FED70101475180
:101E9000472BEA6A4A0FE96E010EEA22FE0EDBCFFB
:101EA000EFFF0101492B400E0101475D02E30101F3
:101EB000476B010E00D0E552E7CFD9FF1200D9CF12
:101EC000E6FFE1CFD9FF060EE1268280010EF36E18
:101ED000020EF3CFDBFF030EDB6A020EDBCF0BF04B
:101EE000DB06030EDBCF0CF001E2DB060B500C101F
:101EF00006E0040EE66E4FEC14F0E552EED7000E4D
:101F00000101E76E4919E8AE02D0493503D0E75028
:101F1000D880495528E201014851EA6A4A0FE96E22
:101F2000010EEA22010EEFCFDBFFACA2FED7010EBD
:101F3000DB50AD6EACA2FED70101482B400E010173
:101F4000485D02E30101486B000E0101E76E49198B
:101F5000E8AE02D0493503D0E750D880495502E2B7
:101F600001014907CCD78290010EF36E040EF3CF26
:101F7000DBFF050EDB6A040EDBCF0BF0DB06050E84
:101F8000DBCF0CF001E2DB060B500C1006E0040E78
:101F9000E66E4FEC14F0E552EED70B6E060EE15CE8
:101FA00002E2E16AE552E16E0B50E552E7CFD9FF5C
:101FB0001200D9CFE6FFE1CFD9FFE652DF6A9D9A42
:101FC000000E0101E76E8C19E8AE02D08C3503D00B
:101FD000E750D8808C5502E2010EDF6E9D8ADF50FB
:101FE00000D0E552E552E7CFD9FF1200D9CFE6FF86
:101FF000E1CFD9FFE6529D9A01018B518B2BEA6A02
:102000008D0FE96E010EEA22EFCFDFFF400E0101D6
:102010008B5D02E301018B6B000E0101E76E8C19F1
:10202000E8AE02D08C3503D0E750D8808C5502E260
:1020300001018C079D8ADF5000D0E552E552E7CFC1
:10204000D9FF1200D9CFE6FFE1CFD9FF8280040E7D
:10205000E66E7DEC14F0E552ACA2FED7FD0EDBCFB0
:10206000F6FFDB2AFE0EDBCFF7FF01E3DB2A0800D9
:10207000F550E66E38EC14F0E552FD0EDBCFF6FFBE
:10208000FE0EDBCFF7FF0800F550E6E18290040E6C
:10209000E66E7DEC14F0E552E552E7CFD9FF120071
:1020A000D9CFE6FFE1CFD9FF8280040EE66E7DEC4A
:1020B00014F0E552ACA2FED7FD0EDBCFE9FFDB2A20
:1020C000FE0EDBCFEAFF01E3DB2AEF50E66E38ECD1
:1020D00014F0E552FD0EDBCFE9FFFE0EDBCFEAFF89
:1020E000EF50E8E18290040EE66E7DEC14F0E552CC
:1020F000E552E7CFD9FF1200D9CFE6FFE1CFD9FFF4
:08210000E552E7CFD9FF120000
:082108000401F56B0401F66B04
:102110000401B26B0401B36B0401B46B0401B56933
:102120000401B66B1200D9CFE6FFE1CFD9FF020E52
:10213000E1260401F82B000EF923D9CFE6FFDACF10
:10214000E6FF8FD8E552E552000901E130D00401E5
:10215000F5510401F65D04E10401F66B0401F56B31
:102160000401F651E96EEA6AD890E936EA36B70E0C
:10217000E926040EEA22DFCFEFFF0401F651E96EF3
:10218000EA6AD890E936EA36B70EE926040EEA2262
:10219000010EE926000EEA22F8C4EFFF1E0E04012C
:1021A000F65D02E20401F62B0401F86BF96B020EF6
:1021B000E15C02E2E16AE552E16EE552E7CFD9FF68
:1021C0001200D9CFE6FFE1CFD9FF0401F651040197
:1021D000F55D34E20401F551E96EEA6AD890E9361A
:1021E000EA36B70EE926040EEA22EF50E66EFD0E3F
:1021F000DBCFE9FFFE0EDBCFEAFFE552E750EF6EE3
:102200000401F551E96EEA6AD890E936EA36B70E6C
:10221000E926040EEA22010EE926000EEA22EF501A
:10222000E66EFB0EDBCFE9FFFC0EDBCFEAFFE552EB
:10223000E750EF6E0401F52B010E02D0000E00D026
:10224000E552E7CFD9FF12000401F66B0401F56BEC
:102250000401B26B0401B36B0401B46B0401B569F2
:102260001200D9CFE6FFE1CFD9FFE652DF68010EB9
:102270000B6E8150800B01E0010E0B5C70E1815010
:10228000200B01E0010E0D6E8150040B01E0010EE8
:10229000E8240C6E8150100B01E0010E040DF3CF09
:1022A0000BF08150080B01E0010E080DF3500B10EC
:1022B0000C100D100F0BDF6EDF500F0A4BE0010A00
:1022C00046E0030A41E0010A3CE0070A37E0010A60
:1022D00032E0030A2EE0010A29E00F0A24E0010A95
:1022E0001FE0030A1AE0010A15E0070A10E0010ADC
:1022F0000BE0030A06E0010A01E02FD0050EDF6EB5
:102300002ED0060EDF6E2BD0090EDF6E28D00A0EFF
:10231000DF6E25D0020EDF6E22D0010EDF6E1FD0E1
:10232000030EDF6E1CD0070EDF6E19D0040EDF6EB9
:1023300016D0DF6A14D00B0EDF6E11D00F0EDF6ED9
:102340000ED00C0EDF6E0BD0080EDF6E08D00E0E16
:10235000DF6E05D00D0EDF6E02D0DF6800D0FF0EFD
:10236000DF5C06E10401FA690401F769000E18D088
:102370000401FA51DF5C10E10401F751DF5C0CE06D
:10238000FD0EDBCFE9FFFE0EDBCFEAFFDFCFEFFF75
:10239000DFCFF7F4010E04D0DFCFFAF4000E00D047
:0A23A000E552E552E7CFD9FF120025
:0623AA00DACFE4FFE2CFF0
:1023B000DAFFE9CFE4FFEACFE4FFF6CFE4FFF7CF9F
:1023C000E4FFF5CFE4FFF3CFE4FFF4CFE4FFFACF6F
:1023D000E4FF00EE00F00B0EE80403E3EECFE4FFB1
:1023E000FBD700EE0BF0030EE80403E3EECFE4FFAF
:1023F000FBD7E652F2940101F52B000EF623F723EA
:10240000F823640E0101F51905E1F65103E1F751D6
:1024100001E1F8510BE10101EF2B000EF023F12354
:10242000F2230101F56BF66BF76BF86B0101F32BEF
:10243000000EF4230101FA2B000EFB230101F92BFE
:10244000DF0EE66EB10EE66EE6EC13F0E552E552F5
:10245000E55200EE0DF0030EE80403E3E5CFEDFFD7
:10246000FBD700EE0AF00B0EE80403E3E5CFEDFF27
:10247000FBD7E5CFFAFFE5CFF4FFE5CFF3FFE5CFDC
:10248000F5FFE5CFF7FFE5CFF6FFE5CFEAFFE5CFB4
:10249000E9FFE5CFDAFF11009F0EE66E02EC14F0C3
:1024A000E552DF0EE66EB10EE66EE6EC13F0E55295
:1024B000E552F1841200D9CFE6FFE1CFD9FF040E37
:1024C000E126F29AEFC1DFFF010EF0C1DBFF020E41
:1024D000F1C1DBFF030EF2C1DBFFF28ADECF04F0B5
:1024E000DECF05F0DECF06F0DDCF07F0DD52DD52A6
:1024F00000D0040EE15C02E2E16AE552E16EE552D1
:10250000E7CFD9FF1200F29EF29C0101EF6BF06B56
:0A251000F16BF26BF28EF28C1200F8
:06251A002A0EF66E000E11
:10252000F76E000EF86E02010900F550056F090004
:10253000F550066F03E1056701D03DD00900F55065
:10254000006F0900F550016F0900F550026F090096
:102550000900F550E96E0900F550EA6E090009001E
:102560000900F550036F0900F550046F09000900D8
:10257000F6CF07F2F7CF08F2F8CF09F200C2F6FF64
:1025800001C2F7FF02C2F8FF0201035302E1045344
:1025900007E00900F550EE6E0307F8E20407F9D7EB
:1025A00007C2F6FF08C2F7FF09C2F8FF02010507DC
:0825B000000E065BBFD712000C
:0825B800D9CFE6FFDACFE6FF00
:1025C000E1CFD9FFE2CFDAFFAC6AAB6AFD0EDBB038
:1025D000AC88DBA202D0AC8CAB8CDBB4AC8EDBA6BF
:1025E00002D0AB8801D0AB8ADBB8AC849E98DBBA52
:1025F000AB86DBAC02D09D8A01D09D9A9E9ADBAE61
:1026000002D09D8801D09D98FB0EDB50AF6EFB0E73
:10261000FC0EDBCF0CF00CC00BF00C6A0B50B06E54
:10262000AC8AAB8E949C948EAC50100B04E0AC50F2
:10263000800B01E1948CE552E5CFDAFFE7CFD9FFBB
:02264000120086
:0E264200D9CFE6FFE1CFD9FFE652C9EC13F085
:102650004CEC12F022EC0EF084EC10F0040052EC82
:1026600000F0C3EC05F0F28EF28C6DEC00F004008B
:10267000BDEC09F004000101FA51640804E20EEC1B
:1026800006F00101FA6B04000101F9510A0804E2A5
:1026900093EC10F00101F96B0101640EF35D000E83
:1026A000F4590BE30101FD710101FD51E8B08D808A
:1026B000E8A08D900101F36BF46BD7D7E552E5529A
:0626C000E7CFD9FF120074
:0A26C600312D312D313241424332F3
:1026D00033444546331111111111344748493435FB
:1026E0004A4B4C35364D4E4F36121212121237509D
:1026F0005152533854555638395758595A080808C2
:1027000008082A2A2A2A2A303030303013131313AB
:06271000130A0A0A0A0A7E
:0A2716004F50455241544F52533AC0
:10272000005245463A00425245414B00534459003D
:10273000484459004F50455241544F52530052455E
:1027400046524552454E4345005345543A004C4984
:042750004E453A00B8
:0C275400D9CFE6FFDACFE6FFE1CFD9FFD6
:10276000E2CFDAFFE652F20E0401FB17ABAC03D066
:10277000FB91ABB0FB81ABB4FB85ABB2FB87AE503A
:10278000DF6EDF50E552E552E5CFDAFFE7CFD9FF44
:02279000120035
:0E2792000D0EC16E600ED3129B8C010E816E77
:1027A00094908290949C948E929689969294898427
:1027B000929089909292899296908D80959E959C08
:0C27C000959A9598959695949592120024
:0427CC00D9CFE6FF7C
:1027D000DACFE6FFE1CFD9FFE2CFDAFFE652E652E9
:1027E000FC0EDBCFDEFFDBCFDDFF010EDB50D76E53
:1027F000DF50D66EE552E552E552E5CFDAFFE7CF7E
:04280000D9FF1200EA
:0C280400D9CFE6FFDACFE6FFE1CFD9FF25
:10281000E2CFDAFFFD0EDB507F0BD56ED76AD66AAA
:10282000F294FD0EDBAE02D0F28A01D0F29AD58E80
:0C283000E552E5CFDAFFE7CFD9FF120038
:04283C00FE0EE3CFDA
:10284000E9FFFF0EE3CFEAFFE9CFF3FFEACFF4FFA2
:10285000FB0EE35003E1FC0EE35009E0FB0EE30640
:1028600002E2FC0EE306FD0EE350EE6EF1D712001D
:10287000D9CFE6FFDACFE6FFE1CFD9FFE2CFDAFF2B
:10288000ACAC04D0AC900401FBB3AC80FD0EDB50CB
:0E289000AD6EE552E5CFDAFFE7CFD9FF1200BB
:02289E00FF0E2B
:1028A000E3500E6E480E01D04C0EE76EE72EFED7B9
:0E28B000E76AE72EFED70E2EF7D700001200C3
:0228BE00000E0A
:1028C000F36E00EE00F0060E01D81200EA6002D0AE
:0E28D000EE6AFCD7F350E9601200EE6AFCD706
:0228DE0010EEFA
:1028E00080F020EE80F0F86A0A9C8DEC12F093ECF8
:0A28F00014F021EC13F0FBD71200E6
:0628FA00FF0EE350E84E62
:102900001200000000D000D000D0E82EFAD712004C
:1029100020202020202020202020202020202020B7
:0129200000B6
:05292100434F4D0A00C8
:0229260012009D
:082928000000000000000000A7
:102930000000000000000000000000000000000097
:102940000000000000000000000000FF0000000088
:102950000000000000000000000000000000000077
:0F29600000000000000000000000000000000068
:01296F000067
:102970000000000000000000000000000000000057
:102980000000000000000000000000000000000047
:102990000000000000000000000000000000000037
:1029A0000000000000000000000000000000000027
:1029B0000000000000000000000000000000000017
:1029C0000000000000000000000000000000000007
:1029D00000000000000000000000000000000000F7
:1029E00000000000000000000000000000000000E7
:0529F0000000000000E2
:0B29F5000000000000000000000000D7
:102A000000000000000000000000000000000000C6
:102A100000000000000000000000000000000000B6
:102A200000000000000000000000000000000000A6
:102A30000000000000000000000000000000000096
:102A40000000000000000000000000000000000086
:102A50000000000000000000000000000000000076
:102A60000000000000000000000000000000000066
:102A70000000000000000000000000000000000056
:102A80000000000000000000000000000000000046
:102A90000000000000000000000000000000000036
:102AA0000000000000000000000000000000000026
:102AB0000000000000000000000000000000000016
:102AC0000000000000000000000000000000000006
:0A2AD00000000000000000000000FC
:062ADA00000000000000F6
:102AE00000000000000000000000000000000000E6
:102AF00000000000000000000000000000000000D6
:102B000000000000000000000000000000000000C5
:102B100000000000000000000000000000000000B5
:102B200000000000000000000000000000000000A5
:102B30000000000000000000000000000000000095
:102B40000000000000000000000000000000000085
:102B50000000000000000000000000000000000075
:0E2B6000000000000000000000000000000067
:022B6E00000065
:102B70000000000000000000000000000000000055
:102B80000000000000000000000000000000000045
:102B90000000000000000000000000000000000035
:102BA0000000000000000000000000000000000025
:102BB0000000000000000000000000000000000015
:102BC0000000000000000000000000000000000005
:052BD00000FF0000FF02
:0B2BD5000000000000000000000000F5
:022BE0000000F3
:022BE2004100B0
:0C2BE400000000000000000000000000E5
:102BF00000000000000000000000000000000000D5
:062C0000000000000000CE
:022C0600FFFFCE
:082C08004E2749273E2734271F
:0A2C100030272C272627212716273E
:020000040030CA
:0100010008F6
:010002001BE2
:0100030012EA
:010005008179
:010006008178
:0100080001F6
:010009008076
:01000A000FE6
:01000B00E014
:01000C000FE4
:01000D0040B2
:00000001FF
