:020000040000FA
:060000003EEF51F012007A
:020006001200E6
:080008009EAA02D02AEF3EF08F
:10001000F2A402D0B1EF46F09EA002D038EF47F034
:10002000F2A202D071EF4EF0F0A002D08BEF4EF0B2
:0A0030001200D08EF28EF28C120046
:06003A000E00CBAB00003C
:10004000FE01000002000000AFAB0000BC01000098
:100050001C000000ADAB0000FC010000020000002D
:10006000ACAB0000FF020000010000009BAB0000F1
:10007000600000001100000094AB00007900000057
:100080000700000064AB00008C010000300000009D
:100090004AAB0000D80100001A000000E8A90000E7
:1000A00000070000620100005CA9000000010000E0
:1000B0008C0000007CA7000000090000E0010000A7
:1000C000C1A4000000030000BB020000D1A3000097
:1000D000000B0000F0000000D5A2000000020000AC
:0400E000FC00000020
:0C00E400D9CFE6FFE1CFD9FF1C0EE126CA
:1000F000DE6ADD6ADE6ADD6ADECF14F0DDCF15F080
:10010000020E145C000E155801E3F6D1DECFE9FFB4
:10011000DDCFEAFF590EEA02F3CFEAFF590EE902FA
:10012000F3CFE9FFF450EA26000EE926070EEA2293
:10013000EE52010EEF6EDECFE9FFDDCFEAFF590E82
:10014000EA02F3CFEAFF590EE902F3CFE9FFF450D8
:10015000EA26000EE926070EEA22010EEF6EDFCF37
:10016000E6FF4CEC20F0E552DECFE9FFDDCFEAFF01
:10017000590EEA02F3CFEAFF590EE902F3CFE9FF85
:10018000F450EA26000EE926070EEA223F0EE92681
:10019000000EEA22EECFE6FFEFCFE6FFDFCFE6FF6D
:1001A000F5EC1DF0E552E552E5520A0EF36E0C0E29
:1001B000F3CFDBFF0D0EDB6A0C0EDBCF14F0DB069A
:1001C0000D0EDBCF15F001E2DB061450151006E032
:1001D000080EE66E0FEC51F0E552EED7DECFE9FFE8
:1001E000DDCFEAFF590EEA02F3CFEAFF590EE9022A
:1001F000F3CFE9FFF450EA26000EE926070EEA22C3
:10020000470EE926000EEA22EECFE6FFEFCFE6FF2B
:10021000DFCFE6FF7CEC1EF0E552E552E5520A0E18
:10022000F36E0E0EF3CFDBFF0F0EDB6A0E0EDBCF8D
:1002300014F0DB060F0EDBCF15F001E2DB061450E5
:10024000151006E0080EE66E0FEC51F0E552EED701
:10025000DECFE9FFDDCFEAFF590EEA02F3CFEAFF76
:10026000590EE902F3CFE9FFF450EA26000EE92621
:10027000070EEA224B0EE926000EEA22EECFE6FF39
:10028000EFCFE6FFDFCFE6FF39EC1EF0E552E55297
:10029000E5520A0EF36E100EF3CFDBFF110EDB6A90
:1002A000100EDBCF14F0DB06110EDBCF15F001E2F0
:1002B000DB061450151006E0080EE66E0FEC51F048
:1002C000E552EED7DECFE9FFDDCFEAFF590EEA02B5
:1002D000F3CFEAFF590EE902F3CFE9FFF450EA2623
:1002E000000EE926070EEA22530EE926000EEA2246
:1002F000EECFE6FFEFCFE6FFDFCFE6FF02EC1FF029
:10030000E552E552E5520A0EF36E120EF3CFDBFF13
:10031000130EDB6A120EDBCF14F0DB06130EDBCFFD
:1003200015F001E2DB061450151006E0080EE66E2B
:100330000FEC51F0E552EED7DECFE9FFDDCFEAFF5B
:10034000590EEA02F3CFEAFF590EE902F3CFE9FFB3
:10035000F450EA26000EE926070EEA22550EE92699
:10036000000EEA22EECFE6FFEFCFE6FFDFCFE6FF9B
:1003700045EC1FF0E552E552E5520A0EF36E140EFD
:10038000F3CFDBFF150EDB6A140EDBCF14F0DB06B8
:10039000150EDBCF15F001E2DB061450151006E058
:1003A000080EE66E0FEC51F0E552EED73D0EE66E0C
:1003B000E66A200EE66EDECFE9FFDDCFEAFF590EDA
:1003C000EA02F3CFEAFF590EE902F3CFE9FFF45056
:1003D000EA26000EE926070EEA22020EE926000EA2
:1003E000EA22E9CF14F0EACF15F014C0E6FF15C0F9
:1003F000E6FFD2EC4DF0166E050EE15E16503D0E96
:10040000E66EE66A200EE66EDECFE9FFDDCFEAFF9C
:10041000060ED890E936EA36E806FBE1C40EE92676
:10042000070EEA22E9CF14F0EACF15F014C0E6FF78
:1004300015C0E6FFD2EC4DF0166E050EE15E1650CB
:10044000DECFE9FFDDCFEAFF590EEA02F3CFEAFF84
:10045000590EE902F3CFE9FFF450EA26000EE9262F
:10046000070EEA22EF6ADECFE9FFDDCFEAFF590E81
:10047000EA02F3CFEAFF590EE902F3CFE9FFF450A5
:10048000EA26000EE926070EEA22EE52010EEF6E72
:10049000DECFE9FFDDCFEAFF590EEA02F3CFEAFF34
:1004A000590EE902F3CFE9FFF450EA26000EE926DF
:1004B000070EEA22570EE926000EEA223B0EEF6EE7
:1004C000DECFE9FFDDCFEAFF590EEA02F3CFEAFF04
:1004D000590EE902F3CFE9FFF450EA26000EE926AF
:1004E000070EEA22580EE926000EEA22EF6ADF2AFA
:1004F000010E01E3DB2A00D64CC8E6FF4DC8E6FF3B
:10050000E66A88EC1FF0E552E552E5520A0EF36EFA
:10051000160EF3CFDBFF170EDB6A160EDBCF14F0DF
:10052000DB06170EDBCF15F001E2DB0614501510C9
:1005300006E0080EE66E0FEC51F0E552EED756C815
:10054000E6FF57C8E6FFE66AC9EC1FF0E552E55240
:10055000E5520A0EF36E180EF3CFDBFF190EDB6ABD
:10056000180EDBCF14F0DB06190EDBCF15F001E21D
:10057000DB061450151006E0080EE66E0FEC51F085
:10058000E552EED760C8E6FF61C8E6FF010EE66EF1
:100590000AEC20F0E552E552E5520A0EF36E1A0E0F
:1005A000F3CFDBFF1B0EDB6A1A0EDBCF14F0DB068A
:1005B0001B0EDBCF15F001E2DB061450151006E030
:1005C000080EE66E0FEC51F0E552EED70701B26966
:1005D0000701050EB36F1C0EE15C02E2E16AE55211
:1005E000E16EE552E7CFD9FF1200D9CFE6FFE1CFA8
:1005F000D9FF110EE126020EDB6A040EDB6A070E3C
:10060000DB6A080EDB6AD950090FE96EDACFEAFF20
:10061000EE6AEE6AEE6AEE6AEE6AEE6A1EEC3EF092
:10062000E76E050EE7CFDBFF22EC3EF0E76E060E2D
:10063000E7CFDBFF26EC3EF0E76E070EE7CFDBFFF0
:10064000E66AE66AE66AE66A060EE66EE66AE66A62
:10065000E66A4AEC1BF0146E080EE15E145006C008
:10066000BAF707C0BBF708C0BCF709C0BDF7BAC7E7
:10067000E6FFBBC7E6FFBCC7E6FFBDC7E6FF3BEC36
:100680001CF0E552E552E552E552E76E030EE7CF66
:10069000DBFF060EDB500701BE5D08E0010EF36EC6
:1006A000040EF3CFDBFF060EDBCFBEF7DF6A020ED0
:1006B000DF5C01E358D3020EDB6ADF50590DF3CF44
:1006C000E9FFF4CFEAFF000EE926070EEA22EF5019
:1006D000020A01E1CCD1010A01E1B7D1020A01E12C
:1006E000B7D0010A01E03CD30701C30503E0B4EC35
:1006F00018F039D3040EDB0401E0A9D0020EE66E37
:10070000050EDBCFE6FFE66ADF50400DF3CFE9FFD1
:10071000F4CFEAFFC40EE926070EEA22E9CF14F06F
:10072000EACF15F014C0E6FF15C0E6FF33EC1DF06C
:10073000166E050EE15E1650DF50400DF3CFE9FF57
:10074000F4CFEAFFC40EE926070EEA22020EE926DC
:10075000000EEA223A0EEF6E020EE66E060EDBCFB8
:10076000E6FFE66ADF50400DF3CFE9FFF4CFEAFF82
:10077000C40EE926070EEA22E9CF14F0EACF15F0FD
:10078000030E1426000E152214C0E6FF15C0E6FF66
:1007900033EC1DF0166E050EE15E1650DF50400D75
:1007A000F3CFE9FFF4CFEAFFC40EE926070EEA22F1
:1007B000E9CF14F0EACF15F0080EDF02F350050F71
:1007C0000F011424E96E000E1520EA6EEF6A080E80
:1007D000DF02F3CFC5F1080EDF02F350050F010170
:1007E000C66FDF50400DF3CFE9FFF4CFEAFFC40E30
:1007F000E926070EEA22E9CF14F0EACF15F014C07B
:10080000E6FF15C0E6FF0DEC4EF0E552E552F3CFE2
:10081000C9F1DF50400DF3CFE9FFF4CFEAFFC40E7A
:10082000E926070EEA22E9CFC7F1EACFC8F10101B4
:10083000CA6BC50EE66E010EE66EDFCFE6FFDEEC9C
:1008400023F0E552E552E552030EDBCFB2F789D231
:10085000030EDB500701B25D0EE0030EDBCFB2F7F3
:10086000030EDBCFE6FFC2EC18F0E552010EF36E8B
:10087000040EF3CFDBFFDFCFE6FFB2EC0EF0E55264
:10088000DFCFE6FF99EC0FF0E552040EDB0462E1E6
:10089000DF50590DF3CFE9FFF4CFEAFF000EE92650
:1008A000070EEA22570EE926000EEA22EF2ADF5051
:1008B000590DF3CFE9FFF4CFEAFF000EE926070E4A
:1008C000EA22570EE926000EEA22EFCF14F03C0E82
:1008D000145C0FE3DF50590DF3CFE9FFF4CFEAFFCB
:1008E000000EE926070EEA22570EE926000EEA223C
:1008F000EF6ADF50590DF3CFE9FFF4CFEAFF000EA6
:10090000E926070EEA22580EE926000EEA22EF2A0F
:10091000DF50590DF3CFE9FFF4CFEAFF000EE926CF
:10092000070EEA22580EE926000EEA22EFCF14F055
:100930003C0E145C0FE3DF50590DF3CFE9FFF4CF09
:10094000EAFF000EE926070EEA22580EE926000EFD
:10095000EA22EF6ADF50590DF3CFE9FFF4CFEAFF47
:10096000000EE926070EEA22490EE926000EEA22C9
:10097000EECF16F0EFCF17F0DF50F00DF3CF14F0FD
:10098000F4CF15F0000E1426090E1522DF50590D74
:10099000F3CFE9FFF4CFEAFF000EE926070EEA22C3
:1009A000570EE926000EEA22EF50040D1450F324EE
:1009B000E96E1550F420EA6E16C0EEFF17C0EDFF89
:1009C000DF50590DF3CFE9FFF4CFEAFF000EE9261F
:1009D000070EEA224B0EE926000EEA22EECF16F0B1
:1009E000EFCF17F0DF50F00DF3CF14F0F4CF15F088
:1009F000000E1426090E1522DF50590DF3CFE9FF22
:100A0000F4CFEAFF000EE926070EEA22570EE92688
:100A1000000EEA22EF50040D1450F324E96E155035
:100A2000F420EA6E020EE926000EEA2216C0EEFF5E
:100A300017C0EDFFDFCFE6FF64EC15F0E552DFCF26
:100A4000E6FF6FEC20F0E5528CD1DF50590DF3CF6B
:100A5000E9FFF4CFEAFF000EE926070EEA22440E72
:100A6000E926000EEA22EE2A000EEF227AD1DF50AC
:100A700045E1DF50590DF3CFE9FFF4CFEAFF000E57
:100A8000E926070EEA224D0EE926000EEA22EF5073
:100A900013E1DF50590DF3CFE9FFF4CFEAFF000E69
:100AA000E926070EEA224D0EE926000EEA22010E83
:100AB000EF6E8780878221D0DF50590DF3CFE9FF99
:100AC000F4CFEAFF000EE926070EEA224D0EE926D2
:100AD000000EEA22EF0411E1DF50590DF3CFE9FFD8
:100AE000F4CFEAFF000EE926070EEA224D0EE926B2
:100AF000000EEA22EF6A8790879244D0DF50590DAA
:100B0000F3CFE9FFF4CFEAFF000EE926070EEA2251
:100B10004D0EE926000EEA22EF5013E1DF50590D89
:100B2000F3CFE9FFF4CFEAFF000EE926070EEA2231
:100B30004D0EE926000EEA22010EEF6E87848786AD
:100B400021D0DF50590DF3CFE9FFF4CFEAFF000EBB
:100B5000E926070EEA224D0EE926000EEA22EF04EE
:100B600011E1DF50590DF3CFE9FFF4CFEAFF000E9A
:100B7000E926070EEA224D0EE926000EEA22EF6A68
:100B800087948796DF50590DF3CFE9FFF4CFEAFF42
:100B9000000EE926070EEA224E0EE926000EEA2292
:100BA000EE06000EEE5AEE5AEE5ADF50590DF3CF14
:100BB000E9FFF4CFEAFF000EE926070EEA224E0E07
:100BC000E926000EEA22EECF14F0EECF15F0EECFBC
:100BD00016F0EFCF17F0145015101610171001E093
:100BE000BED0DF50590DF3CFE9FFF4CFEAFF000E7E
:100BF000E926070EEA22EE52EF50E66EDF50590D5D
:100C0000F3CFE9FFF4CFEAFF000EE926070EEA2250
:100C1000E552E750EF6EDFCFE6FF4CEC20F0E552F7
:100C2000DF50590DF3CFE9FFF4CFEAFF000EE926BC
:100C3000070EEA22EE52EF50030806E1DFCFE6FF8F
:100C400039EC0EF0E5528BD0DFCFE6FF7FEC2AF0D7
:100C5000E552080EDF02F3CFC5F1080EDF02F350B4
:100C6000080F0101C66FDF50590DF3CFE9FFF4CF34
:100C7000EAFF000EE926070EEA22020EE926000E20
:100C8000EA22E9CF14F0EACF15F014C0E6FF15C050
:100C9000E6FF0DEC4EF0E552E552F3CFC9F1DF501F
:100CA000590DF3CFE9FFF4CFEAFF000EE926070E56
:100CB000EA22020EE926000EEA22E9CFC7F1EACFC6
:100CC000C8F1B3C7CAF1C50EE66E010EE66EDFCFFE
:100CD000E6FFDEEC23F0E552E552E552DF50590D18
:100CE000F3CFE9FFF4CFEAFF000EE926070EEA2270
:100CF0003F0EE926000EEA22EECFE6FFEFCFE6FF39
:100D0000DFCFE6FFF5EC1DF0E552E552E5520A0EA5
:100D1000F36E0F0EF3CFDBFF100EDB6A0F0EDBCF8F
:100D200014F0DB06100EDBCF15F001E2DB061450E9
:100D3000151006E0080EE66E0FEC51F0E552EED706
:100D4000DF50590DF3CFE9FFF4CFEAFF000EE9269B
:100D5000070EEA22520EE926000EEA22EF6A01D0BF
:100D600000D0DF2AA4D4110EE15C02E2E16AE55270
:100D7000E16EE552E7CFD9FF1200D9CFE6FFE1CF10
:100D8000D9FF0B0EE126FD0EDBCFE9FFFE0EDBCF18
:100D9000EAFF020EEFCFDBFF030EDB6A020EDB5031
:100DA000A00A02E11EEF0EF0D50A02E1FCEF0DF001
:100DB000050A02E187EF0DF0040A01E146D3070AB4
:100DC00001E13FD2010A01E1F3D0050A02E029EF77
:100DD0000EF0010EE76EFD0EDBCFE9FFFE0EDBCF5E
:100DE000EAFFE750E926000EEA22EF50FE0FE76E19
:100DF000040EE7CFDBFF040EDB50590DF3CFE9FF04
:100E0000F4CFEAFF000EE926070EEA22EF500208AF
:100E100001E0CCD0040EDB50590DF3CFE9FFF4CF45
:100E2000EAFF000EE926070EEA22520EE926000E1E
:100E3000EA22EF5001E0BAD03D0EE66EE66A200EDF
:100E4000E66E040EDB50400DF3CFE9FFF4CFEAFF6E
:100E5000C40EE926070EEA22E9CF14F0EACF15F016
:100E600014C0E6FF15C0E6FFD2EC4DF0166E050E7D
:100E7000E15E1650040EDBCFE6FF7FEC2AF0E55270
:100E8000040EDB50080DF3CFC5F1040EDB50080D46
:100E9000F350080F0101C66F0101080EC96F040E5F
:100EA000DB50400DF3CFE9FFF4CFEAFFC40EE92693
:100EB000070EEA22E9CFC7F1EACFC8F10101CA6BF8
:100EC000C50EE66E010EE66E040EDBCFE6FFDEEC2D
:100ED00023F0E552E552E552020EE76EFD0EDBCF40
:100EE00014F0FE0EDBCF15F0E7501426000E15228D
:100EF00014C0E6FF15C0E6FF040EDB50400DF3CF33
:100F0000E9FFF4CFEAFFC40EE926070EEA22E9CF93
:100F100016F0EACF17F016C0E6FF17C0E6FFECECBC
:100F20004DF0E552E552E552E552000EE66EE66AF6
:100F3000040EDBCFE6FFF5EC1DF0E552E552E5527D
:100F4000040EDB50400DF3CFE9FFF4CFEAFFC40EEF
:100F5000E926070EEA22E9CF14F0EACF15F014C013
:100F6000E6FF15C0E6FF040EDBCFE6FF8BEC18F0C2
:100F7000E552E552E552040EDB50590DF3CFE9FF7F
:100F8000F4CFEAFF000EE926070EEA22520EE92608
:100F9000000EEA22010EEF6EFB0EDBCFE9FFFC0E26
:100FA000DBCFEAFF770EEF6E030EDB6A2AEF0EF05F
:100FB000010EE76EFD0EDBCFE9FFFE0EDBCFEAFF91
:100FC000E750E926000EEA22EF50FE0FE76E050E0D
:100FD000E7CFDBFF050EDB50590DF3CFE9FFF4CF70
:100FE000EAFF000EE926070EEA22EF50020801E0B0
:100FF00026D1020EE76EFD0EDBCFE9FFFE0EDBCF42
:10100000EAFFE750E926000EEA22EF50E66E050EF1
:10101000DB50590DF3CFE9FFF4CFEAFF000EE926CC
:10102000070EEA22430EE926000EEA22E552E750B7
:10103000EF6EFB0EDBCFE9FFFC0EDBCFEAFF720E9B
:10104000EF6E030EDB6A050EDB50590DF3CFE9FF9F
:10105000F4CFEAFF000EE926070EEA22470EE92642
:10106000000EEA22EECF16F0EFCF17F0050EDB50A0
:10107000780DF3CF14F0F4CF15F0000E14260B0EFC
:101080001522050EDB50590DF3CFE9FFF4CFEAFF2F
:10109000000EE926070EEA22460EE926000EEA2295
:1010A000EF50060D1450F324E96E1550F420EA6E4B
:1010B00016C0EEFF17C0EDFF050EDB50780DF3CF25
:1010C00014F0F4CF15F0000E14260B0E1522050EA9
:1010D000DB50590DF3CFE9FFF4CFEAFF000EE9260C
:1010E000070EEA22460EE926000EEA22EF50060D10
:1010F0001450F324E96E1550F420EA6E020EE9262E
:10110000000EEA22BAC7EEFFBBC7EEFFBCC7EEFF78
:10111000BDC7EEFF050EDB50590DF3CFE9FFF4CF4D
:10112000EAFF000EE926070EEA22460EE926000E27
:10113000EA22EF2A050EDB50590DF3CFE9FFF4CF79
:10114000EAFF000EE926070EEA22440EE926000E09
:10115000EA22EE6AED6A050EDB50590DF3CFE9FF86
:10116000F4CFEAFF000EE926070EEA22EE52EF5016
:10117000E66E050EDB50590DF3CFE9FFF4CFEAFF21
:10118000000EE926070EEA22E552E750EF6E050E43
:10119000DB50590DF3CFE9FFF4CFEAFF000EE9264B
:1011A000070EEA22020EE926000EEA22E9CF14F029
:1011B000EACF15F014C0E6FF15C0E6FF0DEC4EF0C7
:1011C000E552E552060EF3CFDBFF020EE66E050E8A
:1011D000DB50590DF3CFE9FFF4CFEAFF000EE9260B
:1011E000070EEA22430EE926000EEA22EF50E66ED1
:1011F000E66A050EDB50590DF3CFE9FFF4CFEAFFA5
:10120000000EE926070EEA22020EE926000EEA2267
:10121000E9CF16F0EACF17F0060EDB50F70F00010A
:101220001624146E000E1720156E14C0E6FF15C0AC
:10123000E6FF33EC1DF0186E050EE15E18502AEF44
:101240000EF0010EE76EFD0EDBCFE9FFFE0EDBCFE9
:10125000EAFFE750E926000EEA22EF50FE0FE76EA4
:10126000070EE7CFDBFF070EDB50590DF3CFE9FF89
:10127000F4CFEAFF000EE926070EEA22EE52EF0451
:101280003CE1070EDB50590DF3CFE9FFF4CFEAFF45
:10129000000EE926070EEA22EE52030EEF6E070E4D
:1012A000DB50590DF3CFE9FFF4CFEAFF000EE9263A
:1012B000070EEA22030EEF6E070EDBCFE6FF39ECD6
:1012C0000EF0E552FB0EDBCFE9FFFC0EDBCFEAFFB1
:1012D000730EEF6E030EDB6A070EDBCFE6FF4CECFE
:1012E00020F0E552E668E668070EDBCFE6FFF5EC96
:1012F0001DF0E552E552E552A6D0070EDB50590D20
:10130000F3CFE9FFF4CFEAFF000EE926070EEA2249
:10131000EE52EF50030801E096D0070EDB50590D56
:10132000F3CFE9FFF4CFEAFF000EE926070EEA2229
:10133000010EEF6E070EDB50590DF3CFE9FFF4CF2E
:10134000EAFF000EE926070EEA22EE52010EEF6ECA
:10135000070EDBCFE6FF7FEC2AF0E552070EDB50ED
:10136000080DF3CFC5F1070EDB50080DF350080F41
:101370000101C66F070EDB50590DF3CFE9FFF4CF23
:10138000EAFF000EE926070EEA22020EE926000E09
:10139000EA22E9CF14F0EACF15F014C0E6FF15C039
:1013A000E6FF0DEC4EF0E552E552F3CFC9F1070E22
:1013B000DB50590DF3CFE9FFF4CFEAFF000EE92629
:1013C000070EEA22020EE926000EEA22E9CFC7F153
:1013D000EACFC8F1B3C7CAF1C50EE66E010EE66EDC
:1013E000070EDBCFE6FFDEEC23F0E552E552E552D7
:1013F000FB0EDBCFE9FFFC0EDBCFEAFF730EEF6ED7
:10140000030EDB6A070EDB50590DF3CFE9FFF4CF73
:10141000EAFF000EE926070EEA223F0EE926000E3B
:10142000EA22EECFE6FFEFCFE6FF070EDBCFE6FFC7
:10143000F5EC1DF0E552E552E552070EDBCFE6FF75
:101440004CEC20F0E5522AEF0EF0010EE76EFD0E97
:10145000DBCFE9FFFE0EDBCFEAFFE750E926000E07
:10146000EA22EF50FE0FE76E080EE7CFDBFF090E12
:10147000DB6A080EDB50590DF3CFE9FFF4CFEAFF2A
:10148000000EE926070EEA22EF50020801E038D3E9
:10149000080EDB50590DF3CFE9FFF4CFEAFF000E41
:1014A000E926070EEA22520EE926000EEA22EF0490
:1014B00001E026D3030EE76EFD0EDBCFE9FFFE0E43
:1014C000DBCFEAFFE750E926000EEA22EF50166E66
:1014D000176A16C017F0166A020EE76EFD0EDBCF14
:1014E000E9FFFE0EDBCFEAFFE750E926000EEA2215
:1014F000EF5000011624146E000E1720156E080E12
:10150000DB50590DF3CFE9FFF4CFEAFF000EE926D7
:10151000070EEA223F0EE926000EEA2214C0EEFF73
:1015200015C0EDFF050EE76EFD0EDBCFE9FFFE0EE9
:10153000DBCFEAFFE750E926000EEA22EF50166EF5
:10154000176A16C017F0166A040EE76EFD0EDBCFA1
:10155000E9FFFE0EDBCFEAFFE750E926000EEA22A4
:10156000EF5000011624146E000E1720156E080EA1
:10157000DB50590DF3CFE9FFF4CFEAFF000EE92667
:10158000070EEA22410EE926000EEA2214C0EEFF01
:1015900015C0EDFF080EDB50400DF3CFE9FFF4CF8F
:1015A000EAFFC40EE926070EEA22E9CF14F0EACFDB
:1015B00015F014C0E6FF15C0E6FF0DEC4EF0E55245
:1015C000E552090EF3CFDBFF080EDB50400DF3CFE1
:1015D000E9FFF4CFEAFFC40EE926070EEA22E9CFBD
:1015E00014F0EACF15F0090EDB500F011424E96E58
:1015F000000E1520EA6E200EEF6E080EDB50400D37
:10160000F3CFE9FFF4CFEAFFC40EE926070EEA2282
:10161000E9CF14F0EACF15F0090EDB50050F0F01EA
:101620001424E96E000E1520EA6EEF6A080EDB50F6
:10163000400DF3CFE9FFF4CFEAFFC40EE926070E11
:10164000EA22E9CF14F0EACF15F014C0E6FF15C086
:10165000E6FF080EDB50590DF3CFE9FFF4CFEAFFA8
:10166000000EE926070EEA22020EE926000EEA2203
:10167000E9CF16F0EACF17F016C0E6FF17C0E6FF75
:10168000ECEC4DF0E552E552E552E552080EDB5028
:10169000590DF3CFE9FFF4CFEAFF000EE926070E5C
:1016A000EA22020EE926000EEA22E9CF14F0EACF80
:1016B00015F014C0E6FF15C0E6FF0DEC4EF0E55244
:1016C000E552090EF3CFDBFFBFC1E6FFC0C1E6FF65
:1016D000C1C1E6FF080EDB50590DF3CFE9FFF4CF8F
:1016E000EAFF000EE926070EEA22020EE926000EA6
:1016F000EA22E9CF16F0EACF17F0090EDB5000011D
:101700001624146E000E1720156E14C0E6FF15C0C7
:10171000E6FFB5EC20F0186E050EE15E1850080EDD
:10172000DB50590DF3CFE9FFF4CFEAFF000EE926B5
:10173000070EEA22020EE926000EEA22E9CF14F093
:10174000EACF15F014C0E6FF15C0E6FF0DEC4EF031
:10175000E552E552090EF3CFDBFF020EE66E080EEE
:10176000DB50590DF3CFE9FFF4CFEAFF000EE92675
:10177000070EEA22430EE926000EEA22EF50E66E3B
:10178000E66A080EDB50590DF3CFE9FFF4CFEAFF0C
:10179000000EE926070EEA22020EE926000EEA22D2
:1017A000E9CF16F0EACF17F0090EDB50000116243E
:1017B000146E000E1720156E14C0E6FF15C0E6FF6C
:1017C00033EC1DF0186E050EE15E1850070EE66E44
:1017D000E66A200EE66E080EDB50590DF3CFE9FFE6
:1017E000F4CFEAFF000EE926070EEA22020EE926F0
:1017F000000EEA22E9CF16F0EACF17F0090EDB500F
:10180000020F00011624146E000E1720156E14C06E
:10181000E6FF15C0E6FFD2EC4DF0186E050EE15E56
:101820001850080EDB50590DF3CFE9FFF4CFEAFF53
:10183000000EE926070EEA22020EE926000EEA2231
:10184000E9CF14F0EACF15F0090EDB50090F0F01B4
:101850001424E96E000E1520EA6EEF6A080EDB50C4
:10186000590DF3CFE9FFF4CFEAFF000EE926070E8A
:10187000EA22EE52EF046CE1080EDBCFE6FF7FECCC
:101880002AF0E552080EDB50080DF3CFC5F1080E23
:10189000DB50080DF350080F0101C66F080EDB5036
:1018A000590DF3CFE9FFF4CFEAFF000EE926070E4A
:1018B000EA22020EE926000EEA22E9CF14F0EACF6E
:1018C00015F014C0E6FF15C0E6FF0DEC4EF0E55232
:1018D000E552F3CFC9F1080EDB50590DF3CFE9FF04
:1018E000F4CFEAFF000EE926070EEA22020EE926EF
:1018F000000EEA22E9CFC7F1EACFC8F1B3C7CAF1B7
:10190000C50EE66E010EE66E080EDBCFE6FFDEECDE
:1019100023F0E552E552E552080EDB50590DF3CFA6
:10192000E9FFF4CFEAFF000EE926070EEA223F0E98
:10193000E926000EEA22EECFE6FFEFCFE6FF080E23
:10194000DBCFE6FFF5EC1DF0E552E552E55214D091
:10195000080EDB50590DF3CFE9FFF4CFEAFF000E7C
:10196000E926070EEA22EE52EF50030805E1080EC1
:10197000DBCFE6FF7ED9E552FB0EDBCFE9FFFC0EA5
:10198000DBCFEAFF740EEF6E030EDB6A080EDB504E
:10199000590DF3CFE9FFF4CFEAFF000EE926070E59
:1019A000EA22EE52EF50E66E080EDB50590DF3CFEF
:1019B000E9FFF4CFEAFF000EE926070EEA22E5521E
:1019C000E750EF6E080EDB50590DF3CFE9FFF4CF6F
:1019D000EAFF000EE926070EEA22470EE926000E6E
:1019E000EA22EECF16F0EFCF17F0080EDB50780D9D
:1019F000F3CF14F0F4CF15F0000E14260B0E1522C1
:101A0000080EDB50590DF3CFE9FFF4CFEAFF000ECB
:101A1000E926070EEA22460EE926000EEA22EF50DA
:101A2000060D1450F324E96E1550F420EA6E16C02A
:101A3000EEFF17C0EDFF080EDB50780DF3CF14F06A
:101A4000F4CF15F0000E14260B0E1522080EDB50F5
:101A5000590DF3CFE9FFF4CFEAFF000EE926070E98
:101A6000EA22460EE926000EEA22EF50060D145037
:101A7000F324E96E1550F420EA6E020EE926000EFA
:101A8000EA22BAC7EEFFBBC7EEFFBCC7EEFFBDC779
:101A9000EEFF080EDB50590DF3CFE9FFF4CFEAFF5C
:101AA000000EE926070EEA22460EE926000EEA227B
:101AB000EF2A080EDB50590DF3CFE9FFF4CFEAFF10
:101AC000000EE926070EEA22520EE926000EEA224F
:101AD000EF6A080EDB50590DF3CFE9FFF4CFEAFFB0
:101AE000000EE926070EEA22440EE926000EEA223D
:101AF000EE6AED6A080EDBCFE6FF4CEC20F0E55213
:101B0000080EDBCFE6FF4CEC20F0E552A3D0010E2F
:101B1000E76EFD0EDBCFE9FFFE0EDBCFEAFFE750FD
:101B2000E926000EEA22EF50FE0FE76E0A0EE7CF1D
:101B3000DBFFFB0EDBCFE9FFFC0EDBCFEAFF700E15
:101B4000EF6E030EDB6A0A0EDB50590DF3CFE9FF8F
:101B5000F4CFEAFF000EE926070EEA22EF502AE052
:101B60000A0EDB50590DF3CFE9FFF4CFEAFF000E68
:101B7000E926070EEA22EF5002081CE00A0EDB50AD
:101B8000590DF3CFE9FFF4CFEAFF000EE926070E67
:101B9000EA22EF50E66E0A0EDB50590DF3CFE9FF53
:101BA000F4CFEAFF000EE926070EEA22EE52E552D4
:101BB000E750EF6E0A0EDB50590DF3CFE9FFF4CF7B
:101BC000EAFF000EE926070EEA22020EEF6E0A0E69
:101BD000DB50590DF3CFE9FFF4CFEAFF000EE92601
:101BE000070EEA224E0EE926000EEA22FA0EEE6EEB
:101BF000EE68EE6AEE6A2ED0010EE76EFD0EDBCFC8
:101C000014F0FE0EDBCF15F0E7501426000E15225F
:101C100014C0E6FF15C0E6FFA8EC39F0E552E55226
:101C20000701010EC36FFB0EDBCFE9FFFC0EDBCF1C
:101C3000EAFF750EEF6E030EDB6A0CD0FB0EDBCFF6
:101C4000E9FFFC0EDBCFEAFFA00EEF6E030EDB6AAE
:101C500001D000D0030EDB5000D0146E0B0EE15CFF
:101C600002E2E16AE552E16E1450E552E7CFD9FF96
:101C70001200D9CFE6FFE1CFD9FFBCC1E6FFBDC15D
:101C8000E6FFBEC1E6FFFE0EDB50400DF3CFE9FFDD
:101C9000F4CFEAFFC40EE926070EEA22E9CF14F0DA
:101CA000EACF15F014C0E6FF15C0E6FFB5EC20F052
:101CB000166E050EE15E1650FE0EDBCFE6FF7FECE2
:101CC0002AF0E552FE0EDB50080DF3CFC5F1FE0EF3
:101CD000DB50080DF350080F0101C66FFE0EDB50FC
:101CE000400DF3CFE9FFF4CFEAFFC40EE926070E5B
:101CF000EA22E9CF14F0EACF15F014C0E6FF15C0D0
:101D0000E6FF0DEC4EF0E552E552F3CFC9F1FE0EC1
:101D1000DB50400DF3CFE9FFF4CFEAFFC40EE92614
:101D2000070EEA22E9CFC7F1EACFC8F1B3C7CAF17B
:101D3000C50EE66E010EE66EFE0EDBCFE6FFDEECB4
:101D400023F0E552E552E552E668E668FE0EDBCF89
:101D5000E6FFF5EC1DF0E552E552E552E552E7CF1E
:101D6000D9FF1200D9CFE6FFE1CFD9FF040EE1265B
:101D7000FE0EDB50EA6AFE0FE96E010EEA22EF0466
:101D800001E0CDD0FE0EDB50590DF3CFE9FFF4CFCB
:101D9000EAFF000EE926070EEA224B0EE926000EA6
:101DA000EA22EE2A000EEF220701B2050A0DF3CF58
:101DB000E9FFF4CFEAFF440EE926080EEA22080EF6
:101DC000E926000EEA22EE2A000EEF22FE0EDB507C
:101DD000590DF3CFE9FFF4CFEAFF000EE926070E15
:101DE000EA224B0EE926000EEA22EECFE6FFEFCF05
:101DF000E6FFFE0EDBCFE6FF39EC1EF0E552E552C2
:101E0000E5520A0EDE6EDD6ADFCF14F0DF06010E4A
:101E1000DBCF15F001E2DB061450151006E0080ECA
:101E2000E66E0FEC51F0E552EFD70701B2051AE16B
:101E30000701B2050A0DF3CFE9FFF4CFEAFF440E24
:101E4000E926080EEA22080EE926000EEA22EECF65
:101E5000E6FFEFCFE6FFE66A88EC1FF0E552E552B9
:101E6000E5523CD0020E0701B25D1AE10701B2054E
:101E70000A0DF3CFE9FFF4CFEAFF440EE926080E7E
:101E8000EA22080EE926000EEA22EECFE6FFEFCFA7
:101E9000E6FFE66AC9EC1FF0E552E552E5521ED0B6
:101EA000030E0701B25D1AE10701B2050A0DF3CF77
:101EB000E9FFF4CFEAFF440EE926080EEA22080EF5
:101EC000E926000EEA22EECFE6FFEFCFE6FF010E95
:101ED000E66E0AEC20F0E552E552E5520A0EF36E8A
:101EE000020EF3CFDBFF030EDB6A020EDBCF14F032
:101EF000DB06030EDBCF15F001E2DB0614501510F4
:101F000006E0080EE66E0FEC51F0E552EED7FE0E3D
:101F1000DB50EA6AFE0FE96E010EEA22EF6A040E58
:101F2000E15C02E2E16AE552E16EE552E7CFD9FFFA
:101F30001200D9CFE6FFE1CFD9FF1D0EE1260D0E2D
:101F4000DB6A0E0EDB6A0F0EDB6A100EDB6A150E03
:101F5000BAC7DBFF160EBBC7DBFF170EBCC7DBFF24
:101F6000180EBDC7DBFFFE0EDB50590DF3CFE9FFA6
:101F7000F4CFEAFF000EE926070EEA223F0EE9261B
:101F8000000EEA22EE50ED1012E0FE0EDB50590D6D
:101F9000F3CFE9FFF4CFEAFF000EE926070EEA22AD
:101FA000410EE926000EEA22EE50ED1024E1FE0E6D
:101FB000DB50590DF3CFE9FFF4CFEAFF000EE9261D
:101FC000070EEA22470EE926000EEA22EE6AED6AC3
:101FD000FE0EDB50590DF3CFE9FFF4CFEAFF000E00
:101FE000E926070EEA22490EE926000EEA22EE6AE9
:101FF000ED6A5AEF15F0FE0EDB50590DF3CFE9FFF5
:10200000F4CFEAFF000EE926070EEA22460EE92683
:10201000000EEA22EF50000801E383D0FE0EDB50F1
:10202000780DF3CF14F0F4CF15F0000E14260B0E3C
:102030001522FE0EDB50590DF3CFE9FFF4CFEAFF76
:10204000000EE926070EEA22460EE926000EEA22D5
:10205000EF04060D1450F324E96E1550F420EA6ED7
:10206000020EE926000EEA22090EEECFDBFF0A0E71
:10207000EECFDBFF0B0EEECFDBFF0C0EEECFDBFF68
:10208000FE0EDB50780DF3CF14F0F4CF15F0000EF8
:1020900014260B0E1522FE0EDB50590DF3CFE9FF6F
:1020A000F4CFEAFF000EE926070EEA22460EE926E3
:1020B000000EEA22EF04060D1450F324E96E1550C9
:1020C000F420EA6E0D0EEECFDBFF0E0EEDCFDBFF40
:1020D000FE0EDB50F00DF3CF14F0F4CF15F0000E30
:1020E0001426090E1522FE0EDB50590DF3CFE9FF21
:1020F000F4CFEAFF000EE926070EEA22580EE92681
:10210000000EEA22EF50040D1450F324E96E15502E
:10211000F420EA6E0F0EEECFDBFF100EEDCFDBFFEB
:1021200017D00701B2050A0DF3CFE9FFF4CFEAFF9C
:10213000440EE926080EEA22090EEECFDBFF0A0E56
:10214000EECFDBFF0B0EEECFDBFF0C0EEECFDBFF97
:10215000150EDBCF14F0160EDBCF15F0170EDBCF0C
:1021600016F0180EDBCF17F0100E145E0E0E155A77
:10217000000E165A000E175A110E14C0DBFF120E75
:1021800015C0DBFF130E16C0DBFF140E17C0DBFFFC
:10219000090EDBCF14F00A0EDBCF15F00B0EDBCFF0
:1021A00016F00C0EDBCF17F0D950110FE96EDACF15
:1021B000EAFF030EEB501718E8AE02D0173408D030
:1021C0001450EE5C1550EE581650EE581750EE585D
:1021D0001DE2D950090FE96EDACFEAFF110EEECFFA
:1021E000DBFF120EEECFDBFF130EEECFDBFF140E84
:1021F000EECFDBFF0D0EDBCF08F00E0EDBCF09F0CC
:102200000F0E08C0DBFF100E09C0DBFF090EDBCF8D
:1022100014F00A0EDBCF15F00B0EDBCF16F00C0E10
:10222000DBCF17F0D950150FE96EDACFEAFF030EB6
:10223000EBCFF3FF1750F318E8AE02D0F33408D019
:10224000EE50145CEE501558EE501658EE501758DC
:102250004BE2150EDBCF1CF0160EDBCF1DF0170E78
:10226000DBCF1EF0180EDBCF1FF0D950090FE96E3F
:10227000DACFEAFFEE501C5C186EEE501D58196E56
:10228000EE501E581A6EEE501F581B6EFE0EDB509D
:10229000590DF3CFE9FFF4CFEAFF000EE926070E50
:1022A000EA22440EE926000EEA22EECF20F0EFCF1C
:1022B00021F0226A236A2050185C146E21501958AC
:1022C000156E22501A58166E23501B58176E010EA9
:1022D00014C0DBFF020E15C0DBFF030E16C0DBFFD0
:1022E000040E17C0DBFF4AD0090EDBCF1CF00A0E2C
:1022F000DBCF1DF00B0EDBCF1EF00C0EDBCF1FF083
:10230000D950150FE96EDACFEAFFEE501C5C186E5B
:10231000EE501D58196EEE501E581A6EEE501F5892
:102320001B6EFE0EDB50590DF3CFE9FFF4CFEAFF31
:10233000000EE926070EEA22440EE926000EEA22E4
:10234000EECF20F0EFCF21F0226A236A2050185CF4
:10235000146E21501958156E22501A58166E2350BB
:102360001B58176E010E14C0DBFF020E15C0DBFFF9
:10237000030E16C0DBFF040E17C0DBFFD950010FA0
:10238000E96EDACFEAFFD890030EEB50000A08E6B8
:10239000000EEE5C000EEE58000EEE58000EEE58E9
:1023A00008E2010EDB6A020EDB6A030EDB6A040E32
:1023B000DB6AD950010FE96EDACFEAFF050EEECFE6
:1023C000DBFF060EEECFDBFF070EEECFDBFF080EC6
:1023D000EECFDBFFFE0EDB50590DF3CFE9FFF4CF5C
:1023E000EAFF000EE926070EEA22430EE926000E58
:1023F000EA22EFCF14F0156A166A176AD950010F56
:10240000E96EDACFEAFF14C00BF015C00CF016C06D
:102410000DF017C00EF0EECF06F0EECF07F0EECFC6
:1024200008F0EFCF09F05EEC4FF005C0EDFF04C0FF
:10243000EDFF03C0EDFF02C0EFFFFE0EDB50590DB4
:10244000F3CFE9FFF4CFEAFF000EE926070EEA22F8
:102450003F0EE926000EEA22EECF14F0EFCF15F082
:10246000166A176AD950010FE96EDACFEAFF14C075
:102470000BF015C00CF016C00DF017C00EF0EECF2B
:1024800006F0EECF07F0EECF08F0EFCF09F0C6EC84
:102490004CF009C0EDFF08C0EDFF07C0EDFF06C01E
:1024A000EFFFFE0EDB50590DF3CFE9FFF4CFEAFF4B
:1024B000000EE926070EEA22410EE926000EEA2266
:1024C000EECF14F0EFCF15F0166A176AD950050F4A
:1024D000E96EDACFEAFF14C00BF015C00CF016C09D
:1024E0000DF017C00EF0EECF06F0EECF07F0EECFF6
:1024F00008F0EFCF09F0C6EC4CF009C0EDFF08C0C2
:10250000EDFF07C0EDFF06C0EFFF050EDBCF14F0B7
:10251000060EDBCF15F0070EDBCF16F0080EDBCF73
:1025200017F0D950010FE96EDACFEAFF030EEBCFB7
:10253000F3FF1750F318E8AE02D0F33408D0EE5092
:10254000145CEE501558EE501658EE50175811E224
:10255000D950050FE96EDACFEAFF010EEECFDBFFAF
:10256000020EEECFDBFF030EEECFDBFF040EEECF4D
:10257000DBFF010EDBCF14F0020EDBCF15F0D950DC
:102580000D0FE96EDACFEAFF1450EE261550ED225A
:102590000D0EDBCF14F00E0EDBCF15F0FE0EDB5070
:1025A000590DF3CFE9FFF4CFEAFF000EE926070E3D
:1025B000EA22470EE926000EEA22EECF16F0EFCF10
:1025C00017F01650141802E11750151849E0FE0EC6
:1025D000DB50590DF3CFE9FFF4CFEAFF000EE926F7
:1025E000070EEA22470EE926000EEA220D0EDBCF87
:1025F000EEFF0E0EDBCFEDFFFE0EDB50590DF3CFDD
:10260000E9FFF4CFEAFF000EE926070EEA22470EA3
:10261000E926000EEA22EECFE6FFEFCFE6FFFE0E40
:10262000DBCFE6FF7CEC1EF0E552E552E5520A0EE8
:10263000F36E190EF3CFDBFF1A0EDB6A190EDBCF38
:1026400014F0DB061A0EDBCF15F001E2DB061450A6
:10265000151006E0080EE66E0FEC51F0E552EED7CD
:10266000110EDBCF14F0120EDBCF15F0130EDBCF03
:1026700016F0140EDBCF17F0D950150FE96EDACF34
:10268000EAFF030EEBCFF3FF1750F318E8AE02D0CA
:10269000F33408D0EE50145CEE501558EE50165836
:1026A000EE5017584BE2150EDBCF1CF0160EDBCFA9
:1026B0001DF0170EDBCF1EF0180EDBCF1FF0D95028
:1026C000110FE96EDACFEAFFEE501C5C186EEE5087
:1026D0001D58196EEE501E581A6EEE501F581B6E84
:1026E000FE0EDB50590DF3CFE9FFF4CFEAFF000EE9
:1026F000E926070EEA22440EE926000EEA22EECF72
:1027000020F0EFCF21F0226A236A2050185C146E6B
:1027100021501958156E22501A58166E23501B5806
:10272000176E010E14C0DBFF020E15C0DBFF030E97
:1027300016C0DBFF040E17C0DBFF4AD0110EDBCF43
:102740001CF0120EDBCF1DF0130EDBCF1EF0140EAB
:10275000DBCF1FF0D950150FE96EDACFEAFFEE504C
:102760001C5C186EEE501D58196EEE501E581A6EF5
:10277000EE501F581B6EFE0EDB50590DF3CFE9FFD4
:10278000F4CFEAFF000EE926070EEA22440EE926FE
:10279000000EEA22EECF20F0EFCF21F0226A236A6A
:1027A0002050185C146E21501958156E22501A587A
:1027B000166E23501B58176E010E14C0DBFF020E5D
:1027C00015C0DBFF030E16C0DBFF040E17C0DBFFD6
:1027D000D950010FE96EDACFEAFFD890030EEB5023
:1027E000000A08E6000EEE5C000EEE58000EEE58F1
:1027F000000EEE5808E2010EDB6A020EDB6A030EE1
:10280000DB6A040EDB6AD950010FE96EDACFEAFF0A
:10281000050EEECFDBFF060EEECFDBFF070EEECF91
:10282000DBFF080EEECFDBFFFE0EDB50590DF3CFC2
:10283000E9FFF4CFEAFF000EE926070EEA22430E75
:10284000E926000EEA22EFCF14F0156A166A176A1D
:10285000D950010FE96EDACFEAFF14C00BF015C0B2
:102860000CF016C00DF017C00EF0EECF06F0EECF54
:1028700007F0EECF08F0EFCF09F05EEC4FF005C0A7
:10288000EDFF04C0EDFF03C0EDFF02C0EFFFFE0E41
:10289000DB50590DF3CFE9FFF4CFEAFF000EE92634
:1028A000070EEA223F0EE926000EEA22EECF14F0D0
:1028B000EFCF15F0166A176AD950010FE96EDACF1B
:1028C000EAFF14C00BF015C00CF016C00DF017C0D5
:1028D0000EF0EECF06F0EECF07F0EECF08F0EFCF20
:1028E00009F0C6EC4CF009C0EDFF08C0EDFF07C0D1
:1028F000EDFF06C0EFFFFE0EDB50590DF3CFE9FFF1
:10290000F4CFEAFF000EE926070EEA22410EE9267F
:10291000000EEA22EECF14F0EFCF15F0166A176A18
:10292000D950050FE96EDACFEAFF14C00BF015C0DD
:102930000CF016C00DF017C00EF0EECF06F0EECF83
:1029400007F0EECF08F0EFCF09F0C6EC4CF009C06D
:10295000EDFF08C0EDFF07C0EDFF06C0EFFF050E5D
:10296000DBCF14F0060EDBCF15F0070EDBCF16F031
:10297000080EDBCF17F0D950010FE96EDACFEAFF6E
:10298000030EEBCFF3FF1750F318E8AE02D0F33489
:1029900008D0EE50145CEE501558EE501658EE501C
:1029A000175811E2D950050FE96EDACFEAFF010E90
:1029B000EECFDBFF020EEECFDBFF030EEECFDBFF31
:1029C000040EEECFDBFF010EDBCF14F0020EDBCFE7
:1029D00015F0D9500F0FE96EDACFEAFF1450EE264A
:1029E0001550ED220F0EDBCF14F0100EDBCF15F0DB
:1029F000FE0EDB50590DF3CFE9FFF4CFEAFF000ED6
:102A0000E926070EEA22490EE926000EEA22EECF59
:102A100016F0EFCF17F01650141802E117501518E2
:102A200049E0FE0EDB50590DF3CFE9FFF4CFEAFF8A
:102A3000000EE926070EEA22490EE926000EEA22D8
:102A40000F0EDBCFEEFF100EDBCFEDFFFE0EDB50E7
:102A5000590DF3CFE9FFF4CFEAFF000EE926070E88
:102A6000EA22490EE926000EEA22EECFE6FFEFCF7A
:102A7000E6FFFE0EDBCFE6FFBFEC1EF0E552E552AF
:102A8000E5520A0EF36E1B0EF3CFDBFF1C0EDB6A62
:102A90001B0EDBCF14F0DB061C0EDBCF15F001E2C2
:102AA000DB061450151006E0080EE66E0FEC51F030
:102AB000E552EED71D0EE15C02E2E16AE552E16EFD
:102AC000E552E7CFD9FF1200D9CFE6FFE1CFD9FF1A
:102AD000140EE126080EDB6A090EDB6A0A0EDB6AB9
:102AE0000B0EDB6AFE0EDB50590DF3CFE9FFF4CF7E
:102AF000EAFF000EE926070EEA22470EE926000E3D
:102B0000EA22EE50ED1009E1040EDB6A050EDB6AE5
:102B1000060EDB6A070EDB6AAFD0FE0EDB50590DE6
:102B2000F3CFE9FFF4CFEAFF000EE926070EEA2211
:102B3000470EE926000EEA22EECF18F0EFCF19F08B
:102B40001A6A1B6AFE0EDB50590DF3CFE9FFF4CF72
:102B5000EAFF000EE926070EEA224B0EE926000ED8
:102B6000EA22EECF14F0EFCF15F0166A176A640E62
:102B70000B6E0C6A0D6A0E6A14C006F015C007F0E1
:102B800016C008F017C009F05EEC4FF002C014F058
:102B900003C015F004C016F005C017F0640E0B6EEC
:102BA0000C6A0D6A0E6A14C006F015C007F016C054
:102BB00008F017C009F05EEC4FF002C014F003C03B
:102BC00015F004C016F005C017F014C006F015C0CB
:102BD00007F016C008F017C009F018C00BF019C0B4
:102BE0000CF01AC00DF01BC00EF0E5EC4FF006C063
:102BF000DEFF07C0DEFF08C0DEFF09C0DDFFDD52DB
:102C0000DD52D9CFE9FFDACFEAFF100EEE5C270ED6
:102C1000EE58000EEE58000EEE580FE3E70EF36E7E
:102C2000040EF3CFDBFF030EF36E050EF3CFDBFFD5
:102C3000060EDB6A070EDB6A1FD0D9CFE9FFDACFB9
:102C4000EAFFEECF06F0EECF07F0EECF08F0EFCFC1
:102C500009F00A0E0B6E0C6A0D6A0E6AE5EC4FF075
:102C6000040E06C0DBFF050E07C0DBFF060E08C022
:102C7000DBFF070E09C0DBFFFE0EDB50590DF3CF63
:102C8000E9FFF4CFEAFF000EE926070EEA22550E0F
:102C9000E926000EEA22EECF14F0EFCF15F0166A07
:102CA000176AD950040FE96EDACFEAFFEE50141814
:102CB00009E1EE50151806E1EE50161803E1EE504A
:102CC000171800E149E0FE0EDB50590DF3CFE9FF84
:102CD000F4CFEAFF000EE926070EEA22550EE92698
:102CE000000EEA22040EDBCFEEFF050EDBCFEDFF78
:102CF000FE0EDB50590DF3CFE9FFF4CFEAFF000ED3
:102D0000E926070EEA22550EE926000EEA22EECF4A
:102D1000E6FFEFCFE6FFFE0EDBCFE6FF45EC1FF050
:102D2000E552E552E5520A0EF36E100EF3CFDBFFCB
:102D3000110EDB6A100EDBCF14F0DB06110EDBCFB9
:102D400015F001E2DB061450151006E0080EE66EE1
:102D50000FEC51F0E552EED7FE0EDB50F00DF3CF45
:102D600018F0F4CF19F0000E1826090E1922FE0EE5
:102D7000DB50590DF3CFE9FFF4CFEAFF000EE9264F
:102D8000070EEA22570EE926000EEA22EF50040D44
:102D90001850F324E96E1950F420EA6E020EE92669
:102DA000000EEA22EECF14F0EFCF15F0166A176A84
:102DB000FE0EDB50F00DF3CF1EF0F4CF1FF0000E2F
:102DC0001E26090E1F22FE0EDB50590DF3CFE9FF20
:102DD000F4CFEAFF000EE926070EEA22580EE92694
:102DE000000EEA22EF50040D1E50F324E96E1F502E
:102DF000F420EA6E020EE926000EEA22EECF1AF067
:102E0000EFCF1BF01C6A1D6A1A50145C066E1B5033
:102E10001558076E1C501658086E1D501758096E2D
:102E2000640E0B6E0C6A0D6A0E6A06C006F007C0CF
:102E300007F008C008F009C009F05EEC4FF002C0CE
:102E400006F003C007F004C008F005C009F0640EE6
:102E50000B6E0C6A0D6A0E6A5EEC4FF002C0DEFF6C
:102E600003C0DEFF04C0DEFF05C0DDFFDD52DD5222
:102E7000FE0EDB50F00DF3CF18F0F4CF19F0000E7A
:102E80001826090E1922FE0EDB50590DF3CFE9FF6B
:102E9000F4CFEAFF000EE926070EEA22570EE926D4
:102EA000000EEA22EF50040D1850F324E96E195079
:102EB000F420EA6EEECF16F0EFCF17F0FE0EDB50E7
:102EC000F00DF3CF1AF0F4CF1BF0000E1A26090E06
:102ED0001B22FE0EDB50590DF3CFE9FFF4CFEAFFC2
:102EE000000EE926070EEA22580EE926000EEA2215
:102EF000EF50040D1A50F324E96E1B50F420EA6ED3
:102F0000EE50165C146EEE501758156E0C0E14C071
:102F1000DBFF0D0E15C0DBFF0E0EDB6A0F0EDB6A4A
:102F20000C0EDBCF14F00D0EDBCF15F00E0EDBCF49
:102F300016F00F0EDBCF17F01450151016101710E7
:102F400009E1080EDB6A090EDB6A0A0EDB6A0B0E6A
:102F5000DB6A67D0D9CFE9FFDACFEAFFEECF14F012
:102F6000EECF15F0EECF16F0EFCF17F014C006F04D
:102F700015C007F016C008F017C009F00C0EDBCF23
:102F80000BF00D0EDBCF0CF00E0EDBCF0DF00F0EA5
:102F9000DBCF0EF0E5EC4FF006C0DEFF07C0DEFF32
:102FA00008C0DEFF09C0DDFFDD52DD52D9CFE9FFE9
:102FB000DACFEAFF100EEE5C270EEE58000EEE5848
:102FC000000EEE580FE3E70EF36E080EF3CFDBFFB3
:102FD000030EF36E090EF3CFDBFF0A0EDB6A0B0E56
:102FE000DB6A1FD0D9CFE9FFDACFEAFFEECF06F0D8
:102FF000EECF07F0EECF08F0EFCF09F00A0E0B6E20
:103000000C6A0D6A0E6AE5EC4FF0080E06C0DBFF95
:10301000090E07C0DBFF0A0E08C0DBFF0B0E09C05C
:10302000DBFFFE0EDB50590DF3CFE9FFF4CFEAFFD3
:10303000000EE926070EEA22530EE926000EEA22C8
:10304000EECF14F0EFCF15F0166A176AD950080FBB
:10305000E96EDACFEAFFEE50141809E1EE501518C8
:1030600006E1EE50161803E1EE50171800E149E0B2
:10307000FE0EDB50590DF3CFE9FFF4CFEAFF000E4F
:10308000E926070EEA22530EE926000EEA22080E70
:10309000DBCFEEFF090EDBCFEDFFFE0EDB50590D4F
:1030A000F3CFE9FFF4CFEAFF000EE926070EEA228C
:1030B000530EE926000EEA22EECFE6FFEFCFE6FF41
:1030C000FE0EDBCFE6FF02EC1FF0E552E552E552C3
:1030D0000A0EF36E120EF3CFDBFF130EDB6A120E35
:1030E000DBCF14F0DB06130EDBCF15F001E2DB06BD
:1030F0001450151006E0080EE66E0FEC51F0E55284
:10310000EED7140EE15C02E2E16AE552E16EE552AF
:10311000E7CFD9FF1200D9CFE6FFE1CFD9FFE652C2
:10312000FC0EDBCFE6FFFD0EDBCFE6FF0DEC4EF035
:10313000E552E552F350DF6EDF28E66EFC0EDBCF82
:10314000E6FFFD0EDBCFE6FF760EE66EFE0EDBCF72
:10315000E6FFAFEC43F0146E050EE15E1450E5524D
:10316000E552E7CFD9FF1200E66A000EE66EE66A86
:10317000750EE66EE66AAFEC43F0146E050EE15E86
:1031800014501200D9CFE6FFE1CFD9FF100EE1268F
:10319000DF6A020EDF5C01E3C0D1DF50590DF3CFCF
:1031A000E9FFF4CFEAFF000EE926070EEA22470EF8
:1031B000E926000EEA22EE6AED6ADF50590DF3CFE0
:1031C000E9FFF4CFEAFF000EE926070EEA224B0ED4
:1031D000E926000EEA22EE6AED6ADF50590DF3CFC0
:1031E000E9FFF4CFEAFF000EE926070EEA22550EAA
:1031F000E926000EEA22EE6AED6ADF50590DF3CFA0
:10320000E9FFF4CFEAFF000EE926070EEA22530E8B
:10321000E926000EEA22EE6AED6ADF50590DF3CF7F
:10322000E9FFF4CFEAFF000EE926070EEA22440E7A
:10323000E926000EEA22EE6AED6A010EDB6A140E40
:10324000F36E010EDBCFF4FFF350F45C33E2DF509A
:10325000780DF3CF14F0F4CF15F0000E14260B0EFA
:103260001522010EDB50060D1450F324E96E1550A3
:10327000F420EA6EEE6AED6ADF50780DF3CF14F0B9
:10328000F4CF15F0000E14260B0E1522010EDB50A4
:10329000060D1450F324E96E1550F420EA6E020E68
:1032A000E926000EEA22EE6AEE6AEE6AEE6A010E86
:1032B000DB2AC5D7DF50590DF3CFE9FFF4CFEAFF82
:1032C000000EE926070EEA22460EE926000EEA2243
:1032D000EF6A010EDB6A3C0EF36E010EDBCFF4FFEA
:1032E000F350F45C31E2DF50F00DF3CF14F0F4CF83
:1032F00015F0000E1426090E1522010EDB50040DE8
:103300001450F324E96E1550F420EA6EEE6AED6A6B
:10331000DF50F00DF3CF14F0F4CF15F0000E1426AB
:10332000090E1522010EDB50040D1450F324E96E32
:103330001550F420EA6E020EE926000EEA22EE6A2B
:10334000ED6A010EDB2AC7D7DF50590DF3CFE9FF35
:10335000F4CFEAFF000EE926070EEA22570EE9260F
:10336000000EEA223B0EEF6EDF50590DF3CFE9FF5E
:10337000F4CFEAFF000EE926070EEA22580EE926EE
:10338000000EEA22EF6ADF50590DF3CFE9FFF4CFC8
:10339000EAFF000EE926070EEA22470EE926000E94
:1033A000EA22EECFE6FFEFCFE6FFDFCFE6FF7CECD1
:1033B0001EF0E552E552E5520A0EF36E020EF3CF0F
:1033C000DBFF030EDB6A020EDBCF14F0DB06030E1D
:1033D000DBCF15F001E2DB061450151006E0080EF5
:1033E000E66E0FEC51F0E552EED7DF50590DF3CFFA
:1033F000E9FFF4CFEAFF000EE926070EEA224B0EA2
:10340000E926000EEA22EECFE6FFEFCFE6FFDFCFA0
:10341000E6FF39EC1EF0E552E552E5520A0EF36E76
:10342000040EF3CFDBFF050EDB6A040EDBCF14F0D6
:10343000DB06050EDBCF15F001E2DB06145015109C
:1034400006E0080EE66E0FEC51F0E552EED7DF50C5
:10345000590DF3CFE9FFF4CFEAFF000EE926070E7E
:10346000EA22550EE926000EEA22EECFE6FFEFCF64
:10347000E6FFDFCFE6FF02EC1FF0E552E552E55232
:103480000A0EF36E060EF3CFDBFF070EDB6A060EA5
:10349000DBCF14F0DB06070EDBCF15F001E2DB0615
:1034A0001450151006E0080EE66E0FEC51F0E552D0
:1034B000EED7DF50590DF3CFE9FFF4CFEAFF000E4E
:1034C000E926070EEA22530EE926000EEA22EECF85
:1034D000E6FFEFCFE6FFDFCFE6FF45EC1FF0E5525A
:1034E000E552E5520A0EF36E080EF3CFDBFF090E2C
:1034F000DB6A080EDBCF14F0DB06090EDBCF15F01C
:1035000001E2DB061450151006E0080EE66E0FEC23
:1035100051F0E552EED7DF2A3CD6FE0EDB040A0D51
:10352000F3CFE9FFF4CFEAFF440EE926080EEA22C2
:10353000080EE926000EEA22EE6AED6A0701B205DE
:1035400034E10701B2050A0DF3CFE9FFF4CFEAFF3A
:10355000440EE926080EEA22080EE926000EEA22A9
:10356000EECFE6FFEFCFE6FFDFCFE6FF88EC1FF000
:10357000E552E552E5520A0EF36E0A0EF3CFDBFF79
:103580000B0EDB6A0A0EDBCF14F0DB060B0EDBCF73
:1035900015F001E2DB061450151006E0080EE66E89
:1035A0000FEC51F0E552EED76BD0020E0701B25D81
:1035B00034E10701B2050A0DF3CFE9FFF4CFEAFFCA
:1035C000440EE926080EEA22080EE926000EEA2239
:1035D000EECFE6FFEFCFE6FFDFCFE6FFC9EC1FF04F
:1035E000E552E552E5520A0EF36E0C0EF3CFDBFF07
:1035F0000D0EDB6A0C0EDBCF14F0DB060D0EDBCFFD
:1036000015F001E2DB061450151006E0080EE66E18
:103610000FEC51F0E552EED733D00701B2050A0D99
:10362000F3CFE9FFF4CFEAFF440EE926080EEA22C1
:10363000080EE926000EEA22EECFE6FFEFCFE6FF06
:10364000DFCFE6FF0AEC20F0E552E552E5520A0E24
:10365000F36E0E0EF3CFDBFF0F0EDB6A0E0EDBCF29
:1036600014F0DB060F0EDBCF15F001E2DB06145081
:10367000151006E0080EE66E0FEC51F0E552EED79D
:10368000100EE15C02E2E16AE552E16EE552E7CF3D
:10369000D9FF1200D9CFE6FFE1CFD9FF040EE12612
:1036A000FB0EDBCF18F0FC0EDBCF19F0FD0EDBCFED
:1036B0001AF0FE0EDBCF1BF03C0E0B6E0C6A0D6A8F
:1036C0000E6A18C006F019C007F01AC008F01BC037
:1036D00009F05EEC4FF002C018F003C019F004C00E
:1036E0001AF005C01BF03C0E0B6E0C6A0D6A0E6AD8
:1036F00018C006F019C007F01AC008F01BC009F086
:103700005EEC4FF002C018F003C019F004C01AF0CC
:1037100005C01BF0F70EDBCF1CF0F80EDBCF1DF061
:10372000F90EDBCF1EF0FA0EDBCF1FF03C0E0B6E56
:103730000C6A0D6A0E6A1CC006F01DC007F01EC0A0
:1037400008F01FC009F05EEC4FF002C01CF003C08F
:103750001DF004C01EF005C01FF01C5018261D509F
:1037600019221E501A221F501B2218C0E6FF19C032
:10377000E6FF1AC0E6FF1BC0E6FF6CEC3DF0E55229
:10378000E7CF1BF0E552E7CF1AF0E552E7CF19F08B
:10379000E552E7CF18F000011850065C146E0001E6
:1037A00019500758156E00011A500858166E00017E
:1037B0001B500958176E14C0DFFF010E15C0DBFF48
:1037C000020E16C0DBFF030E17C0DBFFD9CFE9FFE7
:1037D000DACFEAFFD890030EEB50000A08E6000E9D
:1037E000EE5C000EEE58000EEE58000EEE581FE292
:1037F000800E146E510E156E010E166E176AD9CF1B
:10380000E9FFDACFEAFFEE501426EE501522EE5013
:103810001622EE50172214C0DFFF010E15C0DBFF89
:10382000020E16C0DBFF030E17C0DBFF0FD0D9CF8F
:10383000E9FFDACFEAFFEECFDFFF010EEECFDBFFCD
:10384000020EEECFDBFF030EEECFDBFFDECF06F086
:10385000DECF07F0DECF08F0DDCF09F0DD52DD521C
:1038600000D0040EE15C02E2E16AE552E16EE5524D
:10387000E7CFD9FF1200D9CFE6FFE1CFD9FFD9506A
:10388000FB0FE96EFF0EDA20EA6E08014851EE5C8C
:1038900008014951EE5808014A51EE5808014B51B0
:1038A000EE5803E2010E19D018D0D950FB0FE96E83
:1038B000FF0EDA20EA6E08015251EE5C0801535106
:1038C000EE5808015451EE5808015551EE5803E2E4
:1038D000020E03D002D0030E00D0E552E7CFD9FF8D
:1038E0001200D9CFE6FFE1CFD9FFE652FB0EDBCFC6
:1038F00014F0FC0EDBCF15F00001800E151423E050
:10390000DF6ADFCF14F0FA0EDB50E76E1418E8AE72
:1039100002D0E73402D0E750145C11E2DFCF14F09C
:10392000156A14BE1568FD0EDB501424E96EFE0EF8
:10393000DB501520EA6E200EEF6EDF2AE2D7FA0E7A
:10394000DB508CD088D0D950FB0FE96EFF0EDA2007
:10395000EA6EEE50ED1023E1DF6ADFCF14F0FA0ECD
:10396000DB50E76E1418E8AE02D0E73402D0E7501F
:10397000145C11E2DFCF14F0156A14BE1568FD0E59
:10398000DB501424E96EFE0EDB501520EA6E300E7B
:10399000EF6EDF2AE2D7FA0EDB5060D05CD0FA0E71
:1039A000DB50DF6EDF06DFCF14F0143454E2D95061
:1039B000FB0FE96EFF0EDA20EA6EEE50ED1010E11B
:1039C000DFCF14F0156A14BE1568FD0EDB50142409
:1039D000E96EFE0EDB501520EA6E200EEF6E26D04B
:1039E000FB0EDBCF16F0FC0EDBCF17F00A0E0D6ED0
:1039F0000E6A16C008F017C009F0A0EC4CF004C025
:103A000016F005C017F0300E1626000E1722DFCF75
:103A100014F0156A14BE1568FD0EDB501424E96E0F
:103A2000FE0EDB501520EA6E16C0EFFFD950FB0FDB
:103A3000E96EFF0EDA20EA6E0A0E0D6E0E6AEECF08
:103A400008F0EDCF09F0A0EC4CF008C0EEFF09C083
:103A5000EDFFDF06A8D7FA0EDB5000D0E552E552A5
:103A6000E7CFD9FF1200D9CFE6FFE1CFD9FFE65269
:103A7000FB0EDBCF14F0FC0EDBCF15F00001800E47
:103A8000151423E0DF6ADFCF14F0FA0EDB50E76E87
:103A90001418E8AE02D0E73402D0E750145C11E20B
:103AA000DFCF14F0156A14BE1568FD0EDB50142428
:103AB000E96EFE0EDB501520EA6E300EEF6EDF2A47
:103AC000E2D7FA0EDB508CD088D0D950FB0FE96ECC
:103AD000FF0EDA20EA6EEE50ED1023E1DF6ADFCF51
:103AE00014F0FA0EDB50E76E1418E8AE02D0E7349B
:103AF00002D0E750145C11E2DFCF14F0156A14BE57
:103B00001568FD0EDB501424E96EFE0EDB50152007
:103B1000EA6E300EEF6EDF2AE2D7FA0EDB5060D08D
:103B20005CD0FA0EDB50DF6EDF06DFCF14F014340A
:103B300054E2D950FB0FE96EFF0EDA20EA6EEE5028
:103B4000ED1010E1DFCF14F0156A14BE1568FD0EFC
:103B5000DB501424E96EFE0EDB501520EA6E300EA9
:103B6000EF6E26D0FB0EDBCF16F0FC0EDBCF17F08E
:103B70000A0E0D6E0E6A16C008F017C009F0A0EC10
:103B80004CF004C016F005C017F0300E1626000EDB
:103B90001722DFCF14F0156A14BE1568FD0EDB5036
:103BA0001424E96EFE0EDB501520EA6E16C0EFFFFE
:103BB000D950FB0FE96EFF0EDA20EA6E0A0E0D6E89
:103BC0000E6AEECF08F0EDCF09F0A0EC4CF008C083
:103BD000EEFF09C0EDFFDF06A8D7FA0EDB5000D0DC
:103BE000E552E552E7CFD9FF1200D9CFE6FFE1CF8A
:103BF000D9FF060EE126010EDB6AD950020FE96EED
:103C0000DACFEAFFEE6AEE6AEE6A040EE66EFC0EAA
:103C1000DBCFE6FFFD0EDBCFE6FFD950010FE66EEE
:103C2000000EDA20E66E5DDE146E050EE15E1450C5
:103C3000E76E050EE7CFDBFF040EE66ED950010FED
:103C4000E66E000EDA20E66EB00EE66EFE0EDBCFFC
:103C5000E6FFAFEC43F0146E050EE15E1450060E65
:103C6000E15C02E2E16AE552E16EE552E7CFD9FF9D
:103C70001200D9CFE6FFE1CFD9FF050EE126010EF4
:103C8000DB6AD950020FE96EDACFEAFFEE6AEE6A1C
:103C9000030EE66EFC0EDBCFE6FFFD0EDBCFE6FF8C
:103CA000D950010FE66E000EDA20E66E1ADE146EB1
:103CB000050EE15E1450E76E040EE7CFDBFF030E46
:103CC000E66ED950010FE66E000EDA20E66EB20EF7
:103CD000E66EFE0EDBCFE6FFAFEC43F0146E050E92
:103CE000E15E1450050EE15C02E2E16AE552E16E2C
:103CF000E552E7CFD9FF1200D9CFE6FFE1CFD9FFD8
:103D0000050EE126010EDB6AD950020FE96EDACF0B
:103D1000EAFFEE6AEE6A030EE66EFC0EDBCFE6FF0C
:103D2000FD0EDBCFE6FFD950010FE66E000EDA2064
:103D3000E66ED7DD146E050EE15E1450E76E040EDC
:103D4000E7CFDBFF030EE66ED950010FE66E000EE3
:103D5000DA20E66EB10EE66EFE0EDBCFE6FFAFECCC
:103D600043F0146E050EE15E1450050EE15C02E2B4
:103D7000E16AE552E16EE552E7CFD9FF1200D9CFF3
:103D8000E6FFE1CFD9FF050EE126010EDB6AD9502F
:103D9000020FE96EDACFEAFFEE6AEE6A030EE66E14
:103DA000FC0EDBCFE6FFFD0EDBCFE6FFD950010FA7
:103DB000E66E000EDA20E66E94DD146E050EE15E0E
:103DC0001450E76E040EE7CFDBFF030EE66ED9500A
:103DD000010FE66E000EDA20E66EB90EE66EFE0EFC
:103DE000DBCFE6FFAFEC43F0146E050EE15E14503E
:103DF000050EE15C02E2E16AE552E16EE552E7CFD1
:103E0000D9FF1200D9CFE6FFE1CFD9FF050EE12699
:103E1000010EDB6AD950020FE96EDACFEAFFEE6AD3
:103E2000EE6A030EE66EFC0EDBCFE6FFFD0EDBCF87
:103E3000E6FFD950010FE66E000EDA20E66E51DD86
:103E4000146E050EE15E1450E76E040EE7CFDBFF43
:103E5000030EE66ED950010FE66E000EDA20E66E14
:103E6000B30EE66EFE0EDBCFE6FFAFEC43F0146E52
:103E7000050EE15E1450050EE15C02E2E16AE552D6
:103E8000E16EE552E7CFD9FF1200D9CFE6FFE1CFCF
:103E9000D9FF050EE126010EDB6AD950020FE96E4B
:103EA000DACFEAFFEE6AEE6A030EE66EFC0EDBCFB7
:103EB000E6FFFD0EDBCFE6FFD950010FE66E000EE8
:103EC000DA20E66E0EDD146E050EE15E1450E76E2C
:103ED000040EE7CFDBFF030EE66ED950010FE66E4E
:103EE000000EDA20E66EB40EE66EFE0EDBCFE6FFC5
:103EF000AFEC43F0146E050EE15E1450050EE15C6C
:103F000002E2E16AE552E16EE552E7CFD9FF120025
:103F1000D9CFE6FFE1CFD9FF050EE126010EDB6A1E
:103F2000D950020FE96EDACFEAFFEE6AEE6A030EAD
:103F3000E66EFC0EDBCFE6FFFD0EDBCFE6FFD950D1
:103F4000010FE66E000EDA20E66ECBDC146E050E75
:103F5000E15E1450E76E040EE7CFDBFF030EE66E62
:103F6000D950010FE66E000EDA20E66EB50EE66E51
:103F7000E66AAFEC43F0146E050EE15E1450050ED8
:103F8000E15C02E2E16AE552E16EE552E7CFD9FF7A
:103F90001200D9CFE6FFE1CFD9FF050EE126010ED1
:103FA000DB6AD950020FE96EDACFEAFFEE6AEE6AF9
:103FB000030EE66EFC0EDBCFE6FFFD0EDBCFE6FF69
:103FC000D950010FE66E000EDA20E66E8ADC146E20
:103FD000050EE15E1450E76E040EE7CFDBFF030E23
:103FE000E66ED950010FE66E000EDA20E66EB60ED0
:103FF000E66EE66AAFEC43F0146E050EE15E145017
:10400000050EE15C02E2E16AE552E16EE552E7CFBE
:10401000D9FF1200D9CFE6FFE1CFD9FF050EE12687
:10402000010EDB6AD950020FE96EDACFEAFFEE6AC1
:10403000EE6A030EE66EFC0EDBCFE6FFFD0EDBCF75
:10404000E6FFD950010FE66E000EDA20E66E49DC7D
:10405000146E050EE15E1450E76E040EE7CFDBFF31
:10406000030EE66ED950010FE66E000EDA20E66E02
:10407000B50EE66E010EE66EAFEC43F0146E050E63
:10408000E15E1450050EE15C02E2E16AE552E16E88
:10409000E552E7CFD9FF1200D9CFE6FFE1CFD9FF34
:1040A000FE0EDB5003E18790879205D0FE0EDB0405
:1040B00002E187948796FE0EDB50590DF3CFE9FF9E
:1040C000F4CFEAFF000EE926070EEA224D0EE9269C
:1040D000000EEA22EF6AE552E7CFD9FF1200D9CFEE
:1040E000E6FFE1CFD9FFFE0EDB501EE1FE0EDB50F6
:1040F000590DF3CFE9FFF4CFEAFF000EE926070ED2
:10410000EA22530EE926000EEA22EECF14F0EFCF9A
:1041100015F0200E145C030E155803E38790878278
:1041200002D0878087921DD0FE0EDB50590DF3CF51
:10413000E9FFF4CFEAFF000EE926070EEA22530E4C
:10414000E926000EEA22EECF14F0EFCF15F0200E94
:10415000145C030E155803E38794878602D0878486
:104160008796E552E7CFD9FF1200D9CFE6FFE1CF1E
:10417000D9FFD950FA0FE96EFF0EDA20EA6EEFCFC1
:10418000F6FFEE2AEFCFF7FF000EEE22EFCFF8FF9B
:10419000000EEE220800F550E66EFD0EDBCFE9FFC3
:1041A000DB2AFE0EDBCFEAFF01E3DB2AE552E75014
:1041B000EF6E01E0DED7E552E7CFD9FF1200D9CF8D
:1041C000E6FFE1CFD9FF050EE126FE0EDB503F0DE5
:1041D000DE52F3CFDEFFF4CFDDFFDD52FE0EDB500B
:1041E000590DF3CF14F0F4CF15F0000E1426070E7E
:1041F0001522030E14C0DBFF040E15C0DBFFDF6ABF
:10420000DF50146E156A3F0E145C000E155823E241
:1042100065EC51F0030EDBCFE9FFDB2A040EDBCFA8
:10422000EAFF01E3DB2AEF50E66E010EDBCF14F06C
:10423000DB2A020EDBCF15F001E3DB2A14C0E6FF18
:1042400015C0E6FFE7EC4EF0E552E552E55265ECAD
:1042500051F0DF2AD5D77E0EF36E010EF3CFDBFFD0
:10426000020EDB6AD950030FE96EDACFEAFFB20E15
:10427000EE6E070EED6EDF6ADF50146E156A080EE3
:10428000145C000E155823E265EC51F0030EDBCFF1
:10429000E9FFDB2A040EDBCFEAFF01E3DB2AEF5064
:1042A000E66E010EDBCF14F0DB2A020EDBCF15F039
:1042B00001E3DB2A14C0E6FF15C0E6FFE7EC4EF091
:1042C000E552E552E55265EC51F0DF2AD5D7050EEF
:1042D000E15C02E2E16AE552E16EE552E7CFD9FF27
:1042E0001200D9CFE6FFE1CFD9FF050EE126420E3D
:1042F000F36E010EF3CFDBFF020EDB6AFE0EDB5026
:10430000590DF3CFE9FFF4CFEAFF000EE926070EBF
:10431000EA22440EE926000EEA22E9CF14F0EACFA1
:1043200015F0030E14C0DBFF040E15C0DBFFDF6ABF
:10433000DF50146E156A020E145C000E155823E24D
:1043400065EC51F0030EDBCFE9FFDB2A040EDBCF77
:10435000EAFF01E3DB2AEF50E66E010EDBCF14F03B
:10436000DB2A020EDBCF15F001E3DB2A14C0E6FFE7
:1043700015C0E6FFE7EC4EF0E552E552E55265EC7C
:1043800051F0DF2AD5D7050EE15C02E2E16AE55281
:0A439000E16EE552E7CFD9FF1200FD
:06439A00D9CFE6FFE1CFE0
:1043A000D9FFE652FE0EDBCFE6FF010EF36EFD0EE7
:1043B000DB5004E0D890F336E806FCE1F350E55218
:1043C000E71402E0010E01D0000EDF6EDF5000D0D6
:1043D000E552E552E7CFD9FF1200D9CFE6FFE1CF92
:1043E000D9FF010EF36EFC0EDB5004E0D890F336DB
:1043F000E806FCE1F350146EFD0EDBCFE9FFFE0E84
:10440000DBCFEAFF1450EF12E552E7CFD9FF1200DD
:10441000D9CFE6FFE1CFD9FF010EF36EFC0EDB50E2
:1044200004E0D890F336E806FCE1F350E81C146E83
:10443000FD0EDBCFE9FFFE0EDBCFEAFF1450EF16D7
:10444000E552E7CFD9FF1200D9CFE6FFE1CFD9FF80
:10445000030EE126DF6A020EDF5C01E3A5D1DF284F
:10446000E66EDF50E96EEA6A5D0EEA02F3CFEAFF1C
:10447000E950EA265D0EE902F3CFE9FFF450EA269F
:10448000000EE926030EEA22E552E750EF6EDF50F8
:10449000E96EEA6A5D0EEA02F3CFEAFFE950EA2626
:1044A0005D0EE902F3CFE9FFF450EA26000EE9269B
:1044B000030EEA22EE52EF6ADF50E96EEA6A5D0E01
:1044C000EA02F3CFEAFFE950EA265D0EE902F3CFF4
:1044D000E9FFF450EA26000EE926030EEA22030E55
:1044E000E926000EEA22EE6AED6ADF50E96EEA6A1A
:1044F0005D0EEA02F3CFEAFFE950EA265D0EE9021B
:10450000F3CFE9FFF450EA26000EE926030EEA2273
:10451000050EE926000EEA22EF6ADF50E96EEA6A2C
:104520005D0EEA02F3CFEAFFE950EA265D0EE902EA
:10453000F3CFE9FFF450EA26000EE926030EEA2243
:10454000060EE926000EEA22EF6ADF50E96EEA6AFB
:104550005D0EEA02F3CFEAFFE950EA265D0EE902BA
:10456000F3CFE9FFF450EA26000EE926030EEA2213
:10457000090EE926000EEA22EF6ADF50E96EEA6AC8
:104580005D0EEA02F3CFEAFFE950EA265D0EE9028A
:10459000F3CFE9FFF450EA26000EE926030EEA22E3
:1045A0000A0EE926000EEA22EF6ADF50E96EEA6A97
:1045B0005D0EEA02F3CFEAFFE950EA265D0EE9025A
:1045C000F3CFE9FFF450EA26000EE926030EEA22B3
:1045D000070EE926000EEA22EF6ADF50E96EEA6A6A
:1045E0005D0EEA02F3CFEAFFE950EA265D0EE9022A
:1045F000F3CFE9FFF450EA26000EE926030EEA2283
:104600000B0EE926000EEA22EF6ADF50E96EEA6A35
:104610005D0EEA02F3CFEAFFE950EA265D0EE902F9
:10462000F3CFE9FFF450EA26000EE926030EEA2252
:104630000C0EE926000EEA22EF6ADF50E96EEA6A04
:104640005D0EEA02F3CFEAFFE950EA265D0EE902C9
:10465000F3CFE9FFF450EA26000EE926030EEA2222
:10466000080EE926000EEA22EF6ADF50E96EEA6AD8
:104670005D0EEA02F3CFEAFFE950EA265D0EE90299
:10468000F3CFE9FFF450EA26000EE926030EEA22F2
:10469000020EE926000EEA22EF6ADE52700EDD6E8F
:1046A000010EDBCFE6FFE66AE66ADF50E96EEA6AF2
:1046B0005D0EEA02F3CFEAFFE950EA265D0EE90259
:1046C000F3CFE9FFF450EA26000EE926030EEA22B2
:1046D000ED0EE926000EEA22E9CF14F0EACF15F03C
:1046E00014C0E6FF15C0E6FFD2EC4DF0166E050EC5
:1046F000E15E1650010EDBCFE6FFE66AE66ADF50A8
:10470000E96EEA6A5D0EEA02F3CFEAFFE950EA26B3
:104710005D0EE902F3CFE9FFF450EA26000EE92628
:10472000030EEA220D0EE926000EEA22E9CF14F06C
:10473000EACF15F014C0E6FF15C0E6FFD2EC4DF04D
:10474000166E050EE15E1650010EDBCFE6FFE66A3F
:10475000E66ADF50E96EEA6A5D0EEA02F3CFEAFF2D
:10476000E950EA265D0EE902F3CFE9FFF450EA26AC
:10477000000EE926030EEA220D0EE926000EEA22BB
:10478000E9CF14F0EACF15F0700E1426000E1522B2
:1047900014C0E6FF15C0E6FFD2EC4DF0166E050E14
:1047A000E15E1650DF2A57D6030EE15C02E2E16AB1
:1047B000E552E16EE552E7CFD9FF1200D9CFE6FF0F
:1047C000E1CFD9FF070EE126020EF36EFE0EDBCF1E
:1047D000F4FFF350F45C1EE2FC0EDBCFE9FFFD0EAC
:1047E000DBCFEAFFEF50146E156AD890155004E63F
:1047F000800E145C000E15580DE2FC0EDBCFE9FFB5
:10480000FD0EDBCFEAFF020EE926000EEA22EE5093
:10481000ED1003E1000E26EF29F0FE0EDB50E96EED
:10482000EA6A5D0EEA02F3CFEAFFE950EA265D0E7E
:10483000E902F3CFE9FFF450EA26000EE926030E61
:10484000EA22EE52E9CF14F0EACF15F0050E14C0BB
:10485000DBFF060E15C0DBFFFC0EDBCFE9FFFD0E14
:10486000DBCFEAFFEECF14F0EECF15F0EECF16F06F
:10487000EECF17F0EECF18F0EFCF19F0050EDBCF2B
:10488000E9FF060EDBCFEAFF14C0EEFF15C0EEFF16
:1048900016C0EEFF17C0EEFF18C0EEFF19C0EEFF06
:1048A000FE0EDB50E96EEA6A5D0EEA02F3CFEAFF24
:1048B000E950EA265D0EE902F3CFE9FFF450EA265B
:1048C000000EE926030EEA22060EE926000EEA2271
:1048D000EF50E66EFE0EDB50E96EEA6A5D0EEA020C
:1048E000F3CFEAFFE950EA265D0EE902F3CFE9FFD4
:1048F000F450EA26000EE926030EEA22070EE92606
:10490000000EEA22E552E750EF6E700EDF6EDFCF49
:10491000E6FFE66AE66AFE0EDB50E96EEA6A5D0EC5
:10492000EA02F3CFEAFFE950EA265D0EE902F3CF8F
:10493000E9FFF450EA26000EE926030EEA22ED0E06
:10494000E926000EEA22E9CF14F0EACF15F014C0F0
:10495000E6FF15C0E6FFD2EC4DF0166E050EE15EE7
:104960001650DFCFE6FFE66AE66AFE0EDB50E96E20
:10497000EA6A5D0EEA02F3CFEAFFE950EA265D0E2D
:10498000E902F3CFE9FFF450EA26000EE926030E10
:10499000EA220D0EE926000EEA22E9CF14F0EACF52
:1049A00015F014C0E6FF15C0E6FFD2EC4DF0166E10
:1049B000050EE15E1650DFCFE6FFE66AE66AFE0E00
:1049C000DB50E96EEA6A5D0EEA02F3CFEAFFE950D6
:1049D000EA265D0EE902F3CFE9FFF450EA26000E65
:1049E000E926030EEA220D0EE926000EEA22E9CF9F
:1049F00014F0EACF15F0700E1426000E152214C024
:104A0000E6FF15C0E6FFD2EC4DF0166E050EE15E36
:104A10001650FE0EDB50E96EEA6A5D0EEA02F3CF35
:104A2000EAFFE950EA265D0EE902F3CFE9FFF45010
:104A3000EA26000EE926030EEA22060EE926000EFB
:104A4000EA22EF5001E0F4D1FE0EDB50E96EEA6A93
:104A50005D0EEA02F3CFEAFFE950EA265D0EE902B5
:104A6000F3CFE9FFF450EA26000EE926030EEA220E
:104A7000080EE926000EEA22EF6ADF6AFE0EDB501E
:104A8000E96EEA6A5D0EEA02F3CFEAFFE950EA2630
:104A90005D0EE902F3CFE9FFF450EA26000EE926A5
:104AA000030EEA22020EE926000EEA22EF50DF5C36
:104AB00001E3BDD1FE0EDB50E96EEA6A5D0EEA024B
:104AC000F3CFEAFFE950EA265D0EE902F3CFE9FFF2
:104AD000F450EA26000EE926030EEA22080EE92623
:104AE000000EEA22EF50EF2A146E156AFE0EDB501C
:104AF000E96EEA6A5D0EEA02F3CFEAFFE950EA26C0
:104B00005D0EE902F3CFE9FFF450EA26000EE92634
:104B1000030EEA22030EE926000EEA221450EE24C8
:104B2000E76E1550EE20EA6EE7CFE9FFEF50E00F99
:104B3000E76E040EE7CFDBFF040EDBCF14F0143476
:104B40000EE2040EDBCF15F0630EE76E1518E8AE2B
:104B500002D0153403D0E750D880155402E2040E79
:104B6000DB6AFE0EDB50E96EEA6A5D0EEA02F3CF05
:104B7000EAFFE950EA265D0EE902F3CFE9FFF450BF
:104B8000EA26000EE926030EEA22080EE926000EA8
:104B9000EA22EFCF14F0FE0EDB50E96EEA6A5D0EFA
:104BA000EA02F3CFEAFFE950EA265D0EE902F3CF0D
:104BB000E9FFF450EA26000EE926030EEA22050E6C
:104BC000E926000EEA22EF50145C19E3FE0EDB50DA
:104BD000E96EEA6A5D0EEA02F3CFEAFFE950EA26DF
:104BE0005D0EE902F3CFE9FFF450EA26000EE92654
:104BF000030EEA22080EE926000EEA22EF6A010EF1
:104C0000DB6A070EF36E010EDBCFF4FFF350F45CAA
:104C100001E30BD1040EDBCF18F0196A18BE196836
:104C2000030ED89018361936E806FBE1AA0E1826AE
:104C3000890E1922010EDB500F011824F66E000EAA
:104C40001920F76E0800F550E66EFE0EDB50E96E97
:104C5000EA6A5D0EEA02F3CFEAFFE950EA265D0E4A
:104C6000E902F3CFE9FFF450EA26000EE926030E2D
:104C7000EA22ED0EE926000EEA22E9CF16F0EACF8D
:104C800017F0010EDB50100D1650F324146E175060
:104C9000F420156EDF500F011424E96E000E15206C
:104CA000EA6EE552E750EF6EFE0EDB50E96EEA6AFF
:104CB0005D0EEA02F3CFEAFFE950EA265D0EE90253
:104CC000F3CFE9FFF450EA26000EE926030EEA22AC
:104CD000ED0EE926000EEA22E9CF1AF0EACF1BF02A
:104CE000010EDB50100D1A50F324186E1B50F420E7
:104CF000196EDF500F011824E96E000E1920EA6EBC
:104D0000EF50E66EFE0EDB50E96EEA6A5D0EEA02D7
:104D1000F3CFEAFFE950EA265D0EE902F3CFE9FF9F
:104D2000F450EA26000EE926030EEA220D0EE926CB
:104D3000000EEA22E9CF16F0EACF17F0010EDB50A1
:104D4000100D1650F324146E1750F420156EDF501A
:104D50000F011424E96E000E1520EA6EE552E750AB
:104D6000EF6EFE0EDB50E96EEA6A5D0EEA02F3CFEB
:104D7000EAFFE950EA265D0EE902F3CFE9FFF450BD
:104D8000EA26000EE926030EEA22ED0EE926000EC1
:104D9000EA22E9CF1AF0EACF1BF0010EDB50100D2A
:104DA0001A50F324186E1B50F420196EDF500F01B7
:104DB0001824E96E000E1920EA6EEF50E66EFE0E22
:104DC000DB50E96EEA6A5D0EEA02F3CFEAFFE950D2
:104DD000EA265D0EE902F3CFE9FFF450EA26000E61
:104DE000E926030EEA220D0EE926000EEA22E9CF9B
:104DF00016F0EACF17F0700E1626000E1722010EDD
:104E0000DB50100D1650F324146E1750F420156E5D
:104E1000DF500F011424E96E000E1520EA6EE552F2
:104E2000E750EF6E010EDB2AECD6DF2A27D6F3D14E
:104E3000FE0EDB50E96EEA6A5D0EEA02F3CFEAFF8E
:104E4000E950EA265D0EE902F3CFE9FFF450EA26C5
:104E5000000EE926030EEA22080EE926000EEA22D9
:104E6000EF6ADF6AFE0EDB50E96EEA6A5D0EEA0267
:104E7000F3CFEAFFE950EA265D0EE902F3CFE9FF3E
:104E8000F450EA26000EE926030EEA22020EE92675
:104E9000000EEA22EF50DF5C01E3BDD1FE0EDB50D5
:104EA000E96EEA6A5D0EEA02F3CFEAFFE950EA260C
:104EB0005D0EE902F3CFE9FFF450EA26000EE92681
:104EC000030EEA22080EE926000EEA22EF50EF2A2E
:104ED000146E156AFE0EDB50E96EEA6A5D0EEA0298
:104EE000F3CFEAFFE950EA265D0EE902F3CFE9FFCE
:104EF000F450EA26000EE926030EEA22030EE92604
:104F0000000EEA221450EE24E76E1550EE20EA6EF1
:104F1000E7CFE9FFEF50E00FE76E040EE7CFDBFFCE
:104F2000040EDBCF14F014340EE2040EDBCF15F0C8
:104F3000630EE76E1518E8AE02D0153403D0E750C3
:104F4000D880155402E2040EDB6AFE0EDB50E96ED7
:104F5000EA6A5D0EEA02F3CFEAFFE950EA265D0E47
:104F6000E902F3CFE9FFF450EA26000EE926030E2A
:104F7000EA22080EE926000EEA22EFCF14F0FE0E18
:104F8000DB50E96EEA6A5D0EEA02F3CFEAFFE95010
:104F9000EA265D0EE902F3CFE9FFF450EA26000E9F
:104FA000E926030EEA22050EE926000EEA22EF505A
:104FB000145C19E3FE0EDB50E96EEA6A5D0EEA024C
:104FC000F3CFEAFFE950EA265D0EE902F3CFE9FFED
:104FD000F450EA26000EE926030EEA22080EE9261E
:104FE000000EEA22EF6A010EDB6A070EF36E010E75
:104FF000DBCFF4FFF350F45C01E30BD1040EDBCF05
:1050000018F0196A18BE1968030ED89018361936A8
:10501000E806FBE1AA0E1826890E1922010EDB50C4
:105020000F011824F66E000E1920F76E0800F550D7
:10503000E66EFE0EDB50E96EEA6A5D0EEA02F3CF21
:10504000EAFFE950EA265D0EE902F3CFE9FFF450EA
:10505000EA26000EE926030EEA22ED0EE926000EEE
:10506000EA22E9CF16F0EACF17F0010EDB50100D5F
:105070001650F324146E1750F420156EDF500F01F4
:105080001424E96E000E1520EA6EE552E750EF6E2B
:10509000FE0EDB50E96EEA6A5D0EEA02F3CFEAFF2C
:1050A000E950EA265D0EE902F3CFE9FFF450EA2663
:1050B000000EE926030EEA22ED0EE926000EEA2292
:1050C000E9CF1AF0EACF1BF0010EDB50100D1A5099
:1050D000F324186E1B50F420196EDF500F011824B2
:1050E000E96E000E1920EA6EEF50E66EFE0EDB5000
:1050F000E96EEA6A5D0EEA02F3CFEAFFE950EA26BA
:105100005D0EE902F3CFE9FFF450EA26000EE9262E
:10511000030EEA220D0EE926000EEA22E9CF16F070
:10512000EACF17F0010EDB50100D1650F324146E69
:105130001750F420156EDF500F011424E96E000E95
:105140001520EA6EE552E750EF6EFE0EDB50E96E79
:10515000EA6A5D0EEA02F3CFEAFFE950EA265D0E45
:10516000E902F3CFE9FFF450EA26000EE926030E28
:10517000EA22ED0EE926000EEA22E9CF1AF0EACF84
:105180001BF0010EDB50100D1A50F324186E1B504B
:10519000F420196EDF500F011824E96E000E19205B
:1051A000EA6EEF50E66EFE0EDB50E96EEA6A5D0EC7
:1051B000EA02F3CFEAFFE950EA265D0EE902F3CFF7
:1051C000E9FFF450EA26000EE926030EEA220D0E4E
:1051D000E926000EEA22E9CF16F0EACF17F0700EAA
:1051E0001626000E1722010EDB50100D1650F32468
:1051F000146E1750F420156EDF500F011424E96E61
:10520000000E1520EA6EE552E750EF6E010EDB2A24
:10521000ECD6DF2A27D6FE0EDB50E96EEA6A5D0E79
:10522000EA02F3CFEAFFE950EA265D0EE902F3CF86
:10523000E9FFF450EA26000EE926030EEA22080EE2
:10524000E926000EEA22EF6A010E00D0146E070E66
:10525000E15C02E2E16AE552E16E1450E552E7CF0B
:10526000D9FF1200D9CFE6FFE1CFD9FFFE0EDB5008
:10527000E96EEA6A5D0EEA02F3CFEAFFE950EA2638
:105280005D0EE902F3CFE9FFF450EA26000EE926AD
:10529000030EEA22060EE926000EEA22FD0EDBCFFF
:1052A000EFFFFE0EDB50E96EEA6A5D0EEA02F3CF15
:1052B000EAFFE950EA265D0EE902F3CFE9FFF45078
:1052C000EA26000EE926030EEA22070EE926000E62
:1052D000EA22FD0EDBCFEFFFE552E7CFD9FF120048
:1052E000D9CFE6FFE1CFD9FF020EE126FD0EDB505C
:1052F000146E156AFE0EDB50E96EEA6A5D0EEA0274
:10530000F3CFEAFFE950EA265D0EE902F3CFE9FFA9
:10531000F450EA26000EE926030EEA22030EE926DF
:10532000000EEA221450EE24E76E1550EE20EA6ECD
:10533000E7CFE9FFEF50E00FE76E010EE7CFDBFFAD
:10534000DF6A070EDF5C01E3D0D0010EDB50080DF1
:10535000F3CF18F0F4CF19F0AA0E1826890E1922EF
:10536000DF500F011824F66E000E1920F76E0800AA
:10537000F550E66EFE0EDB50E96EEA6A5D0EEA025B
:10538000F3CFEAFFE950EA265D0EE902F3CFE9FF29
:10539000F450EA26000EE926030EEA22ED0EE92675
:1053A000000EEA22E9CF16F0EACF17F0DF50100D19
:1053B0001650F324146E1750F420156EFD0EDB50BA
:1053C0000F011424E96E000E1520EA6EE552E75035
:1053D000EF6EDF50100DF3CF18F0F4CF19F0ED0E93
:1053E0001826030E1922FD0EDB500F011824E96E5A
:1053F000000E1920EA6EEF50E66EFE0EDB50E96EED
:10540000EA6A5D0EEA02F3CFEAFFE950EA265D0E92
:10541000E902F3CFE9FFF450EA26000EE926030E75
:10542000EA220D0EE926000EEA22E9CF16F0EACFB5
:1054300017F0DF50100D1650F324146E1750F4209F
:10544000156EFD0EDB500F011424E96E000E1520C1
:10545000EA6EE552E750EF6EDF50100DF3CF18F013
:10546000F4CF19F0ED0E1826030E1922FD0EDB50B5
:105470000F011824E96E000E1920EA6EEF50E66E57
:10548000FE0EDB50E96EEA6A5D0EEA02F3CFEAFF38
:10549000E950EA265D0EE902F3CFE9FFF450EA266F
:1054A000000EE926030EEA220D0EE926000EEA227E
:1054B000E9CF16F0EACF17F0700E1626000E17226D
:1054C000DF50100D1650F324146E1750F420156E93
:1054D000FD0EDB500F011424E96E000E1520EA6E5C
:1054E000E552E750EF6EDF2A2CD7020EE15C02E2B4
:1054F000E16AE552E16EE552E7CFD9FF1200D9CF5C
:10550000E6FFE1CFD9FFE652FE0EDB50E96EEA6A14
:105510005D0EEA02F3CFEAFFE950EA265D0EE902EA
:10552000F3CFE9FFF450EA26000EE926030EEA2243
:10553000EE52EF6AFE0EDB50E96EEA6A5D0EEA0299
:10554000F3CFEAFFE950EA265D0EE902F3CFE9FF67
:10555000F450EA26000EE926030EEA22030EE9269D
:10556000000EEA22EE6AED6AFE0EDB50E96EEA6A90
:105570005D0EEA02F3CFEAFFE950EA265D0EE9028A
:10558000F3CFE9FFF450EA26000EE926030EEA22E3
:10559000050EE926000EEA22EF6AFE0EDB50E96EE8
:1055A000EA6A5D0EEA02F3CFEAFFE950EA265D0EF1
:1055B000E902F3CFE9FFF450EA26000EE926030ED4
:1055C000EA22060EE926000EEA22EF6AFE0EDB5002
:1055D000E96EEA6A5D0EEA02F3CFEAFFE950EA26D5
:1055E0005D0EE902F3CFE9FFF450EA26000EE9264A
:1055F000030EEA22090EE926000EEA22EF6AFE0EE9
:10560000DB50E96EEA6A5D0EEA02F3CFEAFFE95089
:10561000EA265D0EE902F3CFE9FFF450EA26000E18
:10562000E926030EEA220A0EE926000EEA22EF6AB4
:10563000FE0EDB50E96EEA6A5D0EEA02F3CFEAFF86
:10564000E950EA265D0EE902F3CFE9FFF450EA26BD
:10565000000EE926030EEA22070EE926000EEA22D2
:10566000EF6AFE0EDB50E96EEA6A5D0EEA02F3CFE6
:10567000EAFFE950EA265D0EE902F3CFE9FFF450B4
:10568000EA26000EE926030EEA220B0EE926000E9A
:10569000EA22EF6AFE0EDB50E96EEA6A5D0EEA026C
:1056A000F3CFEAFFE950EA265D0EE902F3CFE9FF06
:1056B000F450EA26000EE926030EEA220C0EE92633
:1056C000000EEA22EF6AFE0EDB50E96EEA6A5D0E1A
:1056D000EA02F3CFEAFFE950EA265D0EE902F3CFD2
:1056E000E9FFF450EA26000EE926030EEA22080E2E
:1056F000E926000EEA22EF6AFE0EDB50E96EEA6A46
:105700005D0EEA02F3CFEAFFE950EA265D0EE902F8
:10571000F3CFE9FFF450EA26000EE926030EEA2251
:10572000020EE926000EEA22EF6A700EDF6EDFCF6E
:10573000E6FFE66AE66AFE0EDB50E96EEA6A5D0E97
:10574000EA02F3CFEAFFE950EA265D0EE902F3CF61
:10575000E9FFF450EA26000EE926030EEA22ED0ED8
:10576000E926000EEA22E9CF14F0EACF15F014C0C2
:10577000E6FF15C0E6FFD2EC4DF0166E050EE15EB9
:105780001650DFCFE6FFE66AE66AFE0EDB50E96EF2
:10579000EA6A5D0EEA02F3CFEAFFE950EA265D0EFF
:1057A000E902F3CFE9FFF450EA26000EE926030EE2
:1057B000EA220D0EE926000EEA22E9CF14F0EACF24
:1057C00015F014C0E6FF15C0E6FFD2EC4DF0166EE2
:1057D000050EE15E1650DFCFE6FFE66AE66AFE0ED2
:1057E000DB50E96EEA6A5D0EEA02F3CFEAFFE950A8
:1057F000EA265D0EE902F3CFE9FFF450EA26000E37
:10580000E926030EEA220D0EE926000EEA22E9CF70
:1058100014F0EACF15F0700E1426000E152214C0F5
:10582000E6FF15C0E6FFD2EC4DF0166E050EE15E08
:105830001650E552E552E7CFD9FF1200D9CFE6FF67
:10584000E1CFD9FF050EE126DF6A020EDF5C02E33D
:1058500027EF31F0DF50E96EEA6A5D0EEA02F3CF1E
:10586000EAFFE950EA265D0EE902F3CFE9FFF450C2
:10587000EA26000EE926030EEA22060EE926000EAD
:10588000EA22EF5034E0DF50E96EEA6A5D0EEA0288
:10589000F3CFEAFFE950EA265D0EE902F3CFE9FF14
:1058A000F450EA26000EE926030EEA22070EE92646
:1058B000000EEA22EF06DF50E96EEA6A5D0EEA02A8
:1058C000F3CFEAFFE950EA265D0EE902F3CFE9FFE4
:1058D000F450EA26000EE926030EEA22070EE92616
:1058E000000EEA22EF50000802E224EF31F0DF5010
:1058F000E96EEA6A5D0EEA02F3CFEAFFE950EA26B2
:105900005D0EE902F3CFE9FFF450EA26000EE92626
:10591000030EEA22060EE926000EEA22EF50E66E9A
:10592000DF50E96EEA6A5D0EEA02F3CFEAFFE95062
:10593000EA265D0EE902F3CFE9FFF450EA26000EF5
:10594000E926030EEA22070EE926000EEA22E552B6
:10595000E750EF6E9D90DF50E96EEA6A5D0EEA0255
:10596000F3CFEAFFE950EA265D0EE902F3CFE9FF43
:10597000F450EA26000EE926030EEA22090EE92673
:10598000000EEA22EF5037E1DF50E96EEA6A5D0E61
:10599000EA02F3CFEAFFE950EA265D0EE902F3CF0F
:1059A000E9FFF450EA26000EE926030EEA220C0E67
:1059B000E926000EEA22EF5002E1010E01D0000EAE
:1059C000E66EDF50E96EEA6A5D0EEA02F3CFEAFFA7
:1059D000E950EA265D0EE902F3CFE9FFF450EA262A
:1059E000000EE926030EEA220B0EE926000EEA223B
:1059F000E552E750EF6EDF50E96EEA6A5D0EEA02AB
:105A0000F3CFEAFFE950EA265D0EE902F3CFE9FFA2
:105A1000F450EA26000EE926030EEA22090EE926D2
:105A2000000EEA22EF0403E19D8024EF31F09D8017
:105A3000DF50E96EEA6A5D0EEA02F3CFEAFFE95051
:105A4000EA265D0EE902F3CFE9FFF450EA26000EE4
:105A5000E926030EEA22060EE926000EEA22EF509E
:105A600001E1D7D3010EDB6A070EF36E010EDBCF27
:105A7000F4FFF350F45C01E31CD3010EF36E020E4D
:105A8000F3CFDBFFDF50E96EEA6A5D0EEA02F3CF87
:105A9000EAFFE950EA265D0EE902F3CFE9FFF45090
:105AA000EA26000EE926030EEA22020EE926000E7F
:105AB000EA22EF50F36E020EDBCFF4FFF350F45CFA
